{"abi":[{"type":"constructor","inputs":[{"name":"biddingTime","type":"uint256","internalType":"uint256"},{"name":"revealTime","type":"uint256","internalType":"uint256"},{"name":"beneficiaryAddress","type":"address","internalType":"address payable"}],"stateMutability":"nonpayable"},{"type":"function","name":"auctionEnd","inputs":[],"outputs":[],"stateMutability":"nonpayable"},{"type":"function","name":"beneficiary","inputs":[],"outputs":[{"name":"","type":"address","internalType":"address payable"}],"stateMutability":"view"},{"type":"function","name":"bid","inputs":[{"name":"blindedBid","type":"bytes32","internalType":"bytes32"}],"outputs":[],"stateMutability":"payable"},{"type":"function","name":"bidEndTime","inputs":[],"outputs":[{"name":"","type":"uint256","internalType":"uint256"}],"stateMutability":"view"},{"type":"function","name":"bids","inputs":[{"name":"","type":"address","internalType":"address"},{"name":"","type":"uint256","internalType":"uint256"}],"outputs":[{"name":"blindedBid","type":"bytes32","internalType":"bytes32"},{"name":"deposit","type":"uint256","internalType":"uint256"}],"stateMutability":"view"},{"type":"function","name":"highestBid","inputs":[],"outputs":[{"name":"","type":"uint256","internalType":"uint256"}],"stateMutability":"view"},{"type":"function","name":"highestBidder","inputs":[],"outputs":[{"name":"","type":"address","internalType":"address"}],"stateMutability":"view"},{"type":"function","name":"pendingReturns","inputs":[{"name":"","type":"address","internalType":"address"}],"outputs":[{"name":"","type":"uint256","internalType":"uint256"}],"stateMutability":"view"},{"type":"function","name":"reveal","inputs":[{"name":"values","type":"uint256[]","internalType":"uint256[]"},{"name":"fakes","type":"bool[]","internalType":"bool[]"},{"name":"secrets","type":"string[]","internalType":"string[]"}],"outputs":[],"stateMutability":"nonpayable"},{"type":"function","name":"revealEndTime","inputs":[],"outputs":[{"name":"","type":"uint256","internalType":"uint256"}],"stateMutability":"view"},{"type":"function","name":"withdraw","inputs":[],"outputs":[],"stateMutability":"nonpayable"},{"type":"event","name":"AuctionEnded","inputs":[],"anonymous":false},{"type":"event","name":"SomeOneBid","inputs":[{"name":"bidder","type":"address","indexed":false,"internalType":"address"}],"anonymous":false},{"type":"event","name":"SomeOneReveal","inputs":[{"name":"bidder","type":"address","indexed":false,"internalType":"address"}],"anonymous":false},{"type":"error","name":"AuctionEndAlreadyCalled","inputs":[]},{"type":"error","name":"BidNotHighEnough","inputs":[{"name":"highestBid","type":"uint256","internalType":"uint256"}]},{"type":"error","name":"OnlyCanBeCallAfterThisTime","inputs":[]},{"type":"error","name":"OnlyCanBeCallBeforeThisTime","inputs":[]}],"bytecode":{"object":"0x60803461009757601f610abe38819003918201601f19168301916001600160401b0383118484101761009c57808492606094604052833981010312610097578051906040602082015191015160018060a01b03811680910361009757600180546001600160a01b03191690911790556100859161007c90426100b2565b806002556100b2565b6003556040516109e890816100d68239f35b600080fd5b634e487b7160e01b600052604160045260246000fd5b919082018092116100bf57565b634e487b7160e01b600052601160045260246000fdfe6080604052600436101561001257600080fd5b60003560e01c806301495c1c146107275780631c8ac1cb1461033b57806326b387bb146103015780632a24f46c1461027257806338af3eed146102495780633ccfd60b146101ec5780634ba9a927146101ce57806391f90157146101a5578063957bb1e0146100d6578063d49dc1d8146100b85763d57bde791461009557600080fd5b346100b35760003660031901126100b3576020600554604051908152f35b600080fd5b346100b35760003660031901126100b3576020600354604051908152f35b60203660031901126100b35733600052600060205260406000206040516040810181811067ffffffffffffffff82111761018f576040526004358152602081019134835280546801000000000000000081101561018f5761013c91600182018155610798565b92909261017957600191518355519101557fbbd6f0ce47b0527d5539dc0b304e40c2ba35650d20b5bebed3441f75120753186020604051338152a1005b634e487b7160e01b600052600060045260246000fd5b634e487b7160e01b600052604160045260246000fd5b346100b35760003660031901126100b3576004546040516001600160a01b039091168152602090f35b346100b35760003660031901126100b3576020600254604051908152f35b346100b35760003660031901126100b357336000526006602052604060002080548015801561021757005b6000809392819392828094558290610240575b3390f11561023457005b6040513d6000823e3d90fd5b506108fc61022a565b346100b35760003660031901126100b3576001546040516001600160a01b039091168152602090f35b346100b35760003660031901126100b35760075460ff81166102ef5760ff1916600190811760075554600554600091829182918291906001600160a01b03168282156102e6575bf115610234577fa0e92984607195c326795751263414ee1074526323552e694c90ef2b99ae3f29600080a1005b506108fc6102b9565b604051630c39fb9f60e31b8152600490fd5b346100b35760203660031901126100b3576001600160a01b03610322610782565b1660005260066020526020604060002054604051908152f35b346100b35760603660031901126100b35767ffffffffffffffff6004358181116100b35761036d9036906004016107b4565b906024358381116100b3576103869036906004016107b4565b936044358181116100b35761039f9036906004016107b4565b91336000526000602052604060002054968787036100b3578781036100b3578784036100b35760009660005b89811061041d5760008080808c818115610414575b3390f115610234577f4a721811a3ae1bb3c26775b28c4c161da153657d9df31e5b0b4ff66c8181752c6020604051338152a1005b506108fc6103e0565b336000526000602052610434816040600020610798565b5061044082848b610823565b3561044c83868b610823565b3580151581036100b35788841015610711578360051b880135601e19893603018112156100b35787818a0135116100b3578089013536036020828b0101136100b35760008060405161049d816107e5565b601781527f3d3d3d3d3d3d3d76616c75653d3d3d3d3d3d3d3d3d3d3d00000000000000000060208201526040519082806020840193632d839cb360e21b85526040602482015261050a816104f660649687830190610875565b8c604483015203601f198101835282610801565b516a636f6e736f6c652e6c6f6794855afa5061057561058b60405161052e816107e5565b60168152753d3d3d3d3d3d3d66616b653d3d3d3d3d3d3d3d3d3d3d60501b6020820152604051928391602083019563c3b5563560e01b875260406024850152830190610875565b891515604483015203601f198101835282610801565b51915afa506040516105aa828b0135601f01601f191660200182610801565b8982018035808352369101602001116100b3576105e190828b01356020848d0101602083013760006020848d0135830101526108b5565b8354906105ed826108f6565b6106288a604051610620816106126020820194602088808301359201018a8c88610833565b03601f198101835282610801565b5190206108f6565b604051610648816106128d60208084019680830135920101888a88610833565b519020036107095761068e60405161065f816107e5565b601c81527f3d3d3d3d3d3d3d3d436865636b20706173733d3d3d3d3d3d3d3d3d3d0000000060208201526108b5565b8161069e6001850154809e610868565b9c821592156106fe575b50506106dc575b50600090555b60001981146106c6576001016103cb565b634e487b7160e01b600052601160045260246000fd5b6106e68133610945565b156106af578a919a039081116106c6579860006106af565b10159050818e6106a8565b5050506106b5565b634e487b7160e01b600052603260045260246000fd5b346100b35760403660031901126100b357610740610782565b6024359060018060a01b03166000526000602052604060002080548210156100b35760409161076e91610798565b506001815491015482519182526020820152f35b600435906001600160a01b03821682036100b357565b80548210156107115760005260206000209060011b0190600090565b9181601f840112156100b35782359167ffffffffffffffff83116100b3576020808501948460051b0101116100b357565b6040810190811067ffffffffffffffff82111761018f57604052565b90601f8019910116810190811067ffffffffffffffff82111761018f57604052565b91908110156107115760051b0190565b9284926080959285521515602085015260606040850152816060850152848401376000828201840152601f01601f1916010190565b919082018092116106c657565b919082519283825260005b8481106108a1575050826000602080949584010152601f8019910116010190565b602081830181015184830182015201610880565b600080916040516108e381610612602082019463104c13eb60e21b8652602060248401526044830190610875565b51906a636f6e736f6c652e6c6f675afa50565b6040519060208201906327b7cf8560e01b8252602483015260248252606082019082821067ffffffffffffffff83111761018f57600092839260405251906a636f6e736f6c652e6c6f675afa50565b60055491828111156109aa576004546001600160a01b039390841680610989575b5050600555166bffffffffffffffffffffffff60a01b6004541617600455600190565b60005260066020526109a16040600020918254610868565b90553880610966565b50505060009056fea2646970667358221220965e3104ea36048cbb8249cb454762e7278e4103e082e3951eea3aca73a2e83964736f6c63430008120033","linkReferences":{}},"methodIdentifiers":{"auctionEnd()":"2a24f46c","beneficiary()":"38af3eed","bid(bytes32)":"957bb1e0","bidEndTime()":"4ba9a927","bids(address,uint256)":"01495c1c","highestBid()":"d57bde79","highestBidder()":"91f90157","pendingReturns(address)":"26b387bb","reveal(uint256[],bool[],string[])":"1c8ac1cb","revealEndTime()":"d49dc1d8","withdraw()":"3ccfd60b"},"id":27}