{"abi":[{"type":"constructor","inputs":[],"stateMutability":"payable"},{"type":"function","name":"abort","inputs":[],"outputs":[],"stateMutability":"nonpayable"},{"type":"function","name":"buyer","inputs":[],"outputs":[{"name":"","type":"address","internalType":"address payable"}],"stateMutability":"view"},{"type":"function","name":"confirmPurchase","inputs":[],"outputs":[],"stateMutability":"payable"},{"type":"function","name":"confirmReceived","inputs":[],"outputs":[],"stateMutability":"nonpayable"},{"type":"function","name":"refundSeller","inputs":[],"outputs":[],"stateMutability":"nonpayable"},{"type":"function","name":"seller","inputs":[],"outputs":[{"name":"","type":"address","internalType":"address payable"}],"stateMutability":"view"},{"type":"function","name":"state","inputs":[],"outputs":[{"name":"","type":"uint8","internalType":"enum Purchase.State"}],"stateMutability":"view"},{"type":"function","name":"value","inputs":[],"outputs":[{"name":"","type":"uint256","internalType":"uint256"}],"stateMutability":"view"},{"type":"event","name":"Aborted","inputs":[],"anonymous":false},{"type":"event","name":"ItemReceived","inputs":[],"anonymous":false},{"type":"event","name":"PurchaseConfirmed","inputs":[],"anonymous":false},{"type":"event","name":"SellerRefunded","inputs":[],"anonymous":false},{"type":"error","name":"InvalidState","inputs":[]},{"type":"error","name":"OnlyBuyer","inputs":[]},{"type":"error","name":"OnlySeller","inputs":[]},{"type":"error","name":"ValueNotEven","inputs":[]}],"bytecode":{"object":"0x60806040819052600180546001600160a01b03191633178155349081901c6000556001198116036100395760405161046490816100498239f35b635f1f262160e11b8152600490fdfe6080604081815260048036101561001557600080fd5b600092833560e01c90816308551a53146104095750806335a063b4146103705780633fa4f245146103535780637150d8ae1461032a57806373fac6f01461026f578063c19d93fb1461022d578063c7981b1b146101395763d69606971461007b57600080fd5b82600319360112610135576002549160ff8360a01c16828110156101225761011557508254906001600160ff1b0382168203610102575060011b34036100fe577fd5d55c8a68912e9a110618df8d5e2e83b8d83211c57a8ddd1203df92885dc8818280a16001600160a81b0319163360ff60a01b191617600160a01b1760025580f35b5080fd5b634e487b7160e01b845260119052602483fd5b5163baf3f0f760e01b8152fd5b634e487b7160e01b855260218352602485fd5b8280fd5b50346101355782600319360112610135576001546001600160a01b03163381900361021e5760025460ff8160a01c168381101561020b576002036101fb577ffda69c32bcfdba840a167777906b173b607eb8b4d8853b97a80d26e613d858db8580a160ff60a01b1916600360a01b17600255835460038181029391908404036101e857508380809381938282156101df575bf1156101d5575080f35b51903d90823e3d90fd5b506108fc6101cb565b634e487b7160e01b855260119052602484fd5b835163baf3f0f760e01b81528390fd5b634e487b7160e01b865260218452602486fd5b5090516342e8fb9360e11b8152fd5b509190346100fe57816003193601126100fe5760ff60025460a01c169051918382101561025c57602083838152f35b634e487b7160e01b815260218452602490fd5b50346101355782600319360112610135576002546001600160a01b038116913383900361031c5760ff8260a01c1681811015610309576001036102fb57508380809381937fe89152acd703c9d8c7d28829d443260b411454d45394e7995815140c8cbcbcf78380a160ff60a01b1916600160a11b176002558154908282156101df57f1156101d5575080f35b835163baf3f0f760e01b8152fd5b634e487b7160e01b865260218252602486fd5b83516386efbb5560e01b8152fd5b5050346100fe57816003193601126100fe5760025490516001600160a01b039091168152602090f35b5050346100fe57816003193601126100fe57602091549051908152f35b50346101355782600319360112610135576001546001600160a01b031690338290036103fb576002549060ff8260a01c1681811015610309576102fb57508380809381937f72c874aeff0b183a56e2b79c71b46e1aed4dee5e09862134b8821ba2fddbf8bf8380a160ff60a01b1916600360a01b1760025547908282156101df57f1156101d5575080f35b82516342e8fb9360e11b8152fd5b8490346100fe57816003193601126100fe576001546001600160a01b03168152602090f3fea2646970667358221220e472f1b46fa646ab6b3e93c117c76d1a92bd61983ac6459f9df1b3e5b071d28864736f6c63430008120033","linkReferences":{}},"methodIdentifiers":{"abort()":"35a063b4","buyer()":"7150d8ae","confirmPurchase()":"d6960697","confirmReceived()":"73fac6f0","refundSeller()":"c7981b1b","seller()":"08551a53","state()":"c19d93fb","value()":"3fa4f245"},"id":37}