{"abi":[{"type":"function","name":"auctionEndTime","inputs":[],"outputs":[{"name":"","type":"uint256","internalType":"uint256"}],"stateMutability":"view"},{"type":"function","name":"beneficiary","inputs":[],"outputs":[{"name":"","type":"address","internalType":"address payable"}],"stateMutability":"view"},{"type":"function","name":"bids","inputs":[{"name":"","type":"address","internalType":"address"},{"name":"","type":"uint256","internalType":"uint256"}],"outputs":[{"name":"blindedBid","type":"bytes32","internalType":"bytes32"},{"name":"deposit","type":"uint256","internalType":"uint256"}],"stateMutability":"view"},{"type":"function","name":"highestBid","inputs":[],"outputs":[{"name":"","type":"uint256","internalType":"uint256"}],"stateMutability":"view"},{"type":"function","name":"highestBidder","inputs":[],"outputs":[{"name":"","type":"address","internalType":"address"}],"stateMutability":"view"},{"type":"function","name":"revealEndTime","inputs":[],"outputs":[{"name":"","type":"uint256","internalType":"uint256"}],"stateMutability":"view"}],"bytecode":{"object":"0x60808060405234610023576000805460ff60a01b191690556101a690816100298239f35b600080fdfe60806040818152600436101561001457600080fd5b600091823560e01c90816301495c1c146101105750806338af3eed146100e95780634b449cba146100cb57806391f90157146100a3578063d49dc1d8146100855763d57bde791461006457600080fd5b346100815781600319360112610081576020906003549051908152f35b5080fd5b50346100815781600319360112610081576020906005549051908152f35b503461008157816003193601126100815760025490516001600160a01b039091168152602090f35b50346100815781600319360112610081576020906001549051908152f35b5034610081578160031936011261008157905490516001600160a01b039091168152602090f35b9050823461016d578260031936011261016d576004356001600160a01b038116919082900361016d576024359181526004602052838120805483101561008157906020918152209060011b01600181549101549082526020820152f35b80fdfea2646970667358221220ae7eb01685d962708f27e0d4a4a4be76323a4af2b23ec670076ed1022c2331f864736f6c63430008120033","linkReferences":{}},"methodIdentifiers":{"auctionEndTime()":"4b449cba","beneficiary()":"38af3eed","bids(address,uint256)":"01495c1c","highestBid()":"d57bde79","highestBidder()":"91f90157","revealEndTime()":"d49dc1d8"},"id":94}