{"abi":[{"type":"function","name":"getImplementation","inputs":[],"outputs":[{"name":"impl","type":"address","internalType":"address"}],"stateMutability":"view"},{"type":"function","name":"getImplementationPosition","inputs":[],"outputs":[{"name":"implementationPosition","type":"bytes32","internalType":"bytes32"}],"stateMutability":"pure"},{"type":"function","name":"getOwnerAddress","inputs":[],"outputs":[{"name":"ownerAddress","type":"address","internalType":"address"}],"stateMutability":"view"},{"type":"function","name":"getOwnerPosition","inputs":[],"outputs":[{"name":"ownerPosition","type":"bytes32","internalType":"bytes32"}],"stateMutability":"pure"},{"type":"function","name":"setOwnership","inputs":[{"name":"_newOwner","type":"address","internalType":"address"}],"outputs":[],"stateMutability":"nonpayable"},{"type":"function","name":"upgradeTo","inputs":[{"name":"newImplementation","type":"address","internalType":"address"}],"outputs":[],"stateMutability":"nonpayable"}],"bytecode":{"object":"0x60808060405234610016576102bb908161001c8239f35b600080fdfe608080604052600436101561001357600080fd5b600090813560e01c9081630a891cee146101e3575080630c4f65bd146101ad5780633659cfe614610139578063a7016023146100d6578063aaf10f421461008e5763fc6af6971461006357600080fd5b3461008b578060031936011261008b5760206040516000805160206102668339815191528152f35b80fd5b503461008b578060031936011261008b577f74dbd92bcb8b748651fcc6c5c07d05f1b315db21298fc350f01fa00aad896fa2546040516001600160a01b039091168152602090f35b503461008b57602036600319011261008b576004356001600160a01b03808216808303610135576000805160206102668339815191529182541680610124575b5015610120575580f35b8280fd5b61012f903314610221565b38610116565b8380fd5b503461008b57602036600319011261008b576004356001600160a01b0380821682036101205760008051602061026683398151915254168061019c575b507f74dbd92bcb8b748651fcc6c5c07d05f1b315db21298fc350f01fa00aad896fa25580f35b6101a7903314610221565b38610176565b503461008b578060031936011261008b57600080516020610266833981519152546040516001600160a01b039091168152602090f35b90503461021d578160031936011261021d57807f74dbd92bcb8b748651fcc6c5c07d05f1b315db21298fc350f01fa00aad896fa260209252f35b5080fd5b1561022857565b60405162461bcd60e51b81526020600482015260156024820152743737ba1037bbb732b913b99037b832b930ba34b7b760591b6044820152606490fdfe3ab6f526091d83c7f608550777c84774384a084c2342172c3693bc68bb521cfaa2646970667358221220c396799b86dc89d2149729d87547e5e0f0b218b46949106c80d6730690894a9864736f6c63430008120033","linkReferences":{}},"methodIdentifiers":{"getImplementation()":"aaf10f42","getImplementationPosition()":"0a891cee","getOwnerAddress()":"0c4f65bd","getOwnerPosition()":"fc6af697","setOwnership(address)":"a7016023","upgradeTo(address)":"3659cfe6"},"id":65}