{"abi":[{"type":"function","name":"bid","inputs":[],"outputs":[],"stateMutability":"payable"},{"type":"function","name":"highestBid","inputs":[],"outputs":[{"name":"","type":"uint256","internalType":"uint256"}],"stateMutability":"view"},{"type":"function","name":"highestBidder","inputs":[],"outputs":[{"name":"","type":"address","internalType":"address"}],"stateMutability":"view"},{"type":"function","name":"pendingReturns","inputs":[{"name":"","type":"address","internalType":"address"}],"outputs":[{"name":"","type":"uint256","internalType":"uint256"}],"stateMutability":"view"},{"type":"function","name":"withdraw","inputs":[],"outputs":[],"stateMutability":"nonpayable"},{"type":"error","name":"BidNotHighEnough","inputs":[{"name":"highestBid","type":"uint256","internalType":"uint256"}]}],"bytecode":{"object":"0x6080806040523461001657610200908161001c8239f35b600080fdfe60806040818152600436101561001457600080fd5b600091823560e01c9081631998aeef1461013f5750806326b387bb146101005780633ccfd60b146100a157806391f901571461007a5763d57bde791461005957600080fd5b346100765781600319360112610076576020906001549051908152f35b5080fd5b5034610076578160031936011261007657905490516001600160a01b039091168152602090f35b503461007657816003193601126100765733825260026020528181812080549081159081156100ce578380f35b839283928380935582906100f7575b3390f1156100ed57818180808380f35b51903d90823e3d90fd5b506108fc6100dd565b5034610076576020366003190112610076576004356001600160a01b0381169081900361013b57828291602094526002845220549051908152f35b8280fd5b9190508260031936011261013b5760015491823411156101b4575081610178575b82546001600160a01b03191633178355346001558280f35b82546001600160a01b031683526002602052822080549182019182106101a057553880610160565b634e487b7160e01b83526011600452602483fd5b634e12c1bb60e01b815260048101839052602490fdfea2646970667358221220b342644fd6e4094ee01b848a09e293a27c06a9427c9f2a7e904c5f0bbc0530a364736f6c63430008120033","linkReferences":{}},"methodIdentifiers":{"bid()":"1998aeef","highestBid()":"d57bde79","highestBidder()":"91f90157","pendingReturns(address)":"26b387bb","withdraw()":"3ccfd60b"},"id":24}