{"abi":[{"type":"constructor","inputs":[{"name":"_blindAuctionImpl","type":"address","internalType":"address"},{"name":"_openAuctionImpl","type":"address","internalType":"address"}],"stateMutability":"nonpayable"},{"type":"function","name":"allAuctions","inputs":[{"name":"","type":"uint256","internalType":"uint256"}],"outputs":[{"name":"auctionType","type":"uint8","internalType":"enum AuctionFactory.AuctionType"},{"name":"auctionAddress","type":"address","internalType":"address"}],"stateMutability":"view"},{"type":"function","name":"allAuctionsLength","inputs":[],"outputs":[{"name":"","type":"uint256","internalType":"uint256"}],"stateMutability":"view"},{"type":"function","name":"blindAuctionImpl","inputs":[],"outputs":[{"name":"","type":"address","internalType":"address"}],"stateMutability":"view"},{"type":"function","name":"createAuctions","inputs":[{"name":"_auctionType","type":"uint8","internalType":"enum AuctionFactory.AuctionType"}],"outputs":[{"name":"auctionAddress","type":"address","internalType":"address"}],"stateMutability":"nonpayable"},{"type":"function","name":"emergencyFlag","inputs":[],"outputs":[{"name":"","type":"bool","internalType":"bool"}],"stateMutability":"view"},{"type":"function","name":"getOwnerAddress","inputs":[],"outputs":[{"name":"ownerAddress","type":"address","internalType":"address"}],"stateMutability":"view"},{"type":"function","name":"getOwnerPosition","inputs":[],"outputs":[{"name":"ownerPosition","type":"bytes32","internalType":"bytes32"}],"stateMutability":"pure"},{"type":"function","name":"openAuctionImpl","inputs":[],"outputs":[{"name":"","type":"address","internalType":"address"}],"stateMutability":"view"},{"type":"function","name":"setNewBlindAuctionImpl","inputs":[{"name":"_newBlindAuctionImpl","type":"address","internalType":"address"}],"outputs":[],"stateMutability":"nonpayable"},{"type":"function","name":"setNewOpenAuctionImpl","inputs":[{"name":"_newOpenAuctionImpl","type":"address","internalType":"address"}],"outputs":[],"stateMutability":"nonpayable"},{"type":"function","name":"setOwnership","inputs":[{"name":"_newOwner","type":"address","internalType":"address"}],"outputs":[],"stateMutability":"nonpayable"},{"type":"function","name":"userAuctions","inputs":[{"name":"","type":"address","internalType":"address"},{"name":"","type":"uint256","internalType":"uint256"}],"outputs":[{"name":"auctionType","type":"uint8","internalType":"enum AuctionFactory.AuctionType"},{"name":"auctionAddress","type":"address","internalType":"address"}],"stateMutability":"view"},{"type":"event","name":"AuctionCreated","inputs":[{"name":"_newAuctionAddr","type":"address","indexed":true,"internalType":"address"},{"name":"_creator","type":"address","indexed":true,"internalType":"address"},{"name":"_auctionType","type":"uint8","indexed":false,"internalType":"enum AuctionFactory.AuctionType"}],"anonymous":false}],"bytecode":{"object":"0x6080346100c657601f611af138819003918201601f19168301916001600160401b0383118484101761011c5780849260409485528339810103126100c657610052602061004b83610132565b9201610132565b600280546001600160a01b03199081166001600160a01b0394851617909155600380549091169183169190911790557f89b36b3c62a6d3d8fd267aacf951169736f972af4f069e0cf229787bcae325968054909116806100cb575b5033156100c6573390556040516119aa90816101478239f35b600080fd5b33036100d757386100ad565b60405162461bcd60e51b815260206004820152601560248201527f6e6f74206f776e65722773206f7065726174696f6e00000000000000000000006044820152606490fd5b634e487b7160e01b600052604160045260246000fd5b51906001600160a01b03821682036100c65756fe608060408181526004918236101561001657600080fd5b600092833560e01c9182630c4f65bd1461078d57508163165c58811461072a5781633b2807e8146107015781634077503a146106e25781635aa64f3c146106b9578163797b9ad31461035f5781637cf0bf6214610291578163a701602314610238578163b4007cda14610211578163b4fbe80a146101a7578163c6c8201b146100d4575063fc6af697146100a957600080fd5b346100d057816003193601126100d057602090516000805160206119558339815191528152f35b5080fd5b9050346101a35760203660031901126101a3576100ef610832565b600080516020611955833981519152546001600160a01b039190821680610192575b50169182156101375750506bffffffffffffffffffffffff60a01b600254161760025580f35b906020608492519162461bcd60e51b8352820152602f60248201527f546865206e657720426c696e6441756374696f6e496d706c206164647265737360448201526e02063616e6e6f74206265203078303608c1b6064820152fd5b61019d903314610877565b38610111565b8280fd5b82843461020e578160031936011261020e576101c1610832565b6001600160a01b0390811682526020829052828220805491926024359283101561020e5750926101f661020a9260ff956107bf565b505490519384938260081c16911683610810565b0390f35b80fd5b5050346100d057816003193601126100d05760209060ff60035460a01c1690519015158152f35b833461020e57602036600319011261020e57610252610832565b60008051602061195583398151915280546001600160a01b0390811680610280575b508216156101a3575580f35b61028b903314610877565b84610274565b9050346101a35760203660031901126101a3576102ac610832565b600080516020611955833981519152546001600160a01b03919082168061034e575b50169182156102f45750506bffffffffffffffffffffffff60a01b600354161760035580f35b906020608492519162461bcd60e51b8352820152602e60248201527f546865206e6577204f70656e41756374696f6e496d706c20616464726573732060448201526d063616e6e6f7420626520307830360941b6064820152fd5b610359903314610877565b386102ce565b919050346101a3576020928360031936011261020e57823590600282101561020e5760ff60035460a01c1661068357816105a75782516108648082019082821067ffffffffffffffff831117610594579082916108bc8339039082f08015610588576002546001600160a01b039182169116813b156101a357845190631b2ce7f360e11b825286820152828160248183865af1801561056a57908391610574575b5050803b156100d057835163a701602360e01b81523386820152828160248183865af1801561056a57908391610556575b5050935b3382528186528382209484519285840184811067ffffffffffffffff8211176105415786528484528784019160018060a01b0316968783528054906801000000000000000082101561052e5790610491916001820181556107bf565b94909461051c575192600284101561050957505082549051610100600160a81b0360089190911b1660ff929092166001600160a81b0319909116171790558151906104dd9082906107ed565b827f2b75e87ec8b0882be05b7b3d13d20ef1e8584c4a4705511bb6fb5280ae55913f853393a351908152f35b634e487b7160e01b825260219052602490fd5b634e487b7160e01b8252818452602482fd5b634e487b7160e01b835260418552602483fd5b604184634e487b7160e01b6000525260246000fd5b61055f9061084d565b6100d0578138610431565b85513d85823e3d90fd5b61057d9061084d565b6100d0578138610400565b508251903d90823e3d90fd5b634e487b7160e01b845260418752602484fd5b82516108358082019082821067ffffffffffffffff831117610594579082916111208339039082f0908115610678576003546001600160a01b039283169216823b156100d057845190631b2ce7f360e11b825286820152818160248183875af1801561066e5761065f575b5090803b156100d057835163a701602360e01b81523386820152828160248183865af1801561056a5790839161064b575b505093610435565b6106549061084d565b6100d0578138610643565b6106689061084d565b38610612565b85513d84823e3d90fd5b8351903d90823e3d90fd5b825162461bcd60e51b8152808501869052601060248201526f456d657267656e63792073746174757360801b6044820152606490fd5b5050346100d057816003193601126100d05760025490516001600160a01b039091168152602090f35b5050346100d057816003193601126100d0576020906001549051908152f35b5050346100d057816003193601126100d05760035490516001600160a01b039091168152602090f35b9050346101a35760203660031901126101a357356001548110156101a357600161020a93527fb10e2d527612073b26eecdfd717e6a320cf44b4afac2b0732d9fcbe2b7fa0cf60154905191829160ff60018060a01b038260081c16911683610810565b8490346100d057816003193601126100d057600080516020611955833981519152546001600160a01b03168152602090f35b80548210156107d75760005260206000200190600090565b634e487b7160e01b600052603260045260246000fd5b9060028210156107fa5752565b634e487b7160e01b600052602160045260246000fd5b9092916020906108248360408101966107ed565b6001600160a01b0316910152565b600435906001600160a01b038216820361084857565b600080fd5b67ffffffffffffffff811161086157604052565b634e487b7160e01b600052604160045260246000fd5b1561087e57565b60405162461bcd60e51b81526020600482015260156024820152743737ba1037bbb732b913b99037b832b930ba34b7b760591b6044820152606490fdfe6080806040523461001657610848908161001c8239f35b600080fdfe608060408181526004918236101561001657600080fd5b600092833560e01c9182630a891cee14610644575081630c4f65bd1461060e5781631c8ac1cb14610433578382632a24f46c146103ef575081633659cfe614610391578382633ccfd60b14610341575081636a121eb9146101f9578163957bb1e01461016257508063a701602314610102578063aaf10f42146100cd5763fc6af697146100a257600080fd5b346100c957816003193601126100c957602090516000805160206107d38339815191528152f35b5080fd5b50346100c957816003193601126100c9576000805160206107f38339815191525490516001600160a01b039091168152602090f35b823461015f57602036600319011261015f5761011c6106a2565b6000805160206107d383398151915280546001600160a01b039081168061014e575b5082161561014a575580f35b8280fd5b6101599033146106b8565b8461013e565b80fd5b838360203660031901126100c9576000805160206107f3833981519152549080519360208501916304abdd8f60e51b83528135602487015260248652606086019186831067ffffffffffffffff8411176101e657505283516101d99284928392915af46101cd610750565b816101dc575b50610790565b80f35b90505115836101d3565b634e487b7160e01b865260419052602485fd5b90503461014a5760c036600319011261014a576001600160a01b03906044358281169081900361033d576064358381168091036103395760843592848416809403610335576000805160206107d3833981519152958587541680610324575b506000805160206107f383398151915254948151936020850195636a121eb960e01b87528435602487015260243560448701526064860152608485015260a484015260a43560c484015260c4835261010083019183831067ffffffffffffffff841117610311575052516102e09286928392915af46102d5610750565b816103075750610790565b815416806102f6575b5033156100c95733905580f35b6103019033146106b8565b386102e9565b90505115386101d3565b634e487b7160e01b895260419052602488fd5b61032f9033146106b8565b38610258565b8680fd5b8580fd5b8480fd5b9150346100c957816003193601126100c9576101d99282916000805160206107f38339815191525491516020810191633ccfd60b60e01b83528152610385816106fc565b51915af46102d5610750565b833461015f57602036600319011261015f576103ab6106a2565b6000805160206107d3833981519152546001600160a01b0316806103de575b506000805160206107f38339815191525580f35b6103e99033146106b8565b826103ca565b9150346100c957816003193601126100c9576101d99282916000805160206107f38339815191525491516020810191630a893d1b60e21b83528152610385816106fc565b8383346100c95760603660031901126100c95767ffffffffffffffff833581811161060a57610465903690860161066c565b916024358181116103395761047d903690880161066c565b929096604435838111610606576104969136910161066c565b91906000805160206107f38339815191525496519460209283870197631c8ac1cb60e01b89526060602489015280608489015260018060fb1b038111610602579060c49160059c97969594939c1b809160a48a013787018b60a4820160808a84030160448b015252019499895b8181106105d6575050889950602398979819868603016064870152828552818501828460051b8701019582958a935b868510610563575050896101d981808e8d8d610557818f03601f19810183528261072e565b51915af46101cd610750565b9091929394959697601f19808583030186528935601e19843603018112156105d257830188813591018582116105ce5781360381136105ce57838f93601f848d9681889796889760019b5287870137858286010152011601019a019501950193969594929190610532565b8e80fd5b8d80fd5b9091929394958b358015158091036105fe5781529a84019a8401959493929190600101610503565b8b80fd5b8a80fd5b8780fd5b8380fd5b5050346100c957816003193601126100c9576000805160206107d38339815191525490516001600160a01b039091168152602090f35b8490346100c957816003193601126100c957806000805160206107f383398151915260209252f35b9181601f8401121561069d5782359167ffffffffffffffff831161069d576020808501948460051b01011161069d57565b600080fd5b600435906001600160a01b038216820361069d57565b156106bf57565b60405162461bcd60e51b81526020600482015260156024820152743737ba1037bbb732b913b99037b832b930ba34b7b760591b6044820152606490fd5b6040810190811067ffffffffffffffff82111761071857604052565b634e487b7160e01b600052604160045260246000fd5b90601f8019910116810190811067ffffffffffffffff82111761071857604052565b3d1561078b573d9067ffffffffffffffff8211610718576040519161077f601f8201601f19166020018461072e565b82523d6000602084013e565b606090565b1561079757565b60405162461bcd60e51b815260206004820152601360248201527219195b1959d85d1958d85b1b0819985a5b1959606a1b6044820152606490fdfeb57f0cf330bf7f95b43f3db6cc247b2fad54dff50060f4879a89bfae6af8bec9d8783a201dbe4630138646b6a4841a31f1af98dfb8abbb44d025578c324d7beda2646970667358221220a2c0f7c28823575eed4ccf11b4255d23885e663e4726d22d50f5755b4a204b9164736f6c6343000812003360808060405234610023576000805460ff60a01b1916905561080c90816100298239f35b600080fdfe608060408181526004918236101561001657600080fd5b600092833560e01c9182630a891cee14610650575081630c4f65bd1461061a57816317d70f7c146105fb578382631998aeef146105bc5750816326b387bb146105845781632a24f46c146104e25781633659cfe61461048457816338af3eed1461045c5781633a0c4f8014610433578382633ccfd60b146103e0575081634b449cba146103c157816355447a381461039857816362ad08251461025857816391f9015714610230578163a7016023146101d4578163aaf10f421461019e578163c3b7b1361461014357508063d57bde79146101255763fc6af697146100fa57600080fd5b34610121578160031936011261012157602090516000805160206107978339815191528152f35b5080fd5b50346101215781600319360112610121576020906005549051908152f35b90503461019a57602036600319011261019a573560095481101561019a5760096020935260018060a01b03907f6e1540171b6c0c960b71a7020d9f60077f6af931a8bbf590da0223dacf75c7af0154169051908152f35b8280fd5b5050346101215781600319360112610121576000805160206107b78339815191525490516001600160a01b039091168152602090f35b833461022d57602036600319011261022d576101ee610678565b60008051602061079783398151915280546001600160a01b039081168061021c575b5082161561019a575580f35b610227903314610693565b84610210565b80fd5b90503461019a578260031936011261019a575490516001600160a01b03909116815260209150f35b90503461019a5760a036600319011261019a576001600160a01b03906024358281169081900361039457604435838116809103610390576064359284841680940361038c5760008051602061079783398151915295858754168061037b575b506000805160206107b7833981519152549481519360208501956362ad082560e01b87528435602487015260448601526064850152608484015260843560a484015260a4835260e083019183831067ffffffffffffffff841117610368575052516103379286928392915af461032b610709565b8161035e575b50610754565b8154168061034d575b5033156101215733905580f35b610358903314610693565b38610340565b9050511538610331565b634e487b7160e01b895260419052602488fd5b610386903314610693565b386102b7565b8680fd5b8580fd5b8480fd5b50503461012157816003193601126101215760075490516001600160a01b039091168152602090f35b5050346101215781600319360112610121576020906003549051908152f35b9150346101215781600319360112610121576104309282916000805160206107b78339815191525491516020810191633ccfd60b60e01b83528152610424816106d7565b51915af461032b610709565b80f35b50503461012157816003193601126101215760065490516001600160a01b039091168152602090f35b505034610121578160031936011261012157905490516001600160a01b039091168152602090f35b833461022d57602036600319011261022d5761049e610678565b600080516020610797833981519152546001600160a01b0316806104d1575b506000805160206107b78339815191525580f35b6104dc903314610693565b826104bd565b9190503461019a578260031936011261019a5782806000805160206107b78339815191525483516020810190630a893d1b60e21b8252868152610524816106d7565b51915af4610530610709565b8161057a575b5015610540578280f35b906020606492519162461bcd60e51b8352820152601460248201527364656c656761746563616c6c206661696c65643160601b6044820152fd5b9050511538610536565b5050346101215760203660031901126101215760209181906001600160a01b036105ac610678565b1681526001845220549051908152f35b809250600319360112610121576104309282916000805160206107b78339815191525491516020810191631998aeef60e01b83528152610424816106d7565b5050346101215781600319360112610121576020906008549051908152f35b5050346101215781600319360112610121576000805160206107978339815191525490516001600160a01b039091168152602090f35b849034610121578160031936011261012157806000805160206107b783398151915260209252f35b600435906001600160a01b038216820361068e57565b600080fd5b1561069a57565b60405162461bcd60e51b81526020600482015260156024820152743737ba1037bbb732b913b99037b832b930ba34b7b760591b6044820152606490fd5b6040810190811067ffffffffffffffff8211176106f357604052565b634e487b7160e01b600052604160045260246000fd5b3d1561074f5767ffffffffffffffff903d8281116106f35760405192601f8201601f19908116603f01168401908111848210176106f35760405282523d6000602084013e565b606090565b1561075b57565b60405162461bcd60e51b815260206004820152601360248201527219195b1959d85d1958d85b1b0819985a5b1959606a1b6044820152606490fdfe3ab6f526091d83c7f608550777c84774384a084c2342172c3693bc68bb521cfa74dbd92bcb8b748651fcc6c5c07d05f1b315db21298fc350f01fa00aad896fa2a2646970667358221220c720d8cca7449091e6d2ae40f3d23644ce14879de2c0586836abda5ae108085664736f6c6343000812003389b36b3c62a6d3d8fd267aacf951169736f972af4f069e0cf229787bcae32596a2646970667358221220518c09f000080faa44b95d8d99b1635ab73ffd2f2e9c04d6306867b87d309aca64736f6c63430008120033","linkReferences":{}},"methodIdentifiers":{"allAuctions(uint256)":"165c5881","allAuctionsLength()":"4077503a","blindAuctionImpl()":"5aa64f3c","createAuctions(uint8)":"797b9ad3","emergencyFlag()":"b4007cda","getOwnerAddress()":"0c4f65bd","getOwnerPosition()":"fc6af697","openAuctionImpl()":"3b2807e8","setNewBlindAuctionImpl(address)":"c6c8201b","setNewOpenAuctionImpl(address)":"7cf0bf62","setOwnership(address)":"a7016023","userAuctions(address,uint256)":"b4fbe80a"},"id":97}