{"abi":[{"type":"function","name":"auctionEnd","inputs":[],"outputs":[],"stateMutability":"nonpayable"},{"type":"function","name":"bid","inputs":[],"outputs":[],"stateMutability":"payable"},{"type":"function","name":"getImplementation","inputs":[],"outputs":[{"name":"impl","type":"address","internalType":"address"}],"stateMutability":"view"},{"type":"function","name":"getImplementationPosition","inputs":[],"outputs":[{"name":"implementationPosition","type":"bytes32","internalType":"bytes32"}],"stateMutability":"pure"},{"type":"function","name":"getOwnerAddress","inputs":[],"outputs":[{"name":"ownerAddress","type":"address","internalType":"address"}],"stateMutability":"view"},{"type":"function","name":"getOwnerPosition","inputs":[],"outputs":[{"name":"ownerPosition","type":"bytes32","internalType":"bytes32"}],"stateMutability":"pure"},{"type":"function","name":"init","inputs":[{"name":"biddingTime","type":"uint256","internalType":"uint256"},{"name":"beneficiaryAddress","type":"address","internalType":"address payable"}],"outputs":[],"stateMutability":"nonpayable"},{"type":"function","name":"setOwnership","inputs":[{"name":"_newOwner","type":"address","internalType":"address"}],"outputs":[],"stateMutability":"nonpayable"},{"type":"function","name":"upgradeTo","inputs":[{"name":"newImplementation","type":"address","internalType":"address"}],"outputs":[],"stateMutability":"nonpayable"},{"type":"function","name":"withdraw","inputs":[],"outputs":[],"stateMutability":"nonpayable"}],"bytecode":{"object":"0x6080806040523461001657610572908161001c8239f35b600080fdfe608060408181526004918236101561001657600080fd5b600092833560e01c9182630a891cee146103d1575081630c4f65bd1461039b578382631998aeef1461035c5782632a24f46c14610318575081633659cfe6146102b7578382633ccfd60b1461026457508163a701602314610206578163aaf10f42146101d0578163b792e6ec146100c2575063fc6af6971461009757600080fd5b346100be57816003193601126100be57602090516000805160206104fd8339815191528152f35b5080fd5b9050346101cc57816003193601126101cc576001600160a01b0390602435828116908190036101c8576000805160206104fd8339815191529383855416806101b7575b5060008051602061051d83398151915254928151916020830193632de4b9bb60e21b855282356024850152604484015260448352608083019183831067ffffffffffffffff8411176101a4575052516101739286928392915af461016761046f565b8161019a575b506104ba565b81541680610189575b5033156100be5733905580f35b6101949033146103f9565b3861017c565b905051153861016d565b634e487b7160e01b895260419052602488fd5b6101c29033146103f9565b38610105565b8480fd5b8280fd5b5050346100be57816003193601126100be5760008051602061051d8339815191525490516001600160a01b039091168152602090f35b8390346100be5760203660031901126100be57356001600160a01b03808216808303610260576000805160206104fd833981519152918254168061024f575b50156101cc575580f35b61025a9033146103f9565b84610245565b8380fd5b9150346100be57816003193601126100be576102b492829160008051602061051d8339815191525491516020810191633ccfd60b60e01b835281526102a88161043d565b51915af461016761046f565b80f35b8390346100be5760203660031901126100be57356001600160a01b0380821682036101cc576000805160206104fd833981519152541680610307575b5060008051602061051d8339815191525580f35b6103129033146103f9565b826102f3565b9150346100be57816003193601126100be576102b492829160008051602061051d8339815191525491516020810191630a893d1b60e21b835281526102a88161043d565b8092506003193601126100be576102b492829160008051602061051d8339815191525491516020810191631998aeef60e01b835281526102a88161043d565b5050346100be57816003193601126100be576000805160206104fd8339815191525490516001600160a01b039091168152602090f35b8490346100be57816003193601126100be578060008051602061051d83398151915260209252f35b1561040057565b60405162461bcd60e51b81526020600482015260156024820152743737ba1037bbb732b913b99037b832b930ba34b7b760591b6044820152606490fd5b6040810190811067ffffffffffffffff82111761045957604052565b634e487b7160e01b600052604160045260246000fd5b3d156104b55767ffffffffffffffff903d8281116104595760405192601f8201601f19908116603f01168401908111848210176104595760405282523d6000602084013e565b606090565b156104c157565b60405162461bcd60e51b815260206004820152601360248201527219195b1959d85d1958d85b1b0819985a5b1959606a1b6044820152606490fdfe3ab6f526091d83c7f608550777c84774384a084c2342172c3693bc68bb521cfa74dbd92bcb8b748651fcc6c5c07d05f1b315db21298fc350f01fa00aad896fa2a2646970667358221220c26d4c030e75261e136a00357881de319a578e4dcd158fe8cc8dcdd2c9cf6c9764736f6c63430008120033","linkReferences":{}},"methodIdentifiers":{"auctionEnd()":"2a24f46c","bid()":"1998aeef","getImplementation()":"aaf10f42","getImplementationPosition()":"0a891cee","getOwnerAddress()":"0c4f65bd","getOwnerPosition()":"fc6af697","init(uint256,address)":"b792e6ec","setOwnership(address)":"a7016023","upgradeTo(address)":"3659cfe6","withdraw()":"3ccfd60b"},"id":67}