{"abi":[{"type":"constructor","inputs":[{"name":"_blindAuctionImpl","type":"address","internalType":"address"},{"name":"_openAuctionImpl","type":"address","internalType":"address"}],"stateMutability":"nonpayable"},{"type":"function","name":"allAuctions","inputs":[{"name":"","type":"uint256","internalType":"uint256"}],"outputs":[{"name":"auctionType","type":"uint8","internalType":"enum AuctionFactory.AuctionType"},{"name":"auctionAddress","type":"address","internalType":"address"}],"stateMutability":"view"},{"type":"function","name":"allAuctionsLength","inputs":[],"outputs":[{"name":"","type":"uint256","internalType":"uint256"}],"stateMutability":"view"},{"type":"function","name":"blindAuctionImpl","inputs":[],"outputs":[{"name":"","type":"address","internalType":"address"}],"stateMutability":"view"},{"type":"function","name":"createAuctions","inputs":[{"name":"_auctionType","type":"uint8","internalType":"enum AuctionFactory.AuctionType"}],"outputs":[{"name":"auctionAddress","type":"address","internalType":"address"}],"stateMutability":"nonpayable"},{"type":"function","name":"emergencyFlag","inputs":[],"outputs":[{"name":"","type":"bool","internalType":"bool"}],"stateMutability":"view"},{"type":"function","name":"getOwnerAddress","inputs":[],"outputs":[{"name":"ownerAddress","type":"address","internalType":"address"}],"stateMutability":"view"},{"type":"function","name":"getOwnerPosition","inputs":[],"outputs":[{"name":"ownerPosition","type":"bytes32","internalType":"bytes32"}],"stateMutability":"pure"},{"type":"function","name":"openAuctionImpl","inputs":[],"outputs":[{"name":"","type":"address","internalType":"address"}],"stateMutability":"view"},{"type":"function","name":"setEmergencyFlag","inputs":[{"name":"_newFlag","type":"bool","internalType":"bool"}],"outputs":[],"stateMutability":"nonpayable"},{"type":"function","name":"setNewBlindAuctionImpl","inputs":[{"name":"_newBlindAuctionImpl","type":"address","internalType":"address"}],"outputs":[],"stateMutability":"nonpayable"},{"type":"function","name":"setNewOpenAuctionImpl","inputs":[{"name":"_newOpenAuctionImpl","type":"address","internalType":"address"}],"outputs":[],"stateMutability":"nonpayable"},{"type":"function","name":"setOwnership","inputs":[{"name":"_newOwner","type":"address","internalType":"address"}],"outputs":[],"stateMutability":"nonpayable"},{"type":"function","name":"userAuctions","inputs":[{"name":"","type":"address","internalType":"address"},{"name":"","type":"uint256","internalType":"uint256"}],"outputs":[{"name":"auctionType","type":"uint8","internalType":"enum AuctionFactory.AuctionType"},{"name":"auctionAddress","type":"address","internalType":"address"}],"stateMutability":"view"},{"type":"event","name":"AuctionCreated","inputs":[{"name":"_newAuctionAddr","type":"address","indexed":true,"internalType":"address"},{"name":"_creator","type":"address","indexed":true,"internalType":"address"},{"name":"_auctionType","type":"uint8","indexed":false,"internalType":"enum AuctionFactory.AuctionType"}],"anonymous":false}],"bytecode":{"object":"0x6080346100c657601f61182538819003918201601f19168301916001600160401b0383118484101761011c5780849260409485528339810103126100c657610052602061004b83610132565b9201610132565b600280546001600160a01b03199081166001600160a01b0394851617909155600380549091169183169190911790557f89b36b3c62a6d3d8fd267aacf951169736f972af4f069e0cf229787bcae325968054909116806100cb575b5033156100c6573390556040516116de90816101478239f35b600080fd5b33036100d757386100ad565b60405162461bcd60e51b815260206004820152601560248201527f6e6f74206f776e65722773206f7065726174696f6e00000000000000000000006044820152606490fd5b634e487b7160e01b600052604160045260246000fd5b51906001600160a01b03821682036100c65756fe608060408181526004918236101561001657600080fd5b600092833560e01c9182630c4f65bd1461080757508163165c5881146107a45781633b2807e81461077b5781634077503a1461075c5781635aa64f3c14610733578163797b9ad3146103d95781637cf0bf621461030b578163a7016023146102b2578163b4007cda1461028b578163b4fbe80a14610221578163c697444b146101b2578163c6c8201b146100df575063fc6af697146100b457600080fd5b346100db57816003193601126100db57602090516000805160206116898339815191528152f35b5080fd5b9050346101ae5760203660031901126101ae576100fa6108ac565b600080516020611689833981519152546001600160a01b03919082168061019d575b50169182156101425750506bffffffffffffffffffffffff60a01b600254161760025580f35b906020608492519162461bcd60e51b8352820152602f60248201527f546865206e657720426c696e6441756374696f6e496d706c206164647265737360448201526e02063616e6e6f74206265203078303608c1b6064820152fd5b6101a89033146108f1565b3861011c565b8280fd5b8390346100db5760203660031901126100db57358015158091036100db57600080516020611689833981519152546001600160a01b031680610210575b506003805460ff60a01b191660a09290921b60ff60a01b1691909117905580f35b61021b9033146108f1565b826101ef565b82843461028857816003193601126102885761023b6108ac565b6001600160a01b039081168252602082905282822080549192602435928310156102885750926102706102849260ff95610839565b505490519384938260081c1691168361088a565b0390f35b80fd5b5050346100db57816003193601126100db5760209060ff60035460a01c1690519015158152f35b8334610288576020366003190112610288576102cc6108ac565b60008051602061168983398151915280546001600160a01b03908116806102fa575b508216156101ae575580f35b6103059033146108f1565b846102ee565b9050346101ae5760203660031901126101ae576103266108ac565b600080516020611689833981519152546001600160a01b0391908216806103c8575b501691821561036e5750506bffffffffffffffffffffffff60a01b600354161760035580f35b906020608492519162461bcd60e51b8352820152602e60248201527f546865206e6577204f70656e41756374696f6e496d706c20616464726573732060448201526d063616e6e6f7420626520307830360941b6064820152fd5b6103d39033146108f1565b38610348565b919050346101ae57602092836003193601126102885782359060028210156102885760ff60035460a01c166106fd57816106215782516107c58082019082821067ffffffffffffffff83111761060e579082916109368339039082f08015610602576002546001600160a01b039182169116813b156101ae57845190631b2ce7f360e11b825286820152828160248183865af180156105e4579083916105ee575b5050803b156100db57835163a701602360e01b81523386820152828160248183865af180156105e4579083916105d0575b5050935b3382528186528382209484519285840184811067ffffffffffffffff8211176105bb5786528484528784019160018060a01b031696878352805490680100000000000000008210156105a8579061050b91600182018155610839565b949094610596575192600284101561058357505082549051610100600160a81b0360089190911b1660ff929092166001600160a81b031990911617179055815190610557908290610867565b827f2b75e87ec8b0882be05b7b3d13d20ef1e8584c4a4705511bb6fb5280ae55913f853393a351908152f35b634e487b7160e01b825260219052602490fd5b634e487b7160e01b8252818452602482fd5b634e487b7160e01b835260418552602483fd5b604184634e487b7160e01b6000525260246000fd5b6105d9906108c7565b6100db5781386104ab565b85513d85823e3d90fd5b6105f7906108c7565b6100db57813861047a565b508251903d90823e3d90fd5b634e487b7160e01b845260418752602484fd5b825161058e8082019082821067ffffffffffffffff83111761060e579082916110fb8339039082f09081156106f2576003546001600160a01b039283169216823b156100db57845190631b2ce7f360e11b825286820152818160248183875af180156106e8576106d9575b5090803b156100db57835163a701602360e01b81523386820152828160248183865af180156105e4579083916106c5575b5050936104af565b6106ce906108c7565b6100db5781386106bd565b6106e2906108c7565b3861068c565b85513d84823e3d90fd5b8351903d90823e3d90fd5b825162461bcd60e51b8152808501869052601060248201526f456d657267656e63792073746174757360801b6044820152606490fd5b5050346100db57816003193601126100db5760025490516001600160a01b039091168152602090f35b5050346100db57816003193601126100db576020906001549051908152f35b5050346100db57816003193601126100db5760035490516001600160a01b039091168152602090f35b9050346101ae5760203660031901126101ae57356001548110156101ae57600161028493527fb10e2d527612073b26eecdfd717e6a320cf44b4afac2b0732d9fcbe2b7fa0cf60154905191829160ff60018060a01b038260081c1691168361088a565b8490346100db57816003193601126100db57600080516020611689833981519152546001600160a01b03168152602090f35b80548210156108515760005260206000200190600090565b634e487b7160e01b600052603260045260246000fd5b9060028210156108745752565b634e487b7160e01b600052602160045260246000fd5b90929160209061089e836040810196610867565b6001600160a01b0316910152565b600435906001600160a01b03821682036108c257565b600080fd5b67ffffffffffffffff81116108db57604052565b634e487b7160e01b600052604160045260246000fd5b156108f857565b60405162461bcd60e51b81526020600482015260156024820152743737ba1037bbb732b913b99037b832b930ba34b7b760591b6044820152606490fdfe60808060405234610016576107a9908161001c8239f35b600080fdfe608060408181526004918236101561001657600080fd5b600092833560e01c9182630a891cee146105d7575081630c4f65bd146105a15781631c8ac1cb146103c65781632a24f46c146103605781633659cfe6146102ff578163957bb1e014610269578163a70160231461020b578163aaf10f42146101d5578163f3251e1e146100be575063fc6af6971461009357600080fd5b346100ba57816003193601126100ba57602090516000805160206107348339815191528152f35b5080fd5b9050346101d15760603660031901126101d1576001600160a01b0390604435828116908190036101cd576000805160206107348339815191529383855416806101bc575b50600080516020610754833981519152549281519160208301936379928f0f60e11b855282356024850152602435604485015260648401526064835260a083019183831067ffffffffffffffff8411176101a9575052516101789286928392915af461016c6106b1565b8161019f575b506106f1565b8154168061018e575b5033156100ba5733905580f35b610199903314610635565b38610181565b9050511538610172565b634e487b7160e01b895260419052602488fd5b6101c7903314610635565b38610102565b8480fd5b8280fd5b5050346100ba57816003193601126100ba576000805160206107548339815191525490516001600160a01b039091168152602090f35b8390346100ba5760203660031901126100ba57356001600160a01b03808216808303610265576000805160206107348339815191529182541680610254575b50156101d1575580f35b61025f903314610635565b8461024a565b8380fd5b838360203660031901126100ba57600080516020610754833981519152549080519360208501916304abdd8f60e51b83528135602487015260248652606086019186831067ffffffffffffffff8411176102ec57505283516102df9284928392915af46102d46106b1565b816102e257506106f1565b80f35b9050511583610172565b634e487b7160e01b865260419052602485fd5b8390346100ba5760203660031901126100ba57356001600160a01b0380821682036101d15760008051602061073483398151915254168061034f575b506000805160206107548339815191525580f35b61035a903314610635565b8261033b565b8383346100ba57816003193601126100ba5760008051602061075483398151915254908051936020850191630a893d1b60e21b83528186528086019186831067ffffffffffffffff8411176102ec57505283516102df9284928392915af46102d46106b1565b8383346100ba5760603660031901126100ba5767ffffffffffffffff8335818111610265576103f890369086016105ff565b9160243581811161059d5761041090369088016105ff565b92909660443583811161059957610429913691016105ff565b91906000805160206107548339815191525496519460209283870197631c8ac1cb60e01b89526060602489015280608489015260018060fb1b038111610595579060c49160059c97969594939c1b809160a48a013787018b60a4820160808a84030160448b015252019499895b818110610569575050889950602398979819868603016064870152828552818501828460051b8701019582958a935b8685106104f6575050896102df81808e8d8d6104ea818f03601f198101835282610679565b51915af46102d46106b1565b9091929394959697601f19808583030186528935601e1984360301811215610565578301888135910185821161056157813603811361056157838f93601f848d9681889796889760019b5287870137858286010152011601019a0195019501939695949291906104c5565b8e80fd5b8d80fd5b9091929394958b358015158091036105915781529a84019a8401959493929190600101610496565b8b80fd5b8a80fd5b8780fd5b8580fd5b5050346100ba57816003193601126100ba576000805160206107348339815191525490516001600160a01b039091168152602090f35b8490346100ba57816003193601126100ba578060008051602061075483398151915260209252f35b9181601f840112156106305782359167ffffffffffffffff8311610630576020808501948460051b01011161063057565b600080fd5b1561063c57565b60405162461bcd60e51b81526020600482015260156024820152743737ba1037bbb732b913b99037b832b930ba34b7b760591b6044820152606490fd5b90601f8019910116810190811067ffffffffffffffff82111761069b57604052565b634e487b7160e01b600052604160045260246000fd5b3d156106ec573d9067ffffffffffffffff821161069b57604051916106e0601f8201601f191660200184610679565b82523d6000602084013e565b606090565b156106f857565b60405162461bcd60e51b815260206004820152601360248201527219195b1959d85d1958d85b1b0819985a5b1959606a1b6044820152606490fdfeb57f0cf330bf7f95b43f3db6cc247b2fad54dff50060f4879a89bfae6af8bec9d8783a201dbe4630138646b6a4841a31f1af98dfb8abbb44d025578c324d7beda2646970667358221220fdb8ecd570dfc1606d802f47b7dc172ca390610b93bdeeebd0f516af79534d5864736f6c634300081200336080806040523461001657610572908161001c8239f35b600080fdfe608060408181526004918236101561001657600080fd5b600092833560e01c9182630a891cee146103d1575081630c4f65bd1461039b578382631998aeef1461035c5782632a24f46c14610318575081633659cfe6146102b7578382633ccfd60b1461026457508163a701602314610206578163aaf10f42146101d0578163b792e6ec146100c2575063fc6af6971461009757600080fd5b346100be57816003193601126100be57602090516000805160206104fd8339815191528152f35b5080fd5b9050346101cc57816003193601126101cc576001600160a01b0390602435828116908190036101c8576000805160206104fd8339815191529383855416806101b7575b5060008051602061051d83398151915254928151916020830193632de4b9bb60e21b855282356024850152604484015260448352608083019183831067ffffffffffffffff8411176101a4575052516101739286928392915af461016761046f565b8161019a575b506104ba565b81541680610189575b5033156100be5733905580f35b6101949033146103f9565b3861017c565b905051153861016d565b634e487b7160e01b895260419052602488fd5b6101c29033146103f9565b38610105565b8480fd5b8280fd5b5050346100be57816003193601126100be5760008051602061051d8339815191525490516001600160a01b039091168152602090f35b8390346100be5760203660031901126100be57356001600160a01b03808216808303610260576000805160206104fd833981519152918254168061024f575b50156101cc575580f35b61025a9033146103f9565b84610245565b8380fd5b9150346100be57816003193601126100be576102b492829160008051602061051d8339815191525491516020810191633ccfd60b60e01b835281526102a88161043d565b51915af461016761046f565b80f35b8390346100be5760203660031901126100be57356001600160a01b0380821682036101cc576000805160206104fd833981519152541680610307575b5060008051602061051d8339815191525580f35b6103129033146103f9565b826102f3565b9150346100be57816003193601126100be576102b492829160008051602061051d8339815191525491516020810191630a893d1b60e21b835281526102a88161043d565b8092506003193601126100be576102b492829160008051602061051d8339815191525491516020810191631998aeef60e01b835281526102a88161043d565b5050346100be57816003193601126100be576000805160206104fd8339815191525490516001600160a01b039091168152602090f35b8490346100be57816003193601126100be578060008051602061051d83398151915260209252f35b1561040057565b60405162461bcd60e51b81526020600482015260156024820152743737ba1037bbb732b913b99037b832b930ba34b7b760591b6044820152606490fd5b6040810190811067ffffffffffffffff82111761045957604052565b634e487b7160e01b600052604160045260246000fd5b3d156104b55767ffffffffffffffff903d8281116104595760405192601f8201601f19908116603f01168401908111848210176104595760405282523d6000602084013e565b606090565b156104c157565b60405162461bcd60e51b815260206004820152601360248201527219195b1959d85d1958d85b1b0819985a5b1959606a1b6044820152606490fdfe3ab6f526091d83c7f608550777c84774384a084c2342172c3693bc68bb521cfa74dbd92bcb8b748651fcc6c5c07d05f1b315db21298fc350f01fa00aad896fa2a2646970667358221220c26d4c030e75261e136a00357881de319a578e4dcd158fe8cc8dcdd2c9cf6c9764736f6c6343000812003389b36b3c62a6d3d8fd267aacf951169736f972af4f069e0cf229787bcae32596a264697066735822122050777860406534bcfe07a985755d4058296e2e9abf45d91a06673daeb798f32164736f6c63430008120033","linkReferences":{}},"methodIdentifiers":{"allAuctions(uint256)":"165c5881","allAuctionsLength()":"4077503a","blindAuctionImpl()":"5aa64f3c","createAuctions(uint8)":"797b9ad3","emergencyFlag()":"b4007cda","getOwnerAddress()":"0c4f65bd","getOwnerPosition()":"fc6af697","openAuctionImpl()":"3b2807e8","setEmergencyFlag(bool)":"c697444b","setNewBlindAuctionImpl(address)":"c6c8201b","setNewOpenAuctionImpl(address)":"7cf0bf62","setOwnership(address)":"a7016023","userAuctions(address,uint256)":"b4fbe80a"},"id":64}