{"abi":[{"type":"function","name":"beneficiary","inputs":[],"outputs":[{"name":"","type":"address","internalType":"address payable"}],"stateMutability":"view"},{"type":"function","name":"bidEndTime","inputs":[],"outputs":[{"name":"","type":"uint256","internalType":"uint256"}],"stateMutability":"view"},{"type":"function","name":"bids","inputs":[{"name":"","type":"address","internalType":"address"},{"name":"","type":"uint256","internalType":"uint256"}],"outputs":[{"name":"blindedBid","type":"bytes32","internalType":"bytes32"},{"name":"deposit","type":"uint256","internalType":"uint256"}],"stateMutability":"view"},{"type":"function","name":"highestBid","inputs":[],"outputs":[{"name":"","type":"uint256","internalType":"uint256"}],"stateMutability":"view"},{"type":"function","name":"highestBidder","inputs":[],"outputs":[{"name":"","type":"address","internalType":"address"}],"stateMutability":"view"},{"type":"function","name":"pendingReturns","inputs":[{"name":"","type":"address","internalType":"address"}],"outputs":[{"name":"","type":"uint256","internalType":"uint256"}],"stateMutability":"view"},{"type":"function","name":"revealEndTime","inputs":[],"outputs":[{"name":"","type":"uint256","internalType":"uint256"}],"stateMutability":"view"}],"bytecode":{"object":"0x60808060405234610023576007805460ff60a01b1916905561020190816100298239f35b600080fdfe60806040818152600436101561001457600080fd5b600091823560e01c90816301495c1c146101535750806326b387bb1461011c57806338af3eed146100f45780634ba9a927146100d657806391f90157146100ae578063d49dc1d8146100905763d57bde791461006f57600080fd5b3461008c578160031936011261008c576020906002549051908152f35b5080fd5b503461008c578160031936011261008c576020906006549051908152f35b503461008c578160031936011261008c5760015490516001600160a01b039091168152602090f35b503461008c578160031936011261008c576020906005549051908152f35b503461008c578160031936011261008c5760075490516001600160a01b039091168152602090f35b503461008c57602036600319011261008c5760209181906001600160a01b036101436101b0565b1681526003845220549051908152f35b905082346101ad57826003193601126101ad5761016e6101b0565b6001600160a01b031681526020819052828120805460243592919083101561008c57906020918152209060011b01600181549101549082526020820152f35b80fd5b600435906001600160a01b03821682036101c657565b600080fdfea2646970667358221220c56c79f0a86fc40545752db8e88c625c9ac0a5aa338fb7bfb27b783f2f6428b464736f6c63430008120033","linkReferences":{}},"methodIdentifiers":{"beneficiary()":"38af3eed","bidEndTime()":"4ba9a927","bids(address,uint256)":"01495c1c","highestBid()":"d57bde79","highestBidder()":"91f90157","pendingReturns(address)":"26b387bb","revealEndTime()":"d49dc1d8"},"id":47}