{"abi":[{"type":"constructor","inputs":[{"name":"biddingTime","type":"uint256","internalType":"uint256"},{"name":"beneficiaryAddress","type":"address","internalType":"address payable"}],"stateMutability":"nonpayable"},{"type":"function","name":"auctionEnd","inputs":[],"outputs":[],"stateMutability":"nonpayable"},{"type":"function","name":"auctionEndTime","inputs":[],"outputs":[{"name":"","type":"uint256","internalType":"uint256"}],"stateMutability":"view"},{"type":"function","name":"beneficiary","inputs":[],"outputs":[{"name":"","type":"address","internalType":"address payable"}],"stateMutability":"view"},{"type":"function","name":"bid","inputs":[{"name":"blindedBid","type":"bytes32","internalType":"bytes32"}],"outputs":[],"stateMutability":"payable"},{"type":"function","name":"bids","inputs":[{"name":"","type":"address","internalType":"address"},{"name":"","type":"uint256","internalType":"uint256"}],"outputs":[{"name":"blindedBid","type":"bytes32","internalType":"bytes32"},{"name":"deposit","type":"uint256","internalType":"uint256"}],"stateMutability":"view"},{"type":"function","name":"highestBid","inputs":[],"outputs":[{"name":"","type":"uint256","internalType":"uint256"}],"stateMutability":"view"},{"type":"function","name":"highestBidder","inputs":[],"outputs":[{"name":"","type":"address","internalType":"address"}],"stateMutability":"view"},{"type":"error","name":"AuctionEndAlreadyCalled","inputs":[]},{"type":"error","name":"BidNotHighEnough","inputs":[{"name":"highestBid","type":"uint256","internalType":"uint256"}]},{"type":"error","name":"OnlyCanBeCallAfterThisTime","inputs":[]},{"type":"error","name":"OnlyCanBeCallBeforeThisTime","inputs":[]}],"bytecode":{"object":"0x60803461009857601f6103bb38819003918201601f19168301916001600160401b0383118484101761009d5780849260409485528339810103126100985780516020909101516001600160a01b038116908190036100985760018060a01b0319600154161760015542018042116100825760025560405161030790816100b48239f35b634e487b7160e01b600052601160045260246000fd5b600080fd5b634e487b7160e01b600052604160045260246000fdfe6040608081526004908136101561001557600080fd5b600091823560e01c806301495c1c146102435780632a24f46c146101ba57806338af3eed146101915780634b449cba1461017257806391f9015714610149578063957bb1e01461008e5763d57bde791461006e57600080fd5b3461008a578260031936011261008a5760209250549051908152f35b8280fd5b50919060203660031901126101455760025442101561013657338252816020528082208151918083019083821067ffffffffffffffff83111761012357528335825260208201903482528054906801000000000000000082101561012357906100fc9160018201815561029f565b92909261011157906001915183555191015580f35b634e487b7160e01b8452838552602484fd5b634e487b7160e01b855260418652602485fd5b516304cecf2f60e41b81529050fd5b5080fd5b50503461014557816003193601126101455760035490516001600160a01b039091168152602090f35b5050346101455781600319360112610145576020906002549051908152f35b50503461014557816003193601126101455760015490516001600160a01b039091168152602090f35b503461008a578260031936011261008a576002544211156102355760055460ff81166102265760ff191660019081176005555490548391829182918291906001600160a01b031682821561021d575bf115610213575080f35b51903d90823e3d90fd5b506108fc610209565b509051630c39fb9f60e31b8152fd5b905163053b28ef60e21b8152fd5b503461008a578160031936011261008a57356001600160a01b0381169081900361008a5760243590835282602052818320805482101561029b57906102879161029f565b506001815491015482519182526020820152f35b8380fd5b80548210156102bb5760005260206000209060011b0190600090565b634e487b7160e01b600052603260045260246000fdfea2646970667358221220e6b8856ff6b53b680fc52185ee0fa6a6863ff5b1be966518b715d149483f897a64736f6c63430008120033","linkReferences":{}},"methodIdentifiers":{"auctionEnd()":"2a24f46c","auctionEndTime()":"4b449cba","beneficiary()":"38af3eed","bid(bytes32)":"957bb1e0","bids(address,uint256)":"01495c1c","highestBid()":"d57bde79","highestBidder()":"91f90157"},"id":26}