{"abi":[{"type":"function","name":"auctionEndTime","inputs":[],"outputs":[{"name":"","type":"uint256","internalType":"uint256"}],"stateMutability":"view"},{"type":"function","name":"beneficiary","inputs":[],"outputs":[{"name":"","type":"address","internalType":"address payable"}],"stateMutability":"view"},{"type":"function","name":"highestBid","inputs":[],"outputs":[{"name":"","type":"uint256","internalType":"uint256"}],"stateMutability":"view"},{"type":"function","name":"highestBidder","inputs":[],"outputs":[{"name":"","type":"address","internalType":"address"}],"stateMutability":"view"}],"bytecode":{"object":"0x60808060405234610023576000805460ff60a01b1916905561010590816100298239f35b600080fdfe6080806040526004361015601257600080fd5b600090813560e01c90816338af3eed1460a9575080634b449cba14608d57806391f901571460665763d57bde7914604857600080fd5b34606357806003193601126063576020600354604051908152f35b80fd5b5034606357806003193601126063576002546040516001600160a01b039091168152602090f35b5034606357806003193601126063576020600154604051908152f35b90503460cb578160031936011260cb5790546001600160a01b03168152602090f35b5080fdfea2646970667358221220e1897a54b68bcb610776c8638f80cedd40975dabc5347b12def49d71decee8ed64736f6c63430008120033","linkReferences":{}},"methodIdentifiers":{"auctionEndTime()":"4b449cba","beneficiary()":"38af3eed","highestBid()":"d57bde79","highestBidder()":"91f90157"},"id":93}