{"abi":[{"type":"constructor","inputs":[{"name":"biddingTime","type":"uint256","internalType":"uint256"},{"name":"revealTime","type":"uint256","internalType":"uint256"},{"name":"beneficiaryAddress","type":"address","internalType":"address payable"}],"stateMutability":"nonpayable"},{"type":"function","name":"auctionEnd","inputs":[],"outputs":[],"stateMutability":"nonpayable"},{"type":"function","name":"beneficiary","inputs":[],"outputs":[{"name":"","type":"address","internalType":"address payable"}],"stateMutability":"view"},{"type":"function","name":"bid","inputs":[{"name":"blindedBid","type":"bytes32","internalType":"bytes32"}],"outputs":[],"stateMutability":"payable"},{"type":"function","name":"bidEndTime","inputs":[],"outputs":[{"name":"","type":"uint256","internalType":"uint256"}],"stateMutability":"view"},{"type":"function","name":"bids","inputs":[{"name":"","type":"address","internalType":"address"},{"name":"","type":"uint256","internalType":"uint256"}],"outputs":[{"name":"blindedBid","type":"bytes32","internalType":"bytes32"},{"name":"deposit","type":"uint256","internalType":"uint256"}],"stateMutability":"view"},{"type":"function","name":"highestBid","inputs":[],"outputs":[{"name":"","type":"uint256","internalType":"uint256"}],"stateMutability":"view"},{"type":"function","name":"highestBidder","inputs":[],"outputs":[{"name":"","type":"address","internalType":"address"}],"stateMutability":"view"},{"type":"function","name":"pendingReturns","inputs":[{"name":"","type":"address","internalType":"address"}],"outputs":[{"name":"","type":"uint256","internalType":"uint256"}],"stateMutability":"view"},{"type":"function","name":"reveal","inputs":[{"name":"values","type":"uint256[]","internalType":"uint256[]"},{"name":"fakes","type":"bool[]","internalType":"bool[]"},{"name":"secrets","type":"string[]","internalType":"string[]"}],"outputs":[],"stateMutability":"nonpayable"},{"type":"function","name":"revealEndTime","inputs":[],"outputs":[{"name":"","type":"uint256","internalType":"uint256"}],"stateMutability":"view"},{"type":"function","name":"withdraw","inputs":[],"outputs":[],"stateMutability":"nonpayable"},{"type":"event","name":"AuctionEnded","inputs":[],"anonymous":false},{"type":"event","name":"SomeOneBid","inputs":[{"name":"bidder","type":"address","indexed":false,"internalType":"address"}],"anonymous":false},{"type":"event","name":"SomeOneReveal","inputs":[{"name":"bidder","type":"address","indexed":false,"internalType":"address"}],"anonymous":false},{"type":"error","name":"AuctionEndAlreadyCalled","inputs":[]},{"type":"error","name":"BidNotHighEnough","inputs":[{"name":"highestBid","type":"uint256","internalType":"uint256"}]},{"type":"error","name":"OnlyCanBeCallAfterThisTime","inputs":[]},{"type":"error","name":"OnlyCanBeCallBeforeThisTime","inputs":[]}],"bytecode":{"object":"0x60803461009757601f610b0238819003918201601f19168301916001600160401b0383118484101761009c57808492606094604052833981010312610097578051906040602082015191015160018060a01b03811680910361009757600780546001600160a01b03191690911790556100859161007c90426100b2565b806005556100b2565b600655604051610a2c90816100d68239f35b600080fd5b634e487b7160e01b600052604160045260246000fd5b919082018092116100bf57565b634e487b7160e01b600052601160045260246000fdfe6080604052600436101561001257600080fd5b60003560e01c806301495c1c146108a85780631c8ac1cb1461033b57806326b387bb146103015780632a24f46c1461027257806338af3eed146102495780633ccfd60b146101ec5780634ba9a927146101ce57806391f90157146101a5578063957bb1e0146100d6578063d49dc1d8146100b85763d57bde791461009557600080fd5b346100b35760003660031901126100b3576020600254604051908152f35b600080fd5b346100b35760003660031901126100b3576020600654604051908152f35b60203660031901126100b35733600052600060205260406000206040516040810181811067ffffffffffffffff82111761018f576040526004358152602081019134835280546801000000000000000081101561018f5761013c91600182018155610919565b92909261017957600191518355519101557fbbd6f0ce47b0527d5539dc0b304e40c2ba35650d20b5bebed3441f75120753186020604051338152a1005b634e487b7160e01b600052600060045260246000fd5b634e487b7160e01b600052604160045260246000fd5b346100b35760003660031901126100b3576001546040516001600160a01b039091168152602090f35b346100b35760003660031901126100b3576020600554604051908152f35b346100b35760003660031901126100b357336000526003602052604060002080548015801561021757005b6000809392819392828094558290610240575b3390f11561023457005b6040513d6000823e3d90fd5b506108fc61022a565b346100b35760003660031901126100b3576007546040516001600160a01b039091168152602090f35b346100b35760003660031901126100b35760045460ff81166102ef5760ff1916600117600455600754600254600091829182918291906001600160a01b03168282156102e6575bf115610234577fa0e92984607195c326795751263414ee1074526323552e694c90ef2b99ae3f29600080a1005b506108fc6102b9565b604051630c39fb9f60e31b8152600490fd5b346100b35760203660031901126100b3576001600160a01b03610322610903565b1660005260036020526020604060002054604051908152f35b346100b35760603660031901126100b35760043567ffffffffffffffff81116100b35761036c90369060040161094b565b60243567ffffffffffffffff81116100b35761038c90369060040161094b565b919060443567ffffffffffffffff81116100b3576103ae90369060040161094b565b939092604051956060870187811067ffffffffffffffff82111761018f576040526103d88261099e565b916103e6604051938461097c565b808352602083019060051b8201913683116100b357905b8282106108985750505085526104128161099e565b91610420604051938461097c565b818352602083019160051b8101903682116100b357915b81831061087f57505050602084015261044f8261099e565b9161045d604051938461097c565b8083526020830191368260051b8201116100b35780925b8260051b820184106107fa5760408087018690523360009081526020818152828220600254600154945163c173203960e01b81526080600482015282546084820181905292855292842092946001600160a01b031693859360a48501938d925b8181106107d6575050508383036003190160248501528051606080855281519085018190526080850192916020019060005b8181106107bd5750505060208101519184810360208601526020808451928381520193019060005b8181106107a25750505060400151926040818303910152825180825260208201916020808360051b8301019501926000915b83831061076d5787606081808a8d8b60448401526064830152038173__$7544000dcf7568c0922a4108f0439fc052$__5af4908115610234576000809160009361071c575b506040516040810181811067ffffffffffffffff82111761018f576000918291604052602081527f3d3d3d3d3d3d3d6c617374486967686573744269643d3d3d3d3d3d3d3d3d3d3d60208201526040516106308161061c6020820194632d839cb360e21b86526040602484015260648301906109b6565b87604483015203601f19810183528261097c565b51906a636f6e736f6c652e6c6f675afa5060025560018060a01b03166bffffffffffffffffffffffff60a01b6001541617600155336000526000602052604060002080549060008155816106cc575b50506000808080938181156106c3575b3390f115610234577f4a721811a3ae1bb3c26775b28c4c161da153657d9df31e5b0b4ff66c8181752c6020604051338152a1005b506108fc61068f565b6001600160ff1b03821682036107065760005260206000209060011b8101905b8181101561067f57600080825560018201556002016106ec565b634e487b7160e01b600052601160045260246000fd5b925050506060813d606011610765575b816107396060938361097c565b810103126100b35780516020820151916001600160a01b03831683036100b357604001519190836105a5565b3d915061072c565b919397965091939460208061078e600193601f198682030187528b516109b6565b990193019301909288969795949293610560565b8251151585528997506020948501949092019160010161052e565b8251855289975060209485019490920191600101610506565b825486526001808401546020880152899750604090960195600290930192016104d4565b833567ffffffffffffffff81116100b35736601f8285010112156100b35767ffffffffffffffff818401351161018f576040519161084584830135601f01601f19166020018461097c565b8382018035808552369101602001116100b35760209260008484819588013582828a01018386013787013583010152815201930192610474565b823580151581036100b357815260209283019201610437565b81358152602091820191016103fd565b346100b35760403660031901126100b3576108c1610903565b6024359060018060a01b03166000526000602052604060002080548210156100b3576040916108ef91610919565b506001815491015482519182526020820152f35b600435906001600160a01b03821682036100b357565b80548210156109355760005260206000209060011b0190600090565b634e487b7160e01b600052603260045260246000fd5b9181601f840112156100b35782359167ffffffffffffffff83116100b3576020808501948460051b0101116100b357565b90601f8019910116810190811067ffffffffffffffff82111761018f57604052565b67ffffffffffffffff811161018f5760051b60200190565b919082519283825260005b8481106109e2575050826000602080949584010152601f8019910116010190565b6020818301810151848301820152016109c156fea2646970667358221220a1c2676e99dbc45af8e3c141b3739f68f777cf9aa6afc011e4b71ca82790eb7c64736f6c63430008120033","linkReferences":{"src/contracts/pro/pro1/BlindAuctionLib.sol":{"BlindAuctionLib":[{"start":1619,"length":20}]}}},"methodIdentifiers":{"auctionEnd()":"2a24f46c","beneficiary()":"38af3eed","bid(bytes32)":"957bb1e0","bidEndTime()":"4ba9a927","bids(address,uint256)":"01495c1c","highestBid()":"d57bde79","highestBidder()":"91f90157","pendingReturns(address)":"26b387bb","reveal(uint256[],bool[],string[])":"1c8ac1cb","revealEndTime()":"d49dc1d8","withdraw()":"3ccfd60b"},"id":40}