{"abi":[{"type":"function","name":"auctionEnd","inputs":[],"outputs":[],"stateMutability":"nonpayable"},{"type":"function","name":"auctionEndTime","inputs":[],"outputs":[{"name":"","type":"uint256","internalType":"uint256"}],"stateMutability":"view"},{"type":"function","name":"auctioneers","inputs":[{"name":"","type":"uint256","internalType":"uint256"}],"outputs":[{"name":"","type":"address","internalType":"address"}],"stateMutability":"view"},{"type":"function","name":"beneficiary","inputs":[],"outputs":[{"name":"","type":"address","internalType":"address payable"}],"stateMutability":"view"},{"type":"function","name":"bid","inputs":[{"name":"blindedBid","type":"bytes32","internalType":"bytes32"}],"outputs":[],"stateMutability":"payable"},{"type":"function","name":"bids","inputs":[{"name":"","type":"address","internalType":"address"},{"name":"","type":"uint256","internalType":"uint256"}],"outputs":[{"name":"blindedBid","type":"bytes32","internalType":"bytes32"},{"name":"deposit","type":"uint256","internalType":"uint256"}],"stateMutability":"view"},{"type":"function","name":"containsElement","inputs":[{"name":"auctioneers","type":"address[]","internalType":"address[]"},{"name":"element","type":"address","internalType":"address"}],"outputs":[{"name":"","type":"bool","internalType":"bool"}],"stateMutability":"pure"},{"type":"function","name":"highestBid","inputs":[],"outputs":[{"name":"","type":"uint256","internalType":"uint256"}],"stateMutability":"view"},{"type":"function","name":"highestBidder","inputs":[],"outputs":[{"name":"","type":"address","internalType":"address"}],"stateMutability":"view"},{"type":"function","name":"init","inputs":[{"name":"biddingTime","type":"uint256","internalType":"uint256"},{"name":"revealTime","type":"uint256","internalType":"uint256"},{"name":"beneficiaryAddress","type":"address","internalType":"address payable"},{"name":"_pointAddress","type":"address","internalType":"address"},{"name":"_myApeAddress","type":"address","internalType":"address"},{"name":"_tokenId","type":"uint256","internalType":"uint256"}],"outputs":[],"stateMutability":"nonpayable"},{"type":"function","name":"myApeAddress","inputs":[],"outputs":[{"name":"","type":"address","internalType":"address"}],"stateMutability":"view"},{"type":"function","name":"pendingReturns","inputs":[{"name":"","type":"address","internalType":"address"}],"outputs":[{"name":"","type":"uint256","internalType":"uint256"}],"stateMutability":"view"},{"type":"function","name":"pointAddress","inputs":[],"outputs":[{"name":"","type":"address","internalType":"address"}],"stateMutability":"view"},{"type":"function","name":"reveal","inputs":[{"name":"values","type":"uint256[]","internalType":"uint256[]"},{"name":"fakes","type":"bool[]","internalType":"bool[]"},{"name":"secrets","type":"string[]","internalType":"string[]"}],"outputs":[],"stateMutability":"nonpayable"},{"type":"function","name":"revealEndTime","inputs":[],"outputs":[{"name":"","type":"uint256","internalType":"uint256"}],"stateMutability":"view"},{"type":"function","name":"tokenId","inputs":[],"outputs":[{"name":"","type":"uint256","internalType":"uint256"}],"stateMutability":"view"},{"type":"function","name":"withdraw","inputs":[],"outputs":[],"stateMutability":"nonpayable"},{"type":"event","name":"AuctionEnded","inputs":[],"anonymous":false},{"type":"event","name":"RevealDetail","inputs":[{"name":"values","type":"uint256[]","indexed":false,"internalType":"uint256[]"},{"name":"fakes","type":"bool[]","indexed":false,"internalType":"bool[]"},{"name":"secrets","type":"string[]","indexed":false,"internalType":"string[]"}],"anonymous":false},{"type":"event","name":"SomeoneBid","inputs":[{"name":"bidder","type":"address","indexed":false,"internalType":"address"}],"anonymous":false},{"type":"event","name":"SomeoneReveal","inputs":[{"name":"bidder","type":"address","indexed":false,"internalType":"address"},{"name":"values","type":"uint256[]","indexed":false,"internalType":"uint256[]"},{"name":"fakes","type":"bool[]","indexed":false,"internalType":"bool[]"},{"name":"secrets","type":"string[]","indexed":false,"internalType":"string[]"}],"anonymous":false},{"type":"error","name":"AuctionEndAlreadyCalled","inputs":[]},{"type":"error","name":"BidNotHighEnough","inputs":[{"name":"highestBid","type":"uint256","internalType":"uint256"}]},{"type":"error","name":"OnlyCanBeCallAfterThisTime","inputs":[{"name":"time","type":"uint256","internalType":"uint256"}]},{"type":"error","name":"OnlyCanBeCallBeforeThisTime","inputs":[{"name":"time","type":"uint256","internalType":"uint256"}]}],"bytecode":{"object":"0x60808060405234610023576000805460ff60a01b191690556113aa90816100298239f35b600080fdfe6080604052600436101561001257600080fd5b60003560e01c806301495c1c1461102d57806317d70f7c1461100f5780631c8ac1cb1461091c57806326b387bb146108e25780632a24f46c1461064d57806338af3eed146106245780633a0c4f80146105fb5780633ccfd60b1461059e5780634b449cba1461058057806355447a38146105575780636a121eb91461046b57806391f9015714610442578063957bb1e014610213578063c3b7b136146101d1578063d49dc1d8146101b3578063d57bde79146101955763dedcf1db146100d757600080fd5b34610171576040366003190112610171576004356001600160401b03811161017157366023820112156101715780600401359061011382611189565b906101216040519283611168565b82825260209260248484019160051b8301019136831161017157602401905b82821061017657505060243590506001600160a01b038116810361017157610167916111af565b6040519015158152f35b600080fd5b81356001600160a01b0381168103610171578152908401908401610140565b34610171576000366003190112610171576020600554604051908152f35b34610171576000366003190112610171576020600b54604051908152f35b3461017157602036600319011261017157600435600954811015610171576101fa602091611103565b905460405160039290921b1c6001600160a01b03168152f35b60208060031936011261017157600435906003548042101561042a57506040516000808383016327b7cf8560e01b815260249386858201528481526102578161114d565b51906a636f6e736f6c652e6c6f675afa5033600052600a825260406000209060405193604085018581106001600160401b0382111761041557604052845282840193348552825494680100000000000000009586811015610400576102c39060019586820181556110a1565b9290926103eb5790849151835551910155604051938484600954968781520160096000527f6e1540171b6c0c960b71a7020d9f60077f6af931a8bbf590da0223dacf75c7af60005b86888a83106103d05750505050906103288161032f930382611168565b33906111af565b15610360575b7fcb3b30057a138be4cd23038729c66dbececeba7913b280de1a33117b008c5f6b84604051338152a1005b8410156103bc575082610398917fcb3b30057a138be4cd23038729c66dbececeba7913b280de1a33117b008c5f6b9401600955611103565b81546001600160a01b0360039290921b91821b19163390911b179055828080610335565b634e487b7160e01b60009081526041600452fd5b83546001600160a01b0316855290930192918201910161030b565b83634e487b7160e01b60005260006004526000fd5b83634e487b7160e01b60005260416004526000fd5b82634e487b7160e01b60005260416004526000fd5b6024906040519063c66dbc9360e01b82526004820152fd5b34610171576000366003190112610171576004546040516001600160a01b039091168152602090f35b346101715760c0366003190112610171576001600160a01b0360443581811690819003610171576064359082821680920361017157608435928316809303610171576000549060ff8260a01c16610523576104d86104cb60043542611203565b8060035560243590611203565b600b55600160a01b916affffffffffffffffffffff60a81b1617176000556bffffffffffffffffffffffff60a01b90816006541617600655600754161760075560a435600855600080f35b60405162461bcd60e51b815260206004820152600c60248201526b105b1c9958591e481a5b9a5d60a21b6044820152606490fd5b34610171576000366003190112610171576007546040516001600160a01b039091168152602090f35b34610171576000366003190112610171576020600354604051908152f35b346101715760003660031901126101715733600052600160205260406000208054801580156105c957005b60008093928193928280945582906105f2575b3390f1156105e657005b6040513d6000823e3d90fd5b506108fc6105dc565b34610171576000366003190112610171576006546040516001600160a01b039091168152602090f35b34610171576000366003190112610171576000546040516001600160a01b039091168152602090f35b3461017157600036600319011261017157600b54804211156108ca5760025460ff81166108b85760ff19166001908117600255600554604051906106908261114d565b602282527f4162737472616374426173696341756374696f6e2061756374696f6e456e643a602083015261257360f01b60408301526040519260008060208601632d839cb360e21b81526106f06024966040888a01526064890190611334565b9661070b81604499888b83015203601f198101835282611168565b51906a636f6e736f6c652e6c6f675afa50600080546001600160a01b039382918291829187165af13d156108b1573d6107438161121d565b906107516040519283611168565b81523d6000602083013e5b816108a7575b501561086e576000815b6107f1575b5050806007541690600454169060085492813b15610171576000606492819560405197889687956323b872dd60e01b87523360048801528601528401525af180156105e6576107e2575b7fa0e92984607195c326795751263414ee1074526323552e694c90ef2b99ae3f29600080a1005b6107eb9061113a565b806107bb565b6009548110156108695782600654169061080a81611103565b9054833b15610171578760009283889660405197889586946340c10f1960e01b865260031b1c166004840152600a8b8401525af19182156105e6576108549261085a575b506111a0565b8161076c565b6108639061113a565b8661084e565b610771565b60405162461bcd60e51b815260206004820152601381850152721d1c985b9cd9995c881155120819985a5b1959606a1b81860152606490fd5b9050511585610762565b606061075c565b604051630c39fb9f60e31b8152600490fd5b6024906040519063ff0ba4c560e01b82526004820152fd5b34610171576020366003190112610171576001600160a01b0361090361108b565b1660005260016020526020604060002054604051908152f35b34610171576060366003190112610171576004356001600160401b0381116101715761094c9036906004016110d3565b906024356001600160401b0381116101715761096c9036906004016110d3565b92906044356001600160401b0381116101715761098d9036906004016110d3565b9091600354804211156108ca5750600b548042101561042a5750604051606081018181106001600160401b03821117610e90576040526109cc85611189565b6109d96040519182611168565b85815260208101368760051b8901116101715787905b8760051b89018210610fff5750508152610a0887611189565b610a156040519182611168565b87815260208101368960051b8501116101715783905b8960051b85018210610fe75750506020820152610a4783611189565b610a546040519182611168565b83815260208101368560051b8701116101715785905b8560051b87018210610f8457505060408201527fc983068935d78eacee634d7b064b5ea7a1bd0d838ff1eef9ebca8f4fef7911a16040516060815280610ad8610ac9610aba606084018b8d611238565b83810360208501528c8861125c565b8281036040840152878961129b565b0390a133600052600a60205260406000206005549160018060a01b03600454169160405193849263c173203960e01b84526080600485015260848401835480915260a485019360005260206000209060005b818110610f60575050508383036003190160248501528051606080855281519085018190526080850192916020019060005b818110610f475750505060208101519184810360208601526020808451928381520193019060005b818110610f2c5750505060400151926040818303910152825180825260208201916020808360051b8301019501926000915b838310610ef757505050505090606093839260448401526064830152038173__$1edef7789f65cf37dfc65a5ff247be8882$__5af49081156105e65760008091600093610ea6575b506005548111610c75575b50505090610c62610c7093927f97cb531f777579f87626fea949f3845a6f504dd47ae4b224b963742872db8e8d97610c54604051988998338a52608060208b015260808a0191611238565b91878303604089015261125c565b91848303606086015261129b565b0390a1005b604095949395518060808101106001600160401b03608083011117610e90576000816080829301604052605a81527f426c696e6441756374696f6e4c6f6769632072657665616c206c61737448696760208201527f686573744269643a25732c206c617374486967686573744269646465723a257360408201527f2c20726566756e643a25733d3d3d3d3d3d3d3d3d3d3d3d3d3d3d0000000000006060820152604051610d6e81610d3f60208201946327827ee360e11b86526080602484015260a4830190611334565b604482018890526001600160a01b0390981660648201819052608482018a90529703601f198101835282611168565b51906a636f6e736f6c652e6c6f675afa506005556bffffffffffffffffffffffff60a01b600454161760045533600052600a60205260406000208054906000815581610e40575b5050600080808093818115610e37575b3390f1156105e657610c62610c70937f97cb531f777579f87626fea949f3845a6f504dd47ae4b224b963742872db8e8d9760018060a01b036004541680610e13575b50978193949550610c09565b600554906000526001602052610e2f6040600020918254611203565b905589610e07565b506108fc610dc5565b6001600160ff1b0382168203610e7a5760005260206000209060011b8101905b81811015610db55760008082556001820155600201610e60565b634e487b7160e01b600052601160045260246000fd5b634e487b7160e01b600052604160045260246000fd5b925050506060813d606011610eef575b81610ec360609383611168565b810103126101715780516020820151916001600160a01b03831683036101715760400151919089610bfe565b3d9150610eb6565b9193979650919394602080610f18600193601f198682030187528b51611334565b990193019301909288969795949293610bb6565b82511515855289975060209485019490920191600101610b84565b8251855289975060209485019490920191600101610b5c565b82548652600180840154602088015289975060409096019560029093019201610b2a565b81356001600160401b03811161017157870136601f8201121561017157803591610fad8361121d565b610fba6040519182611168565b83815236602085850101116101715760006020858196828097018386013783010152815201910190610a6a565b60208091610ff484611210565b815201910190610a2b565b81358152602091820191016109ef565b34610171576000366003190112610171576020600854604051908152f35b346101715760403660031901126101715761104661108b565b6001600160a01b03166000908152600a602052604090208054602435919082101561017157604091611077916110a1565b506001815491015482519182526020820152f35b600435906001600160a01b038216820361017157565b80548210156110bd5760005260206000209060011b0190600090565b634e487b7160e01b600052603260045260246000fd5b9181601f84011215610171578235916001600160401b038311610171576020808501948460051b01011161017157565b6009548110156110bd5760096000527f6e1540171b6c0c960b71a7020d9f60077f6af931a8bbf590da0223dacf75c7af0190600090565b6001600160401b038111610e9057604052565b606081019081106001600160401b03821117610e9057604052565b90601f801991011681019081106001600160401b03821117610e9057604052565b6001600160401b038111610e905760051b60200190565b6000198114610e7a5760010190565b9081519160005b8381106111c65750505050600090565b81518110156110bd57600581901b8201602001516001600160a01b038481169116146111fa576111f5906111a0565b6111b6565b50505050600190565b91908201809211610e7a57565b3590811515820361017157565b6001600160401b038111610e9057601f01601f191660200190565b81835290916001600160fb1b0383116101715760209260051b809284830137010190565b91908082526020809201929160005b828110611279575050505090565b90919293828060019261128b88611210565b151581520195019392910161126b565b8183526020600583901b84018101939192906000818401855b8483106112c5575050505050505090565b90919293949596601f19808883030184528835601e198436030181121561017157830186810190356001600160401b03811161017157803603821361017157838893601f83808796879660019a52868601376000858286010152011601019901930193019195949392906112b4565b919082519283825260005b848110611360575050826000602080949584010152601f8019910116010190565b60208183018101518483018201520161133f56fea2646970667358221220324fa1060d26f32385578942cc11229672ad30ed8ef8d547aeb4d0be4337c24e64736f6c63430008120033","linkReferences":{"src/contracts/pro/pro6/libraries/BlindAuctionLib.sol":{"BlindAuctionLib":[{"start":3071,"length":20}]}}},"methodIdentifiers":{"auctionEnd()":"2a24f46c","auctionEndTime()":"4b449cba","auctioneers(uint256)":"c3b7b136","beneficiary()":"38af3eed","bid(bytes32)":"957bb1e0","bids(address,uint256)":"01495c1c","containsElement(address[],address)":"dedcf1db","highestBid()":"d57bde79","highestBidder()":"91f90157","init(uint256,uint256,address,address,address,uint256)":"6a121eb9","myApeAddress()":"55447a38","pendingReturns(address)":"26b387bb","pointAddress()":"3a0c4f80","reveal(uint256[],bool[],string[])":"1c8ac1cb","revealEndTime()":"d49dc1d8","tokenId()":"17d70f7c","withdraw()":"3ccfd60b"},"id":120}