{"abi":[{"type":"constructor","inputs":[{"name":"name_","type":"string","internalType":"string"},{"name":"symbol_","type":"string","internalType":"string"}],"stateMutability":"nonpayable"},{"type":"function","name":"MAX_APES","inputs":[],"outputs":[{"name":"","type":"uint256","internalType":"uint256"}],"stateMutability":"view"},{"type":"function","name":"approve","inputs":[{"name":"to","type":"address","internalType":"address"},{"name":"tokenId","type":"uint256","internalType":"uint256"}],"outputs":[],"stateMutability":"nonpayable"},{"type":"function","name":"balanceOf","inputs":[{"name":"owner","type":"address","internalType":"address"}],"outputs":[{"name":"","type":"uint256","internalType":"uint256"}],"stateMutability":"view"},{"type":"function","name":"getApproved","inputs":[{"name":"tokenId","type":"uint256","internalType":"uint256"}],"outputs":[{"name":"","type":"address","internalType":"address"}],"stateMutability":"view"},{"type":"function","name":"isApprovedForAll","inputs":[{"name":"owner","type":"address","internalType":"address"},{"name":"operator","type":"address","internalType":"address"}],"outputs":[{"name":"","type":"bool","internalType":"bool"}],"stateMutability":"view"},{"type":"function","name":"mint","inputs":[{"name":"to","type":"address","internalType":"address"},{"name":"tokenId","type":"uint256","internalType":"uint256"}],"outputs":[],"stateMutability":"nonpayable"},{"type":"function","name":"name","inputs":[],"outputs":[{"name":"","type":"string","internalType":"string"}],"stateMutability":"view"},{"type":"function","name":"ownerOf","inputs":[{"name":"tokenId","type":"uint256","internalType":"uint256"}],"outputs":[{"name":"owner","type":"address","internalType":"address"}],"stateMutability":"view"},{"type":"function","name":"safeTransferFrom","inputs":[{"name":"from","type":"address","internalType":"address"},{"name":"to","type":"address","internalType":"address"},{"name":"tokenId","type":"uint256","internalType":"uint256"}],"outputs":[],"stateMutability":"nonpayable"},{"type":"function","name":"safeTransferFrom","inputs":[{"name":"from","type":"address","internalType":"address"},{"name":"to","type":"address","internalType":"address"},{"name":"tokenId","type":"uint256","internalType":"uint256"},{"name":"_data","type":"bytes","internalType":"bytes"}],"outputs":[],"stateMutability":"nonpayable"},{"type":"function","name":"setApprovalForAll","inputs":[{"name":"operator","type":"address","internalType":"address"},{"name":"approved","type":"bool","internalType":"bool"}],"outputs":[],"stateMutability":"nonpayable"},{"type":"function","name":"supportsInterface","inputs":[{"name":"interfaceId","type":"bytes4","internalType":"bytes4"}],"outputs":[{"name":"","type":"bool","internalType":"bool"}],"stateMutability":"pure"},{"type":"function","name":"symbol","inputs":[],"outputs":[{"name":"","type":"string","internalType":"string"}],"stateMutability":"view"},{"type":"function","name":"tokenURI","inputs":[{"name":"tokenId","type":"uint256","internalType":"uint256"}],"outputs":[{"name":"","type":"string","internalType":"string"}],"stateMutability":"view"},{"type":"function","name":"transferFrom","inputs":[{"name":"from","type":"address","internalType":"address"},{"name":"to","type":"address","internalType":"address"},{"name":"tokenId","type":"uint256","internalType":"uint256"}],"outputs":[],"stateMutability":"nonpayable"},{"type":"event","name":"Approval","inputs":[{"name":"owner","type":"address","indexed":true,"internalType":"address"},{"name":"approved","type":"address","indexed":true,"internalType":"address"},{"name":"tokenId","type":"uint256","indexed":true,"internalType":"uint256"}],"anonymous":false},{"type":"event","name":"ApprovalForAll","inputs":[{"name":"owner","type":"address","indexed":true,"internalType":"address"},{"name":"operator","type":"address","indexed":true,"internalType":"address"},{"name":"approved","type":"bool","indexed":false,"internalType":"bool"}],"anonymous":false},{"type":"event","name":"Transfer","inputs":[{"name":"from","type":"address","indexed":true,"internalType":"address"},{"name":"to","type":"address","indexed":true,"internalType":"address"},{"name":"tokenId","type":"uint256","indexed":true,"internalType":"uint256"}],"anonymous":false}],"bytecode":{"object":"0x6080604052346200031f576200143a803803806200001d8162000324565b9283398101906040818303126200031f5780516001600160401b03908181116200031f57836200004f9184016200034a565b91602093848201518381116200031f576200006b92016200034a565b825190828211620003095760008054926001958685811c95168015620002fe575b88861014620002ea578190601f9586811162000297575b5088908683116001146200023357849262000227575b5050600019600383901b1c191690861b1781555b8151938411620002135784548581811c9116801562000208575b87821014620001f457838111620001ac575b5085928411600114620001475783949550926200013b575b5050600019600383901b1c191690821b1790555b61271060065560405161107d9081620003bd8239f35b01519050388062000111565b9190601f1984169585845280842093905b87821062000194575050838596106200017a575b505050811b01905562000125565b015160001960f88460031b161c191690553880806200016c565b80878596829496860151815501950193019062000158565b8582528682208480870160051c820192898810620001ea575b0160051c019086905b828110620001de575050620000f9565b838155018690620001ce565b92508192620001c5565b634e487b7160e01b82526022600452602482fd5b90607f1690620000e7565b634e487b7160e01b81526041600452602490fd5b015190503880620000b9565b8480528985208994509190601f198416865b8c82821062000280575050841162000266575b505050811b018155620000cd565b015160001960f88460031b161c1916905538808062000258565b8385015186558c9790950194938401930162000245565b9091508380528884208680850160051c8201928b8610620002e0575b918a91869594930160051c01915b828110620002d1575050620000a3565b8681558594508a9101620002c1565b92508192620002b3565b634e487b7160e01b83526022600452602483fd5b94607f16946200008c565b634e487b7160e01b600052604160045260246000fd5b600080fd5b6040519190601f01601f191682016001600160401b038111838210176200030957604052565b919080601f840112156200031f5782516001600160401b038111620003095760209062000380601f8201601f1916830162000324565b928184528282870101116200031f5760005b818110620003a857508260009394955001015290565b85810183015184820184015282016200039256fe608060408181526004918236101561001657600080fd5b600092833560e01c91826301ffc9a7146109f75750816306fdde031461092c578163081812fc146108e5578163095ea7b31461076e57816323b872dd1461073a57816340c10f191461056657816342842e0e146105185781636352211e146104e757816370a082311461046c57816395d89b4114610365578163a22cb465146102e0578163b88d4fde14610252578163bb8a16bd14610233578163c87b56dd1461011a575063e985e9c5146100ca57600080fd5b3461011657806003193601126101165760ff816020936100e8610b1a565b6100f0610b35565b6001600160a01b0391821683526005875283832091168252855220549151911615158152f35b5080fd5b9050823461023057602091826003193601126101165780358083526002845291849020546001600160a01b0316156101fb5750826101e8836101f7936101c896519061016582610a62565b603682526101b6838301917f697066733a2f2f516d65536a53696e4870506e6d586d73704d6a776958794e368352757a533445397a63636172694752336a7863615774712f60501b87850152610f50565b90855198899351809286860190610ad2565b82016101dc82518093868085019101610ad2565b01038087520185610ab0565b51928284938452830190610af5565b0390f35b835162461bcd60e51b8152908101839052600f60248201526e151bdad95b88139bdd08115e1a5cdd608a1b6044820152606490fd5b80fd5b5050346101165781600319360112610116576020906006549051908152f35b919050346102dc5760803660031901126102dc5761026e610b1a565b610276610b35565b846064359467ffffffffffffffff8611610116573660238701121561011657850135946102ae6102a587610b80565b95519586610ab0565b858552366024878301011161011657856102d996602460209301838801378501015260443591610e1a565b80f35b8280fd5b5050346101165780600319360112610116576102fa610b1a565b90602435908115158092036103615733845260056020528084209260018060a01b03169283855260205280842060ff1981541660ff8416179055519081527f17307eab39ab6107e8899845ad3d59bd9653f200f220920489ca2b5937696c3160203392a380f35b8380fd5b8284346102305780600319360112610230578151918160019283549384811c91818616958615610462575b602096878510811461044f578899509688969785829a5291826000146104285750506001146103cd575b5050506101f792916101e8910385610ab0565b91908693508083527fb10e2d527612073b26eecdfd717e6a320cf44b4afac2b0732d9fcbe2b7fa0cf65b82841061041057505050820101816101e86101f76103ba565b8054848a0186015288955087949093019281016103f7565b60ff19168782015293151560051b860190930193508492506101e891506101f790506103ba565b634e487b7160e01b835260228a52602483fd5b92607f1692610390565b83915034610116576020366003190112610116576001600160a01b03610490610b1a565b169081156104ad5760208480858581526003845220549051908152f35b606490602085519162461bcd60e51b835282015260146024820152736f776e6572203d207a65726f206164647265737360601b6044820152fd5b828434610230576020366003190112610230575061050760209235610bde565b90516001600160a01b039091168152f35b8383346101165761052836610b4b565b91835193602085019085821067ffffffffffffffff831117610553576102d996975052858452610e1a565b634e487b7160e01b875260418852602487fd5b919050346102dc57806003193601126102dc57610581610b1a565b90602480359382519161059383610a94565b600b835286806020946a36b4b73a321037bbb732b960a91b8682015286516105e9816105d58982019463319af33360e01b86528b898401526064830190610af5565b33604483015203601f198101835282610ab0565b51906a636f6e736f6c652e6c6f675afa50600654861015610703576001600160a01b039485169485156106cb57868852600284528488205416610694578487526003835283872090815492600184018094116106835750505583855260029052832080546001600160a01b03191682179055827fddf252ad1be2c89b69c2b068fc378daa952ba7f163c4a11628f55a4df523b3ef8180a480f35b634e487b7160e01b89526011905287fd5b60149192606494519362461bcd60e51b8552840152820152731d1bdad95b88185b1c9958591e481b5a5b9d195960621b6044820152fd5b5060149192606494519362461bcd60e51b8552840152820152736d696e7420746f207a65726f206164647265737360601b6044820152fd5b60149192606494519362461bcd60e51b855284015282015273746f6b656e4964206f7574206f662072616e676560601b6044820152fd5b8334610230576102d961074c36610b4b565b9161075683610bde565b610769610764853384610c49565b610c04565b610cb2565b9050346102dc57816003193601126102dc57610788610b1a565b6024359280519261079884610a62565b602284526020927f4552433732312e617070726f76652d2d2d2d2d6f776e65723a25732c20746f3a8486015261257360f01b8386015286808451966107f5878901916307e763af60e51b8352606060248b015260848a0190610af5565b9733604482015261081f8160018060a01b038097169a8b606483015203601f198101835282610ab0565b51906a636f6e736f6c652e6c6f675afa508587526002845282872054169283331480156108c9575b156108895785875252842080546001600160a01b031916831790557f8c5be1e5ebec7d5bd14f71427d1e84f3dd0314c0f7b2291e5b200ac8c7c3b9258480a480f35b606492519162461bcd60e51b8352820152601e60248201527f6e6f74206f776e6572206e6f7220617070726f76656420666f7220616c6c00006044820152fd5b5083875260058152828720338852815260ff8388205416610847565b9050346102dc5760203660031901126102dc57816020938235928382526002865260018060a01b039361091e8585852054161515610b9c565b825285522054169051908152f35b82843461023057806003193601126102305781519181825492600184811c918186169586156109ed575b602096878510811461044f578899509688969785829a529182600014610428575050600114610992575050506101f792916101e8910385610ab0565b91908693508280527f290decd9548b62a8d60345a988386fc84ba6bc95484008f6362f93160ef3e5635b8284106109d557505050820101816101e86101f76103ba565b8054848a0186015288955087949093019281016109bc565b92607f1692610956565b8491346102dc5760203660031901126102dc573563ffffffff60e01b81168091036102dc57602092506380ac58cd60e01b8114908115610a51575b8115610a40575b5015158152f35b635b5e139f60e01b14905083610a39565b6301ffc9a760e01b81149150610a32565b6060810190811067ffffffffffffffff821117610a7e57604052565b634e487b7160e01b600052604160045260246000fd5b6040810190811067ffffffffffffffff821117610a7e57604052565b90601f8019910116810190811067ffffffffffffffff821117610a7e57604052565b60005b838110610ae55750506000910152565b8181015183820152602001610ad5565b90602091610b0e81518092818552858086019101610ad2565b601f01601f1916010190565b600435906001600160a01b0382168203610b3057565b600080fd5b602435906001600160a01b0382168203610b3057565b6060906003190112610b30576001600160a01b03906004358281168103610b3057916024359081168103610b30579060443590565b67ffffffffffffffff8111610a7e57601f01601f191660200190565b15610ba357565b60405162461bcd60e51b81526020600482015260136024820152721d1bdad95b88191bd95cdb89dd08195e1a5cdd606a1b6044820152606490fd5b6000908152600260205260409020546001600160a01b031690610c02821515610b9c565b565b15610c0b57565b60405162461bcd60e51b81526020600482015260166024820152751b9bdd081bdddb995c881b9bdc88185c1c1c9bdd995960521b6044820152606490fd5b6001600160a01b0391821690821681811493919290918415610c96575b50508215610c7357505090565b909150600052600560205260406000209060005260205260ff6040600020541690565b8392945060005260046020526040600020541614913880610c66565b6001600160a01b039081169291811691838303610de95716918215610da4576000908482526004602052848260408120926bffffffffffffffffffffffff60a01b938481541690557f8c5be1e5ebec7d5bd14f71427d1e84f3dd0314c0f7b2291e5b200ac8c7c3b9258280a48282526003602052604082208054600019810191908211610d90575583825260036020526040822080549060018201809211610d9057558482526002602052604082208054909116841790557fddf252ad1be2c89b69c2b068fc378daa952ba7f163c4a11628f55a4df523b3ef9080a4565b634e487b7160e01b84526011600452602484fd5b60405162461bcd60e51b815260206004820152601c60248201527f7472616e7366657220746f20746865207a65726f2061646472657373000000006044820152606490fd5b60405162461bcd60e51b81526020600482015260096024820152683737ba1037bbb732b960b91b6044820152606490fd5b90610e35939291610e3083838361075683610bde565b610e76565b15610e3c57565b60405162461bcd60e51b81526020600482015260126024820152713737ba1022a9219b9918a932b1b2b4bb32b960711b6044820152606490fd5b91929190803b15610f4757604051630a85bd0160e11b8082523360048301526001600160a01b03938416602483015260448201959095526080606482015292602091849182908190610ecc906084830190610af5565b03916000958691165af1918215610f3a578192610ef4575b50506001600160e01b0319161490565b9091506020813d8211610f32575b81610f0f60209383610ab0565b810103126101165751906001600160e01b03198216820361023057503880610ee4565b3d9150610f02565b50604051903d90823e3d90fd5b50505050600190565b80156110295780816000925b61100f5750610f6a82610b80565b91610f786040519384610ab0565b808352601f19610f8782610b80565b01908260209236848701375b610f9d5750505090565b6000198101908111610ff9578092600a9160308383068101809111610ff9578651821015610fe35760f81b6001600160f81b03191660001a908601840153049182610f93565b634e487b7160e01b600052603260045260246000fd5b634e487b7160e01b600052601160045260246000fd5b90916000198114610ff9576001019190600a900480610f5c565b5060405161103681610a94565b60018152600360fc1b60208201529056fea2646970667358221220b2e71b1f861342c10327ced11ada6764859c0d35a2c98e8774ea4d1962145be964736f6c63430008120033","linkReferences":{}},"methodIdentifiers":{"MAX_APES()":"bb8a16bd","approve(address,uint256)":"095ea7b3","balanceOf(address)":"70a08231","getApproved(uint256)":"081812fc","isApprovedForAll(address,address)":"e985e9c5","mint(address,uint256)":"40c10f19","name()":"06fdde03","ownerOf(uint256)":"6352211e","safeTransferFrom(address,address,uint256)":"42842e0e","safeTransferFrom(address,address,uint256,bytes)":"b88d4fde","setApprovalForAll(address,bool)":"a22cb465","supportsInterface(bytes4)":"01ffc9a7","symbol()":"95d89b41","tokenURI(uint256)":"c87b56dd","transferFrom(address,address,uint256)":"23b872dd"},"id":108}