{"abi":[{"type":"function","name":"auctionEnd","inputs":[],"outputs":[],"stateMutability":"nonpayable"},{"type":"function","name":"bid","inputs":[{"name":"_value","type":"bytes32","internalType":"bytes32"}],"outputs":[],"stateMutability":"payable"},{"type":"function","name":"getImplementation","inputs":[],"outputs":[{"name":"impl","type":"address","internalType":"address"}],"stateMutability":"view"},{"type":"function","name":"getImplementationPosition","inputs":[],"outputs":[{"name":"implementationPosition","type":"bytes32","internalType":"bytes32"}],"stateMutability":"pure"},{"type":"function","name":"getOwnerAddress","inputs":[],"outputs":[{"name":"ownerAddress","type":"address","internalType":"address"}],"stateMutability":"view"},{"type":"function","name":"getOwnerPosition","inputs":[],"outputs":[{"name":"ownerPosition","type":"bytes32","internalType":"bytes32"}],"stateMutability":"pure"},{"type":"function","name":"init","inputs":[{"name":"biddingTime","type":"uint256","internalType":"uint256"},{"name":"revealTime","type":"uint256","internalType":"uint256"},{"name":"beneficiaryAddress","type":"address","internalType":"address payable"},{"name":"_pointAddress","type":"address","internalType":"address"},{"name":"_collectionAddress","type":"address","internalType":"address"},{"name":"_tokenId","type":"uint256","internalType":"uint256"}],"outputs":[],"stateMutability":"nonpayable"},{"type":"function","name":"reveal","inputs":[{"name":"values","type":"uint256[]","internalType":"uint256[]"},{"name":"fakes","type":"bool[]","internalType":"bool[]"},{"name":"secrets","type":"string[]","internalType":"string[]"}],"outputs":[],"stateMutability":"nonpayable"},{"type":"function","name":"setOwnership","inputs":[{"name":"_newOwner","type":"address","internalType":"address"}],"outputs":[],"stateMutability":"nonpayable"},{"type":"function","name":"upgradeTo","inputs":[{"name":"newImplementation","type":"address","internalType":"address"}],"outputs":[],"stateMutability":"nonpayable"},{"type":"function","name":"withdraw","inputs":[],"outputs":[],"stateMutability":"nonpayable"}],"bytecode":{"object":"0x6080806040523461001657610848908161001c8239f35b600080fdfe608060408181526004918236101561001657600080fd5b600092833560e01c9182630a891cee14610644575081630c4f65bd1461060e5781631c8ac1cb14610433578382632a24f46c146103ef575081633659cfe614610391578382633ccfd60b14610341575081636a121eb9146101f9578163957bb1e01461016257508063a701602314610102578063aaf10f42146100cd5763fc6af697146100a257600080fd5b346100c957816003193601126100c957602090516000805160206107d38339815191528152f35b5080fd5b50346100c957816003193601126100c9576000805160206107f38339815191525490516001600160a01b039091168152602090f35b823461015f57602036600319011261015f5761011c6106a2565b6000805160206107d383398151915280546001600160a01b039081168061014e575b5082161561014a575580f35b8280fd5b6101599033146106b8565b8461013e565b80fd5b838360203660031901126100c9576000805160206107f3833981519152549080519360208501916304abdd8f60e51b83528135602487015260248652606086019186831067ffffffffffffffff8411176101e657505283516101d99284928392915af46101cd610750565b816101dc575b50610790565b80f35b90505115836101d3565b634e487b7160e01b865260419052602485fd5b90503461014a5760c036600319011261014a576001600160a01b03906044358281169081900361033d576064358381168091036103395760843592848416809403610335576000805160206107d3833981519152958587541680610324575b506000805160206107f383398151915254948151936020850195636a121eb960e01b87528435602487015260243560448701526064860152608485015260a484015260a43560c484015260c4835261010083019183831067ffffffffffffffff841117610311575052516102e09286928392915af46102d5610750565b816103075750610790565b815416806102f6575b5033156100c95733905580f35b6103019033146106b8565b386102e9565b90505115386101d3565b634e487b7160e01b895260419052602488fd5b61032f9033146106b8565b38610258565b8680fd5b8580fd5b8480fd5b9150346100c957816003193601126100c9576101d99282916000805160206107f38339815191525491516020810191633ccfd60b60e01b83528152610385816106fc565b51915af46102d5610750565b833461015f57602036600319011261015f576103ab6106a2565b6000805160206107d3833981519152546001600160a01b0316806103de575b506000805160206107f38339815191525580f35b6103e99033146106b8565b826103ca565b9150346100c957816003193601126100c9576101d99282916000805160206107f38339815191525491516020810191630a893d1b60e21b83528152610385816106fc565b8383346100c95760603660031901126100c95767ffffffffffffffff833581811161060a57610465903690860161066c565b916024358181116103395761047d903690880161066c565b929096604435838111610606576104969136910161066c565b91906000805160206107f38339815191525496519460209283870197631c8ac1cb60e01b89526060602489015280608489015260018060fb1b038111610602579060c49160059c97969594939c1b809160a48a013787018b60a4820160808a84030160448b015252019499895b8181106105d6575050889950602398979819868603016064870152828552818501828460051b8701019582958a935b868510610563575050896101d981808e8d8d610557818f03601f19810183528261072e565b51915af46101cd610750565b9091929394959697601f19808583030186528935601e19843603018112156105d257830188813591018582116105ce5781360381136105ce57838f93601f848d9681889796889760019b5287870137858286010152011601019a019501950193969594929190610532565b8e80fd5b8d80fd5b9091929394958b358015158091036105fe5781529a84019a8401959493929190600101610503565b8b80fd5b8a80fd5b8780fd5b8380fd5b5050346100c957816003193601126100c9576000805160206107d38339815191525490516001600160a01b039091168152602090f35b8490346100c957816003193601126100c957806000805160206107f383398151915260209252f35b9181601f8401121561069d5782359167ffffffffffffffff831161069d576020808501948460051b01011161069d57565b600080fd5b600435906001600160a01b038216820361069d57565b156106bf57565b60405162461bcd60e51b81526020600482015260156024820152743737ba1037bbb732b913b99037b832b930ba34b7b760591b6044820152606490fd5b6040810190811067ffffffffffffffff82111761071857604052565b634e487b7160e01b600052604160045260246000fd5b90601f8019910116810190811067ffffffffffffffff82111761071857604052565b3d1561078b573d9067ffffffffffffffff8211610718576040519161077f601f8201601f19166020018461072e565b82523d6000602084013e565b606090565b1561079757565b60405162461bcd60e51b815260206004820152601360248201527219195b1959d85d1958d85b1b0819985a5b1959606a1b6044820152606490fdfeb57f0cf330bf7f95b43f3db6cc247b2fad54dff50060f4879a89bfae6af8bec9d8783a201dbe4630138646b6a4841a31f1af98dfb8abbb44d025578c324d7beda2646970667358221220a2c0f7c28823575eed4ccf11b4255d23885e663e4726d22d50f5755b4a204b9164736f6c63430008120033","linkReferences":{}},"methodIdentifiers":{"auctionEnd()":"2a24f46c","bid(bytes32)":"957bb1e0","getImplementation()":"aaf10f42","getImplementationPosition()":"0a891cee","getOwnerAddress()":"0c4f65bd","getOwnerPosition()":"fc6af697","init(uint256,uint256,address,address,address,uint256)":"6a121eb9","reveal(uint256[],bool[],string[])":"1c8ac1cb","setOwnership(address)":"a7016023","upgradeTo(address)":"3659cfe6","withdraw()":"3ccfd60b"},"id":112}