{"abi":[{"type":"function","name":"auctionEnd","inputs":[],"outputs":[],"stateMutability":"nonpayable"},{"type":"function","name":"auctionEndTime","inputs":[],"outputs":[{"name":"","type":"uint256","internalType":"uint256"}],"stateMutability":"view"},{"type":"function","name":"beneficiary","inputs":[],"outputs":[{"name":"","type":"address","internalType":"address payable"}],"stateMutability":"view"},{"type":"function","name":"bid","inputs":[{"name":"blindedBid","type":"bytes32","internalType":"bytes32"}],"outputs":[],"stateMutability":"payable"},{"type":"function","name":"bids","inputs":[{"name":"","type":"address","internalType":"address"},{"name":"","type":"uint256","internalType":"uint256"}],"outputs":[{"name":"blindedBid","type":"bytes32","internalType":"bytes32"},{"name":"deposit","type":"uint256","internalType":"uint256"}],"stateMutability":"view"},{"type":"function","name":"highestBid","inputs":[],"outputs":[{"name":"","type":"uint256","internalType":"uint256"}],"stateMutability":"view"},{"type":"function","name":"highestBidder","inputs":[],"outputs":[{"name":"","type":"address","internalType":"address"}],"stateMutability":"view"},{"type":"function","name":"init","inputs":[{"name":"biddingTime","type":"uint256","internalType":"uint256"},{"name":"revealTime","type":"uint256","internalType":"uint256"},{"name":"beneficiaryAddress","type":"address","internalType":"address payable"}],"outputs":[],"stateMutability":"nonpayable"},{"type":"function","name":"reveal","inputs":[{"name":"values","type":"uint256[]","internalType":"uint256[]"},{"name":"fakes","type":"bool[]","internalType":"bool[]"},{"name":"secrets","type":"string[]","internalType":"string[]"}],"outputs":[],"stateMutability":"nonpayable"},{"type":"function","name":"revealEndTime","inputs":[],"outputs":[{"name":"","type":"uint256","internalType":"uint256"}],"stateMutability":"view"},{"type":"event","name":"AuctionEnded","inputs":[],"anonymous":false},{"type":"event","name":"RevealDetail","inputs":[{"name":"values","type":"uint256[]","indexed":false,"internalType":"uint256[]"},{"name":"fakes","type":"bool[]","indexed":false,"internalType":"bool[]"},{"name":"secrets","type":"string[]","indexed":false,"internalType":"string[]"}],"anonymous":false},{"type":"event","name":"SomeoneBid","inputs":[{"name":"bidder","type":"address","indexed":false,"internalType":"address"}],"anonymous":false},{"type":"event","name":"SomeoneReveal","inputs":[{"name":"bidder","type":"address","indexed":false,"internalType":"address"}],"anonymous":false},{"type":"error","name":"AuctionEndAlreadyCalled","inputs":[]},{"type":"error","name":"BidNotHighEnough","inputs":[{"name":"highestBid","type":"uint256","internalType":"uint256"}]},{"type":"error","name":"OnlyCanBeCallAfterThisTime","inputs":[]},{"type":"error","name":"OnlyCanBeCallBeforeThisTime","inputs":[]}],"bytecode":{"object":"0x60808060405234610023576000805460ff60a01b19169055610aec90816100298239f35b600080fdfe6080604052600436101561001257600080fd5b60003560e01c806301495c1c1461099f5780631c8ac1cb1461034b5780632a24f46c146102aa57806338af3eed146102815780634b449cba1461026357806391f901571461023a578063957bb1e01461016b578063d49dc1d81461014d578063d57bde791461012f5763f3251e1e1461008a57600080fd5b3461012a57606036600319011261012a576044356001600160a01b0381169081900361012a576000549060ff8260a01c166100f6576100db6100ce60043542610a62565b8060015560243590610a62565b6005556001600160a81b031990911617600160a01b17600055005b60405162461bcd60e51b815260206004820152600c60248201526b105b1c9958591e481a5b9a5d60a21b6044820152606490fd5b600080fd5b3461012a57600036600319011261012a576020600354604051908152f35b3461012a57600036600319011261012a576020600554604051908152f35b602036600319011261012a5733600052600460205260406000206040516040810181811067ffffffffffffffff8211176102245760405260043581526020810191348352805468010000000000000000811015610224576101d1916001820181556109ff565b92909261020e57600191518355519101557fcb3b30057a138be4cd23038729c66dbececeba7913b280de1a33117b008c5f6b6020604051338152a1005b634e487b7160e01b600052600060045260246000fd5b634e487b7160e01b600052604160045260246000fd5b3461012a57600036600319011261012a576002546040516001600160a01b039091168152602090f35b3461012a57600036600319011261012a576020600154604051908152f35b3461012a57600036600319011261012a576000546040516001600160a01b039091168152602090f35b3461012a57600036600319011261012a5760005460ff8160a81c1661033957600080808093600160a81b60ff60a81b198216178255600354908290821561032f575b6001600160a01b031690f115610323577fa0e92984607195c326795751263414ee1074526323552e694c90ef2b99ae3f29600080a1005b6040513d6000823e3d90fd5b6108fc91506102ec565b604051630c39fb9f60e31b8152600490fd5b3461012a57606036600319011261012a5760043567ffffffffffffffff811161012a5761037c903690600401610a31565b60243567ffffffffffffffff811161012a5761039c903690600401610a31565b60443567ffffffffffffffff811161012a576103bc903690600401610a31565b9091604051956060870187811067ffffffffffffffff821117610224576040526103e586610a91565b6103f26040519182610a6f565b86815260208101368860051b84011161012a5782905b8860051b8401821061098f575050875261042182610a91565b61042e6040519182610a6f565b82815260208101368460051b88011161012a5786905b8460051b88018210610977575050602088015261046083610a91565b61046d6040519182610a6f565b83815260208101368560051b87011161012a5785905b8560051b870182106108f15750506040880152604051956060875280606088015260018060fb1b03811161012a5760a0918160059695961b90608089013760051b8601826080820160808984030160208a01525201939060005b8181106108ca575050508383036040850152818352602083019160208160051b8501019382936000915b83831061084857887fc983068935d78eacee634d7b064b5ea7a1bd0d838ff1eef9ebca8f4fef7911a18989038aa133600052600460205260406000206003549160018060a01b03600254169160405193849263c173203960e01b84526084840160806004860152835480915260a485019360005260206000209060005b818110610824575050508383036003190160248501528051606080855281519085018190526080850192916020019060005b81811061080b5750505060208101519184810360208601526020808451928381520193019060005b8181106107f0575050506040015192604081830391015282519081815260208101916020808260051b8401019501926000925b8284106107895787606081808a8d8b60448401526064830152038173__$aa742fc77383279296015573e34065192b$__5af49081156103235760008091600093610738575b5060035560018060a01b03166bffffffffffffffffffffffff60a01b6002541617600255336000526004602052604060002080549060008155816106e2575b50506000808080938181156106d9575b3390f115610323577fe0b83a7ace6940b32786e135a0f683a7116b66197efae9ef2d738880e1d93a9c6020604051338152a1005b506108fc6106a5565b6001600160ff1b038216820361072257600052602060002090600190811b8201915b8281106107115750610695565b600080825582820155600201610704565b634e487b7160e01b600052601160045260246000fd5b925050506060813d606011610781575b8161075560609383610a6f565b8101031261012a5780516020820151916001600160a01b038316830361012a5760400151919083610656565b3d9150610748565b9193979650919394601f19828203018352875180519081835260005b8281106107db57505060208083836000838096600198010152601f80199101160101990193019401919290938896979594610611565b806020809284010151828287010152016107a5565b825115158552899750602094850194909201916001016105de565b82518552899750602094850194909201916001016105b6565b82548652600180840154602088015289975060409096019560029093019201610584565b909192939495601f198282030183528635601e198736030181121561012a5767ffffffffffffffff878201351161012a578681013536036020888301011361012a57868101803580845260019360209384938493908401838501376000838c83013584010152601f8b8119920135011601019801930193019194939290610507565b9091946020806001926108df89989798610aa9565b151581520196949594019291016104dd565b813567ffffffffffffffff811161012a5736601f828a0101121561012a5767ffffffffffffffff8189013511610224576040519161093c89830135601f01601f191660200184610a6f565b88820180358085523691016020011161012a57602092600084848c82828198830135920101838601378c013583010152815201910190610483565b6020809161098484610aa9565b815201910190610444565b8135815260209182019101610408565b3461012a57604036600319011261012a576004356001600160a01b0381169081900361012a576024359060005260046020526040600020805482101561012a576040916109eb916109ff565b506001815491015482519182526020820152f35b8054821015610a1b5760005260206000209060011b0190600090565b634e487b7160e01b600052603260045260246000fd5b9181601f8401121561012a5782359167ffffffffffffffff831161012a576020808501948460051b01011161012a57565b9190820180921161072257565b90601f8019910116810190811067ffffffffffffffff82111761022457604052565b67ffffffffffffffff81116102245760051b60200190565b3590811515820361012a5756fea2646970667358221220c3785d4d57337041b199940c060aa9d17ddc722eec0b1907812a52f4b4bfc36a64736f6c63430008120033","linkReferences":{"src/contracts/pro/pro4/libraries/BlindAuctionLib.sol":{"BlindAuctionLib":[{"start":1623,"length":20}]}}},"methodIdentifiers":{"auctionEnd()":"2a24f46c","auctionEndTime()":"4b449cba","beneficiary()":"38af3eed","bid(bytes32)":"957bb1e0","bids(address,uint256)":"01495c1c","highestBid()":"d57bde79","highestBidder()":"91f90157","init(uint256,uint256,address)":"f3251e1e","reveal(uint256[],bool[],string[])":"1c8ac1cb","revealEndTime()":"d49dc1d8"},"id":74}