{"abi":[{"type":"function","name":"auctionEnd","inputs":[],"outputs":[],"stateMutability":"nonpayable"},{"type":"function","name":"beneficiary","inputs":[],"outputs":[{"name":"","type":"address","internalType":"address payable"}],"stateMutability":"view"},{"type":"function","name":"bid","inputs":[{"name":"blindedBid","type":"bytes32","internalType":"bytes32"}],"outputs":[],"stateMutability":"payable"},{"type":"function","name":"bidEndTime","inputs":[],"outputs":[{"name":"","type":"uint256","internalType":"uint256"}],"stateMutability":"view"},{"type":"function","name":"bids","inputs":[{"name":"","type":"address","internalType":"address"},{"name":"","type":"uint256","internalType":"uint256"}],"outputs":[{"name":"blindedBid","type":"bytes32","internalType":"bytes32"},{"name":"deposit","type":"uint256","internalType":"uint256"}],"stateMutability":"view"},{"type":"function","name":"highestBid","inputs":[],"outputs":[{"name":"","type":"uint256","internalType":"uint256"}],"stateMutability":"view"},{"type":"function","name":"highestBidder","inputs":[],"outputs":[{"name":"","type":"address","internalType":"address"}],"stateMutability":"view"},{"type":"function","name":"init","inputs":[{"name":"biddingTime","type":"uint256","internalType":"uint256"},{"name":"revealTime","type":"uint256","internalType":"uint256"},{"name":"beneficiaryAddress","type":"address","internalType":"address payable"}],"outputs":[],"stateMutability":"nonpayable"},{"type":"function","name":"pendingReturns","inputs":[{"name":"","type":"address","internalType":"address"}],"outputs":[{"name":"","type":"uint256","internalType":"uint256"}],"stateMutability":"view"},{"type":"function","name":"reveal","inputs":[{"name":"values","type":"uint256[]","internalType":"uint256[]"},{"name":"fakes","type":"bool[]","internalType":"bool[]"},{"name":"secrets","type":"string[]","internalType":"string[]"}],"outputs":[],"stateMutability":"nonpayable"},{"type":"function","name":"revealEndTime","inputs":[],"outputs":[{"name":"","type":"uint256","internalType":"uint256"}],"stateMutability":"view"},{"type":"event","name":"AuctionEnded","inputs":[],"anonymous":false},{"type":"event","name":"RevealDetail","inputs":[{"name":"values","type":"uint256[]","indexed":false,"internalType":"uint256[]"},{"name":"fakes","type":"bool[]","indexed":false,"internalType":"bool[]"},{"name":"secrets","type":"string[]","indexed":false,"internalType":"string[]"}],"anonymous":false},{"type":"event","name":"SomeoneBid","inputs":[{"name":"bidder","type":"address","indexed":false,"internalType":"address"}],"anonymous":false},{"type":"event","name":"SomeoneReveal","inputs":[{"name":"bidder","type":"address","indexed":false,"internalType":"address"}],"anonymous":false},{"type":"error","name":"AuctionEndAlreadyCalled","inputs":[]},{"type":"error","name":"BidNotHighEnough","inputs":[{"name":"highestBid","type":"uint256","internalType":"uint256"}]},{"type":"error","name":"OnlyCanBeCallAfterThisTime","inputs":[]},{"type":"error","name":"OnlyCanBeCallBeforeThisTime","inputs":[]}],"bytecode":{"object":"0x60808060405234610023576007805460ff60a01b19169055610b3690816100298239f35b600080fdfe6080604052600436101561001257600080fd5b60003560e01c806301495c1c146109d85780631c8ac1cb1461038a57806326b387bb146103505780632a24f46c146102b557806338af3eed1461028c5780634ba9a9271461026e57806391f9015714610245578063957bb1e014610176578063d49dc1d814610158578063d57bde791461013a5763f3251e1e1461009557600080fd5b34610135576060366003190112610135576044356001600160a01b03811690819003610135576007549060ff8260a01c16610101576100e66100d960043542610aac565b8060055560243590610aac565b6006556001600160a81b031990911617600160a01b17600755005b60405162461bcd60e51b815260206004820152600c60248201526b105b1c9958591e481a5b9a5d60a21b6044820152606490fd5b600080fd5b34610135576000366003190112610135576020600254604051908152f35b34610135576000366003190112610135576020600654604051908152f35b60203660031901126101355733600052600060205260406000206040516040810181811067ffffffffffffffff82111761022f576040526004358152602081019134835280546801000000000000000081101561022f576101dc91600182018155610a49565b92909261021957600191518355519101557fcb3b30057a138be4cd23038729c66dbececeba7913b280de1a33117b008c5f6b6020604051338152a1005b634e487b7160e01b600052600060045260246000fd5b634e487b7160e01b600052604160045260246000fd5b34610135576000366003190112610135576001546040516001600160a01b039091168152602090f35b34610135576000366003190112610135576020600554604051908152f35b34610135576000366003190112610135576007546040516001600160a01b039091168152602090f35b346101355760003660031901126101355760045460ff811661033e5760ff1916600117600455600754600254600091829182918291906001600160a01b0316828215610335575bf115610329577fa0e92984607195c326795751263414ee1074526323552e694c90ef2b99ae3f29600080a1005b6040513d6000823e3d90fd5b506108fc6102fc565b604051630c39fb9f60e31b8152600490fd5b34610135576020366003190112610135576001600160a01b03610371610a33565b1660005260036020526020604060002054604051908152f35b346101355760603660031901126101355760043567ffffffffffffffff8111610135576103bb903690600401610a7b565b60243567ffffffffffffffff8111610135576103db903690600401610a7b565b60443567ffffffffffffffff8111610135576103fb903690600401610a7b565b9091604051956060870187811067ffffffffffffffff82111761022f5760405261042486610adb565b6104316040519182610ab9565b86815260208101368860051b8401116101355782905b8860051b840182106109c8575050875261046082610adb565b61046d6040519182610ab9565b82815260208101368460051b8801116101355786905b8460051b880182106109b0575050602088015261049f83610adb565b6104ac6040519182610ab9565b83815260208101368560051b8701116101355785905b8560051b8701821061092a5750506040880152604051956060875280606088015260018060fb1b0381116101355760a0918160059695961b90608089013760051b8601826080820160808984030160208a01525201939060005b818110610903575050508383036040850152818352602083019160208160051b8501019382936000915b83831061088157887fc983068935d78eacee634d7b064b5ea7a1bd0d838ff1eef9ebca8f4fef7911a18989038aa133600052600060205260406000206002549160018060a01b03600154169160405193849263c173203960e01b84526084840160806004860152835480915260a485019360005260206000209060005b81811061085d575050508383036003190160248501528051606080855281519085018190526080850192916020019060005b8181106108445750505060208101519184810360208601526020808451928381520193019060005b818110610829575050506040015192604081830391015282519081815260208101916020808260051b8401019501926000925b8284106107c25787606081808a8d8b60448401526064830152038173__$d6327b523d50abdcd5e4978c893e9ac28b$__5af49081156103295760008091600093610771575b5060025560018060a01b03166bffffffffffffffffffffffff60a01b600154161760015533600052600060205260406000208054906000815581610721575b5050600080808093818115610718575b3390f115610329577fe0b83a7ace6940b32786e135a0f683a7116b66197efae9ef2d738880e1d93a9c6020604051338152a1005b506108fc6106e4565b6001600160ff1b038216820361075b5760005260206000209060011b8101905b818110156106d45760008082556001820155600201610741565b634e487b7160e01b600052601160045260246000fd5b925050506060813d6060116107ba575b8161078e60609383610ab9565b810103126101355780516020820151916001600160a01b03831683036101355760400151919083610695565b3d9150610781565b9193979650919394601f19828203018352875180519081835260005b82811061081457505060208083836000838096600198010152601f80199101160101990193019401919290938896979594610650565b806020809284010151828287010152016107de565b8251151585528997506020948501949092019160010161061d565b82518552899750602094850194909201916001016105f5565b825486526001808401546020880152899750604090960195600290930192016105c3565b909192939495601f198282030183528635601e19873603018112156101355767ffffffffffffffff8782013511610135578681013536036020888301011361013557868101803580845260019360209384938493908401838501376000838c83013584010152601f8b8119920135011601019801930193019194939290610546565b90919460208060019261091889989798610af3565b1515815201969495940192910161051c565b813567ffffffffffffffff81116101355736601f828a010112156101355767ffffffffffffffff818901351161022f576040519161097589830135601f01601f191660200184610ab9565b88820180358085523691016020011161013557602092600084848c82828198830135920101838601378c0135830101528152019101906104c2565b602080916109bd84610af3565b815201910190610483565b8135815260209182019101610447565b34610135576040366003190112610135576109f1610a33565b6024359060018060a01b031660005260006020526040600020805482101561013557604091610a1f91610a49565b506001815491015482519182526020820152f35b600435906001600160a01b038216820361013557565b8054821015610a655760005260206000209060011b0190600090565b634e487b7160e01b600052603260045260246000fd5b9181601f840112156101355782359167ffffffffffffffff8311610135576020808501948460051b01011161013557565b9190820180921161075b57565b90601f8019910116810190811067ffffffffffffffff82111761022f57604052565b67ffffffffffffffff811161022f5760051b60200190565b359081151582036101355756fea2646970667358221220c64a2b23d15945967012c652700914189df523dbb3e6f9ee70e90623970ff7c264736f6c63430008120033","linkReferences":{"src/contracts/pro/pro2/BlindAuctionLib.sol":{"BlindAuctionLib":[{"start":1686,"length":20}]}}},"methodIdentifiers":{"auctionEnd()":"2a24f46c","beneficiary()":"38af3eed","bid(bytes32)":"957bb1e0","bidEndTime()":"4ba9a927","bids(address,uint256)":"01495c1c","highestBid()":"d57bde79","highestBidder()":"91f90157","init(uint256,uint256,address)":"f3251e1e","pendingReturns(address)":"26b387bb","reveal(uint256[],bool[],string[])":"1c8ac1cb","revealEndTime()":"d49dc1d8"},"id":46}