{"abi":[{"type":"function","name":"auctionEndTime","inputs":[],"outputs":[{"name":"","type":"uint256","internalType":"uint256"}],"stateMutability":"view"},{"type":"function","name":"beneficiary","inputs":[],"outputs":[{"name":"","type":"address","internalType":"address payable"}],"stateMutability":"view"},{"type":"function","name":"highestBid","inputs":[],"outputs":[{"name":"","type":"uint256","internalType":"uint256"}],"stateMutability":"view"},{"type":"function","name":"highestBidder","inputs":[],"outputs":[{"name":"","type":"address","internalType":"address"}],"stateMutability":"view"},{"type":"function","name":"pendingReturns","inputs":[{"name":"","type":"address","internalType":"address"}],"outputs":[{"name":"","type":"uint256","internalType":"uint256"}],"stateMutability":"view"}],"bytecode":{"object":"0x60808060405234610023576000805460ff60a01b1916905561015e90816100298239f35b600080fdfe60806040818152600436101561001457600080fd5b600091823560e01c90816326b387bb146100e75750806338af3eed146100c05780634b449cba146100a257806391f901571461007a5763d57bde791461005957600080fd5b346100765781600319360112610076576020906003549051908152f35b5080fd5b503461007657816003193601126100765760025490516001600160a01b039091168152602090f35b50346100765781600319360112610076576020906001549051908152f35b5034610076578160031936011261007657905490516001600160a01b039091168152602090f35b91905034610124576020366003190112610124576004356001600160a01b03811690819003610120579260209381526004845220548152f35b8380fd5b8280fdfea26469706673582212200905297b85bd52f590eef068a38b9d7a7760befed0d090d75f3f39d1e63fc97064736f6c63430008120033","linkReferences":{}},"methodIdentifiers":{"auctionEndTime()":"4b449cba","beneficiary()":"38af3eed","highestBid()":"d57bde79","highestBidder()":"91f90157","pendingReturns(address)":"26b387bb"},"id":78}