{"abi":[{"type":"function","name":"auctionEnd","inputs":[],"outputs":[],"stateMutability":"nonpayable"},{"type":"function","name":"bid","inputs":[],"outputs":[],"stateMutability":"payable"},{"type":"function","name":"getImplementation","inputs":[],"outputs":[{"name":"impl","type":"address","internalType":"address"}],"stateMutability":"view"},{"type":"function","name":"getImplementationPosition","inputs":[],"outputs":[{"name":"implementationPosition","type":"bytes32","internalType":"bytes32"}],"stateMutability":"pure"},{"type":"function","name":"getOwnerAddress","inputs":[],"outputs":[{"name":"ownerAddress","type":"address","internalType":"address"}],"stateMutability":"view"},{"type":"function","name":"getOwnerPosition","inputs":[],"outputs":[{"name":"ownerPosition","type":"bytes32","internalType":"bytes32"}],"stateMutability":"pure"},{"type":"function","name":"init","inputs":[{"name":"biddingTime","type":"uint256","internalType":"uint256"},{"name":"beneficiaryAddress","type":"address","internalType":"address payable"}],"outputs":[],"stateMutability":"nonpayable"},{"type":"function","name":"setOwnership","inputs":[{"name":"_newOwner","type":"address","internalType":"address"}],"outputs":[],"stateMutability":"nonpayable"},{"type":"function","name":"upgradeTo","inputs":[{"name":"newImplementation","type":"address","internalType":"address"}],"outputs":[],"stateMutability":"nonpayable"},{"type":"function","name":"withdraw","inputs":[],"outputs":[],"stateMutability":"nonpayable"}],"bytecode":{"object":"0x608080604052346100165761066b908161001c8239f35b600080fdfe608060408181526004918236101561001657600080fd5b600092833560e01c9182630a891cee146104b3575081630c4f65bd1461047d578382631998aeef1461043e5782632a24f46c146103fa575081633659cfe614610399578382633ccfd60b1461034657508163a7016023146102e8578163aaf10f42146102b2578163b792e6ec146100c2575063fc6af6971461009757600080fd5b346100be57816003193601126100be57602090516000805160206105f68339815191528152f35b5080fd5b9050346102ae57816003193601126102ae576001600160a01b0390602435828116908190036102aa576000805160206105f6833981519152938385541680610299575b5080519067ffffffffffffffff906060830182811184821017610286578152602383526020927f3d3d3d3d3d3d3d3d3d3d3d3d3d3d3d3d62656e65666963696172794164647265848201526239b99d60e91b828201528882518581019263319af33360e01b845284602483015280519081606484015287845b83811061026e57505050906101b6608482848683819997840101528b6044830152601f80199101168101036064810184520182610551565b51906a636f6e736f6c652e6c6f675afa506000805160206106168339815191525494815193840194632de4b9bb60e21b86528135602486015260448501526044845260808401928484109084111761025b5750525161022a9286928392915af461021e610573565b81610251575b506105b3565b81541680610240575b5033156100be5733905580f35b61024b9033146104db565b38610233565b9050511538610224565b634e487b7160e01b895260419052602488fd5b828101820151858201608401528e955089910161017e565b634e487b7160e01b895260418652602489fd5b6102a49033146104db565b38610105565b8480fd5b8280fd5b5050346100be57816003193601126100be576000805160206106168339815191525490516001600160a01b039091168152602090f35b8390346100be5760203660031901126100be57356001600160a01b03808216808303610342576000805160206105f68339815191529182541680610331575b50156102ae575580f35b61033c9033146104db565b84610327565b8380fd5b9150346100be57816003193601126100be576103969282916000805160206106168339815191525491516020810191633ccfd60b60e01b8352815261038a8161051f565b51915af461021e610573565b80f35b8390346100be5760203660031901126100be57356001600160a01b0380821682036102ae576000805160206105f68339815191525416806103e9575b506000805160206106168339815191525580f35b6103f49033146104db565b826103d5565b9150346100be57816003193601126100be576103969282916000805160206106168339815191525491516020810191630a893d1b60e21b8352815261038a8161051f565b8092506003193601126100be576103969282916000805160206106168339815191525491516020810191631998aeef60e01b8352815261038a8161051f565b5050346100be57816003193601126100be576000805160206105f68339815191525490516001600160a01b039091168152602090f35b8490346100be57816003193601126100be578060008051602061061683398151915260209252f35b156104e257565b60405162461bcd60e51b81526020600482015260156024820152743737ba1037bbb732b913b99037b832b930ba34b7b760591b6044820152606490fd5b6040810190811067ffffffffffffffff82111761053b57604052565b634e487b7160e01b600052604160045260246000fd5b90601f8019910116810190811067ffffffffffffffff82111761053b57604052565b3d156105ae573d9067ffffffffffffffff821161053b57604051916105a2601f8201601f191660200184610551565b82523d6000602084013e565b606090565b156105ba57565b60405162461bcd60e51b815260206004820152601360248201527219195b1959d85d1958d85b1b0819985a5b1959606a1b6044820152606490fdfe3ab6f526091d83c7f608550777c84774384a084c2342172c3693bc68bb521cfa74dbd92bcb8b748651fcc6c5c07d05f1b315db21298fc350f01fa00aad896fa2a2646970667358221220ef4e688edd9294f779e0ca13481d24c1df9cddd5815183d2234005dbe10093a264736f6c63430008120033","linkReferences":{}},"methodIdentifiers":{"auctionEnd()":"2a24f46c","bid()":"1998aeef","getImplementation()":"aaf10f42","getImplementationPosition()":"0a891cee","getOwnerAddress()":"0c4f65bd","getOwnerPosition()":"fc6af697","init(uint256,address)":"b792e6ec","setOwnership(address)":"a7016023","upgradeTo(address)":"3659cfe6","withdraw()":"3ccfd60b"},"id":51}