{"abi":[{"type":"receive","stateMutability":"payable"},{"type":"function","name":"donations","inputs":[{"name":"","type":"uint256","internalType":"uint256"}],"outputs":[{"name":"donor","type":"address","internalType":"address"},{"name":"amount","type":"uint256","internalType":"uint256"},{"name":"timestamp","type":"uint256","internalType":"uint256"}],"stateMutability":"view"}],"bytecode":{"object":"0x6080806040523461001657610225908161001c8239f35b600080fdfe60406080815260049081361015610134575b361561001c57600080fd5b34156100e2578051906060820182811067ffffffffffffffff8211176100cd57815233825260208201903482528201904282526000928354680100000000000000008110156100ba57806001610074920186556101a1565b9490946100a857505183546001600160a01b0319166001600160a01b03919091161783555160018301555160029190910155005b634e487b7160e01b8152808652602490fd5b634e487b7160e01b855260418652602485fd5b604184634e487b7160e01b6000525260246000fd5b906020608492519162461bcd60e51b8352820152602660248201527f446f6e6174696f6e20616d6f756e74206d75737420626520677265617465722060448201526507468616e20360d41b6064820152fd5b6000803560e01c63f8626af81461014b5750610011565b913461019d57602036600319011261019d573591805483101561019a57506101746060926101a1565b5060018060a01b0381541691600260018301549201549181519384526020840152820152f35b80fd5b8280fd5b9060009182548110156101db57600390838052027f290decd9548b62a8d60345a988386fc84ba6bc95484008f6362f93160ef3e563019190565b634e487b7160e01b83526032600452602483fdfea2646970667358221220be3697bf4fc2de0a5ca6ba35d5ebaa45701623921a0b4f959d4947b822bdd3cf64736f6c63430008120033","linkReferences":{}},"methodIdentifiers":{"donations(uint256)":"f8626af8"},"id":98}