{"abi":[{"type":"function","name":"bid","inputs":[],"outputs":[],"stateMutability":"payable"},{"type":"function","name":"highestBid","inputs":[],"outputs":[{"name":"","type":"uint256","internalType":"uint256"}],"stateMutability":"view"},{"type":"function","name":"highestBidder","inputs":[],"outputs":[{"name":"","type":"address","internalType":"address"}],"stateMutability":"view"},{"type":"function","name":"pendingReturns","inputs":[{"name":"","type":"address","internalType":"address"}],"outputs":[{"name":"","type":"uint256","internalType":"uint256"}],"stateMutability":"view"},{"type":"error","name":"BidNotHighEnough","inputs":[{"name":"highestBid","type":"uint256","internalType":"uint256"}]}],"bytecode":{"object":"0x6080806040523461001657610196908161001c8239f35b600080fdfe60806040818152600436101561001457600080fd5b600091823560e01c9081631998aeef146100d55750806326b387bb1461009657806391f901571461006f5763d57bde791461004e57600080fd5b3461006b578160031936011261006b576020906001549051908152f35b5080fd5b503461006b578160031936011261006b57905490516001600160a01b039091168152602090f35b503461006b57602036600319011261006b576004356001600160a01b038116908190036100d157828291602094526002845220549051908152f35b8280fd5b919050826003193601126100d157600154918234111561014a57508161010e575b82546001600160a01b03191633178355346001558280f35b82546001600160a01b03168352600260205282208054918201918210610136575538806100f6565b634e487b7160e01b83526011600452602483fd5b634e12c1bb60e01b815260048101839052602490fdfea26469706673582212208102b72dcd40160670d2641f336a0341f678c069ea945fb83d79e0bab901113a64736f6c63430008120033","linkReferences":{}},"methodIdentifiers":{"bid()":"1998aeef","highestBid()":"d57bde79","highestBidder()":"91f90157","pendingReturns(address)":"26b387bb"},"id":31}