{"abi":[{"type":"function","name":"auctionEndTime","inputs":[],"outputs":[{"name":"","type":"uint256","internalType":"uint256"}],"stateMutability":"view"},{"type":"function","name":"auctioneers","inputs":[{"name":"","type":"uint256","internalType":"uint256"}],"outputs":[{"name":"","type":"address","internalType":"address"}],"stateMutability":"view"},{"type":"function","name":"beneficiary","inputs":[],"outputs":[{"name":"","type":"address","internalType":"address payable"}],"stateMutability":"view"},{"type":"function","name":"highestBid","inputs":[],"outputs":[{"name":"","type":"uint256","internalType":"uint256"}],"stateMutability":"view"},{"type":"function","name":"highestBidder","inputs":[],"outputs":[{"name":"","type":"address","internalType":"address"}],"stateMutability":"view"},{"type":"function","name":"myApeAddress","inputs":[],"outputs":[{"name":"","type":"address","internalType":"address"}],"stateMutability":"view"},{"type":"function","name":"pendingReturns","inputs":[{"name":"","type":"address","internalType":"address"}],"outputs":[{"name":"","type":"uint256","internalType":"uint256"}],"stateMutability":"view"},{"type":"function","name":"pointAddress","inputs":[],"outputs":[{"name":"","type":"address","internalType":"address"}],"stateMutability":"view"},{"type":"function","name":"tokenId","inputs":[],"outputs":[{"name":"","type":"uint256","internalType":"uint256"}],"stateMutability":"view"}],"bytecode":{"object":"0x60808060405234610023576000805460ff60a01b1916905561024c90816100298239f35b600080fdfe60806040818152600436101561001457600080fd5b600091823560e01c90816317d70f7c146101fa5750806326b387bb146101bf57806338af3eed146101985780633a0c4f80146101705780634b449cba1461015257806355447a381461012a57806391f9015714610102578063c3b7b136146100a65763d57bde791461008557600080fd5b346100a257816003193601126100a2576020906005549051908152f35b5080fd5b50346100a25760203660031901126100a2576004356009548110156100fe5760096020935260018060a01b03907f6e1540171b6c0c960b71a7020d9f60077f6af931a8bbf590da0223dacf75c7af0154169051908152f35b8280fd5b50346100a257816003193601126100a25760045490516001600160a01b039091168152602090f35b50346100a257816003193601126100a25760075490516001600160a01b039091168152602090f35b50346100a257816003193601126100a2576020906003549051908152f35b50346100a257816003193601126100a25760065490516001600160a01b039091168152602090f35b50346100a257816003193601126100a257905490516001600160a01b039091168152602090f35b50346100a25760203660031901126100a2576004356001600160a01b038116908190036100fe57828291602094526001845220549051908152f35b8390346100a257816003193601126100a2576020906008548152f3fea264697066735822122071ab8b3205f5892f4b62f38fbe66d572d7e76e8577499768214640d256deb15264736f6c63430008120033","linkReferences":{}},"methodIdentifiers":{"auctionEndTime()":"4b449cba","auctioneers(uint256)":"c3b7b136","beneficiary()":"38af3eed","highestBid()":"d57bde79","highestBidder()":"91f90157","myApeAddress()":"55447a38","pendingReturns(address)":"26b387bb","pointAddress()":"3a0c4f80","tokenId()":"17d70f7c"},"id":122}