{"abi":[{"type":"function","name":"auctionEnd","inputs":[],"outputs":[],"stateMutability":"nonpayable"},{"type":"function","name":"auctionEndTime","inputs":[],"outputs":[{"name":"","type":"uint256","internalType":"uint256"}],"stateMutability":"view"},{"type":"function","name":"beneficiary","inputs":[],"outputs":[{"name":"","type":"address","internalType":"address payable"}],"stateMutability":"view"},{"type":"function","name":"bid","inputs":[],"outputs":[],"stateMutability":"payable"},{"type":"function","name":"highestBid","inputs":[],"outputs":[{"name":"","type":"uint256","internalType":"uint256"}],"stateMutability":"view"},{"type":"function","name":"highestBidder","inputs":[],"outputs":[{"name":"","type":"address","internalType":"address"}],"stateMutability":"view"},{"type":"function","name":"init","inputs":[{"name":"biddingTime","type":"uint256","internalType":"uint256"},{"name":"beneficiaryAddress","type":"address","internalType":"address payable"}],"outputs":[],"stateMutability":"nonpayable"},{"type":"function","name":"pendingReturns","inputs":[{"name":"","type":"address","internalType":"address"}],"outputs":[{"name":"","type":"uint256","internalType":"uint256"}],"stateMutability":"view"},{"type":"function","name":"withdraw","inputs":[],"outputs":[],"stateMutability":"nonpayable"},{"type":"event","name":"AuctionEnded","inputs":[],"anonymous":false},{"type":"event","name":"RevealDetail","inputs":[{"name":"values","type":"uint256[]","indexed":false,"internalType":"uint256[]"},{"name":"fakes","type":"bool[]","indexed":false,"internalType":"bool[]"},{"name":"secrets","type":"string[]","indexed":false,"internalType":"string[]"}],"anonymous":false},{"type":"event","name":"SomeoneBid","inputs":[{"name":"bidder","type":"address","indexed":false,"internalType":"address"}],"anonymous":false},{"type":"event","name":"SomeoneReveal","inputs":[{"name":"bidder","type":"address","indexed":false,"internalType":"address"}],"anonymous":false},{"type":"error","name":"AuctionEndAlreadyCalled","inputs":[]},{"type":"error","name":"BidNotHighEnough","inputs":[{"name":"highestBid","type":"uint256","internalType":"uint256"}]},{"type":"error","name":"OnlyCanBeCallAfterThisTime","inputs":[]},{"type":"error","name":"OnlyCanBeCallBeforeThisTime","inputs":[]}],"bytecode":{"object":"0x60808060405234610023576000805460ff60a01b1916905561045390816100298239f35b600080fdfe608060408181526004918236101561001657600080fd5b600092833560e01c9182631998aeef146103825750816326b387bb146103485781632a24f46c1461020e57816338af3eed146101e65781633ccfd60b146101885781634b449cba1461016957816391f9015714610140578163b792e6ec146100a9575063d57bde791461008857600080fd5b346100a557816003193601126100a5576020906003549051908152f35b5080fd5b90503461013c578160031936011261013c576024356001600160a01b03811691908290036101385783549260ff8460a01c1661010657506100eb9035426103fa565b6001556001600160a81b031990911617600160a01b17815580f35b906020606492519162461bcd60e51b8352820152600c60248201526b105b1c9958591e481a5b9a5d60a21b6044820152fd5b8380fd5b8280fd5b5050346100a557816003193601126100a55760025490516001600160a01b039091168152602090f35b5050346100a557816003193601126100a5576020906001549051908152f35b90503461013c578260031936011261013c573383526020528181812080549081159081156101b4578380f35b839283928380935582906101dd575b3390f1156101d357818180808380f35b51903d90823e3d90fd5b506108fc6101c3565b5050346100a557816003193601126100a557905490516001600160a01b039091168152602090f35b9190503461013c578260031936011261013c57825460ff8160a81c1661033a5760ff60a81b198116600160a81b1784556003548491829182918291906001600160a01b03165af13d156103335767ffffffffffffffff3d81811161032057835191601f8201601f19908116603f011683019081118382101761030d57845281523d85602083013e5b81610303575b50156102ca57827fa0e92984607195c326795751263414ee1074526323552e694c90ef2b99ae3f298180a180f35b906020606492519162461bcd60e51b835282015260136024820152721d1c985b9cd9995c881155120819985a5b1959606a1b6044820152fd5b905051153861029c565b634e487b7160e01b875260418652602487fd5b634e487b7160e01b865260418552602486fd5b6060610296565b5051630c39fb9f60e31b8152fd5b90503461013c57602036600319011261013c5780356001600160a01b03811690819003610138579282916020948252845220549051908152f35b849184836003193601126101385760035492833411156103e55750826103bd575b600280546001600160a01b03191633179055346003558380f35b6103db9160018060a01b0360025416855260205283209182546103fa565b90558180806103a3565b634e12c1bb60e01b8152828101849052602490fd5b9190820180921161040757565b634e487b7160e01b600052601160045260246000fdfea2646970667358221220ba2b81609cb3a3f15f8232a3d193ebd2ea6ae3e63784a046d969375b18cd1d4564736f6c63430008120033","linkReferences":{}},"methodIdentifiers":{"auctionEnd()":"2a24f46c","auctionEndTime()":"4b449cba","beneficiary()":"38af3eed","bid()":"1998aeef","highestBid()":"d57bde79","highestBidder()":"91f90157","init(uint256,address)":"b792e6ec","pendingReturns(address)":"26b387bb","withdraw()":"3ccfd60b"},"id":92}