{"abi":[{"type":"constructor","inputs":[{"name":"_blindAuctionImpl","type":"address","internalType":"address"},{"name":"_openAuctionImpl","type":"address","internalType":"address"}],"stateMutability":"nonpayable"},{"type":"function","name":"allAuctions","inputs":[{"name":"","type":"uint256","internalType":"uint256"}],"outputs":[{"name":"auctionType","type":"uint8","internalType":"enum AuctionFactory.AuctionType"},{"name":"auctionAddress","type":"address","internalType":"address"}],"stateMutability":"view"},{"type":"function","name":"allAuctionsLength","inputs":[],"outputs":[{"name":"","type":"uint256","internalType":"uint256"}],"stateMutability":"view"},{"type":"function","name":"blindAuctionImpl","inputs":[],"outputs":[{"name":"","type":"address","internalType":"address"}],"stateMutability":"view"},{"type":"function","name":"createAuctions","inputs":[{"name":"_auctionType","type":"uint8","internalType":"enum AuctionFactory.AuctionType"}],"outputs":[{"name":"auctionAddress","type":"address","internalType":"address"}],"stateMutability":"nonpayable"},{"type":"function","name":"emergencyFlag","inputs":[],"outputs":[{"name":"","type":"bool","internalType":"bool"}],"stateMutability":"view"},{"type":"function","name":"getOwnerAddress","inputs":[],"outputs":[{"name":"ownerAddress","type":"address","internalType":"address"}],"stateMutability":"view"},{"type":"function","name":"getOwnerPosition","inputs":[],"outputs":[{"name":"ownerPosition","type":"bytes32","internalType":"bytes32"}],"stateMutability":"pure"},{"type":"function","name":"openAuctionImpl","inputs":[],"outputs":[{"name":"","type":"address","internalType":"address"}],"stateMutability":"view"},{"type":"function","name":"setNewBlindAuctionImpl","inputs":[{"name":"_newBlindAuctionImpl","type":"address","internalType":"address"}],"outputs":[],"stateMutability":"nonpayable"},{"type":"function","name":"setNewOpenAuctionImpl","inputs":[{"name":"_newOpenAuctionImpl","type":"address","internalType":"address"}],"outputs":[],"stateMutability":"nonpayable"},{"type":"function","name":"setOwnership","inputs":[{"name":"_newOwner","type":"address","internalType":"address"}],"outputs":[],"stateMutability":"nonpayable"},{"type":"function","name":"userAuctions","inputs":[{"name":"","type":"address","internalType":"address"},{"name":"","type":"uint256","internalType":"uint256"}],"outputs":[{"name":"auctionType","type":"uint8","internalType":"enum AuctionFactory.AuctionType"},{"name":"auctionAddress","type":"address","internalType":"address"}],"stateMutability":"view"},{"type":"event","name":"AuctionCreated","inputs":[{"name":"_newAuctionAddr","type":"address","indexed":true,"internalType":"address"},{"name":"_creator","type":"address","indexed":true,"internalType":"address"},{"name":"_auctionType","type":"uint8","indexed":false,"internalType":"enum AuctionFactory.AuctionType"}],"anonymous":false}],"bytecode":{"object":"0x6080346100c657601f6117ab38819003918201601f19168301916001600160401b0383118484101761011c5780849260409485528339810103126100c657610052602061004b83610132565b9201610132565b600280546001600160a01b03199081166001600160a01b0394851617909155600380549091169183169190911790557f89b36b3c62a6d3d8fd267aacf951169736f972af4f069e0cf229787bcae325968054909116806100cb575b5033156100c65733905560405161166490816101478239f35b600080fd5b33036100d757386100ad565b60405162461bcd60e51b815260206004820152601560248201527f6e6f74206f776e65722773206f7065726174696f6e00000000000000000000006044820152606490fd5b634e487b7160e01b600052604160045260246000fd5b51906001600160a01b03821682036100c65756fe608060408181526004918236101561001657600080fd5b600092833560e01c9182630c4f65bd1461078d57508163165c58811461072a5781633b2807e8146107015781634077503a146106e25781635aa64f3c146106b9578163797b9ad31461035f5781637cf0bf6214610291578163a701602314610238578163b4007cda14610211578163b4fbe80a146101a7578163c6c8201b146100d4575063fc6af697146100a957600080fd5b346100d057816003193601126100d0576020905160008051602061160f8339815191528152f35b5080fd5b9050346101a35760203660031901126101a3576100ef610832565b60008051602061160f833981519152546001600160a01b039190821680610192575b50169182156101375750506bffffffffffffffffffffffff60a01b600254161760025580f35b906020608492519162461bcd60e51b8352820152602f60248201527f546865206e657720426c696e6441756374696f6e496d706c206164647265737360448201526e02063616e6e6f74206265203078303608c1b6064820152fd5b61019d903314610877565b38610111565b8280fd5b82843461020e578160031936011261020e576101c1610832565b6001600160a01b0390811682526020829052828220805491926024359283101561020e5750926101f661020a9260ff956107bf565b505490519384938260081c16911683610810565b0390f35b80fd5b5050346100d057816003193601126100d05760209060ff60035460a01c1690519015158152f35b833461020e57602036600319011261020e57610252610832565b60008051602061160f83398151915280546001600160a01b0390811680610280575b508216156101a3575580f35b61028b903314610877565b84610274565b9050346101a35760203660031901126101a3576102ac610832565b60008051602061160f833981519152546001600160a01b03919082168061034e575b50169182156102f45750506bffffffffffffffffffffffff60a01b600354161760035580f35b906020608492519162461bcd60e51b8352820152602e60248201527f546865206e6577204f70656e41756374696f6e496d706c20616464726573732060448201526d063616e6e6f7420626520307830360941b6064820152fd5b610359903314610877565b386102ce565b919050346101a3576020928360031936011261020e57823590600282101561020e5760ff60035460a01c1661068357816105a75782516107c58082019082821067ffffffffffffffff831117610594579082916108bc8339039082f08015610588576002546001600160a01b039182169116813b156101a357845190631b2ce7f360e11b825286820152828160248183865af1801561056a57908391610574575b5050803b156100d057835163a701602360e01b81523386820152828160248183865af1801561056a57908391610556575b5050935b3382528186528382209484519285840184811067ffffffffffffffff8211176105415786528484528784019160018060a01b0316968783528054906801000000000000000082101561052e5790610491916001820181556107bf565b94909461051c575192600284101561050957505082549051610100600160a81b0360089190911b1660ff929092166001600160a81b0319909116171790558151906104dd9082906107ed565b827f2b75e87ec8b0882be05b7b3d13d20ef1e8584c4a4705511bb6fb5280ae55913f853393a351908152f35b634e487b7160e01b825260219052602490fd5b634e487b7160e01b8252818452602482fd5b634e487b7160e01b835260418552602483fd5b604184634e487b7160e01b6000525260246000fd5b61055f9061084d565b6100d0578138610431565b85513d85823e3d90fd5b61057d9061084d565b6100d0578138610400565b508251903d90823e3d90fd5b634e487b7160e01b845260418752602484fd5b825161058e8082019082821067ffffffffffffffff831117610594579082916110818339039082f0908115610678576003546001600160a01b039283169216823b156100d057845190631b2ce7f360e11b825286820152818160248183875af1801561066e5761065f575b5090803b156100d057835163a701602360e01b81523386820152828160248183865af1801561056a5790839161064b575b505093610435565b6106549061084d565b6100d0578138610643565b6106689061084d565b38610612565b85513d84823e3d90fd5b8351903d90823e3d90fd5b825162461bcd60e51b8152808501869052601060248201526f456d657267656e63792073746174757360801b6044820152606490fd5b5050346100d057816003193601126100d05760025490516001600160a01b039091168152602090f35b5050346100d057816003193601126100d0576020906001549051908152f35b5050346100d057816003193601126100d05760035490516001600160a01b039091168152602090f35b9050346101a35760203660031901126101a357356001548110156101a357600161020a93527fb10e2d527612073b26eecdfd717e6a320cf44b4afac2b0732d9fcbe2b7fa0cf60154905191829160ff60018060a01b038260081c16911683610810565b8490346100d057816003193601126100d05760008051602061160f833981519152546001600160a01b03168152602090f35b80548210156107d75760005260206000200190600090565b634e487b7160e01b600052603260045260246000fd5b9060028210156107fa5752565b634e487b7160e01b600052602160045260246000fd5b9092916020906108248360408101966107ed565b6001600160a01b0316910152565b600435906001600160a01b038216820361084857565b600080fd5b67ffffffffffffffff811161086157604052565b634e487b7160e01b600052604160045260246000fd5b1561087e57565b60405162461bcd60e51b81526020600482015260156024820152743737ba1037bbb732b913b99037b832b930ba34b7b760591b6044820152606490fdfe60808060405234610016576107a9908161001c8239f35b600080fdfe608060408181526004918236101561001657600080fd5b600092833560e01c9182630a891cee146105d7575081630c4f65bd146105a15781631c8ac1cb146103c65781632a24f46c146103605781633659cfe6146102ff578163957bb1e014610269578163a70160231461020b578163aaf10f42146101d5578163f3251e1e146100be575063fc6af6971461009357600080fd5b346100ba57816003193601126100ba57602090516000805160206107348339815191528152f35b5080fd5b9050346101d15760603660031901126101d1576001600160a01b0390604435828116908190036101cd576000805160206107348339815191529383855416806101bc575b50600080516020610754833981519152549281519160208301936379928f0f60e11b855282356024850152602435604485015260648401526064835260a083019183831067ffffffffffffffff8411176101a9575052516101789286928392915af461016c6106b1565b8161019f575b506106f1565b8154168061018e575b5033156100ba5733905580f35b610199903314610635565b38610181565b9050511538610172565b634e487b7160e01b895260419052602488fd5b6101c7903314610635565b38610102565b8480fd5b8280fd5b5050346100ba57816003193601126100ba576000805160206107548339815191525490516001600160a01b039091168152602090f35b8390346100ba5760203660031901126100ba57356001600160a01b03808216808303610265576000805160206107348339815191529182541680610254575b50156101d1575580f35b61025f903314610635565b8461024a565b8380fd5b838360203660031901126100ba57600080516020610754833981519152549080519360208501916304abdd8f60e51b83528135602487015260248652606086019186831067ffffffffffffffff8411176102ec57505283516102df9284928392915af46102d46106b1565b816102e257506106f1565b80f35b9050511583610172565b634e487b7160e01b865260419052602485fd5b8390346100ba5760203660031901126100ba57356001600160a01b0380821682036101d15760008051602061073483398151915254168061034f575b506000805160206107548339815191525580f35b61035a903314610635565b8261033b565b8383346100ba57816003193601126100ba5760008051602061075483398151915254908051936020850191630a893d1b60e21b83528186528086019186831067ffffffffffffffff8411176102ec57505283516102df9284928392915af46102d46106b1565b8383346100ba5760603660031901126100ba5767ffffffffffffffff8335818111610265576103f890369086016105ff565b9160243581811161059d5761041090369088016105ff565b92909660443583811161059957610429913691016105ff565b91906000805160206107548339815191525496519460209283870197631c8ac1cb60e01b89526060602489015280608489015260018060fb1b038111610595579060c49160059c97969594939c1b809160a48a013787018b60a4820160808a84030160448b015252019499895b818110610569575050889950602398979819868603016064870152828552818501828460051b8701019582958a935b8685106104f6575050896102df81808e8d8d6104ea818f03601f198101835282610679565b51915af46102d46106b1565b9091929394959697601f19808583030186528935601e1984360301811215610565578301888135910185821161056157813603811361056157838f93601f848d9681889796889760019b5287870137858286010152011601019a0195019501939695949291906104c5565b8e80fd5b8d80fd5b9091929394958b358015158091036105915781529a84019a8401959493929190600101610496565b8b80fd5b8a80fd5b8780fd5b8580fd5b5050346100ba57816003193601126100ba576000805160206107348339815191525490516001600160a01b039091168152602090f35b8490346100ba57816003193601126100ba578060008051602061075483398151915260209252f35b9181601f840112156106305782359167ffffffffffffffff8311610630576020808501948460051b01011161063057565b600080fd5b1561063c57565b60405162461bcd60e51b81526020600482015260156024820152743737ba1037bbb732b913b99037b832b930ba34b7b760591b6044820152606490fd5b90601f8019910116810190811067ffffffffffffffff82111761069b57604052565b634e487b7160e01b600052604160045260246000fd5b3d156106ec573d9067ffffffffffffffff821161069b57604051916106e0601f8201601f191660200184610679565b82523d6000602084013e565b606090565b156106f857565b60405162461bcd60e51b815260206004820152601360248201527219195b1959d85d1958d85b1b0819985a5b1959606a1b6044820152606490fdfeb57f0cf330bf7f95b43f3db6cc247b2fad54dff50060f4879a89bfae6af8bec9d8783a201dbe4630138646b6a4841a31f1af98dfb8abbb44d025578c324d7beda26469706673582212203a792cd0d39a7edfba822050b09426d4315f6e5b885888a97c8d01ed60890e9064736f6c634300081200336080806040523461001657610572908161001c8239f35b600080fdfe608060408181526004918236101561001657600080fd5b600092833560e01c9182630a891cee146103d1575081630c4f65bd1461039b578382631998aeef1461035c5782632a24f46c14610318575081633659cfe6146102b7578382633ccfd60b1461026457508163a701602314610206578163aaf10f42146101d0578163b792e6ec146100c2575063fc6af6971461009757600080fd5b346100be57816003193601126100be57602090516000805160206104fd8339815191528152f35b5080fd5b9050346101cc57816003193601126101cc576001600160a01b0390602435828116908190036101c8576000805160206104fd8339815191529383855416806101b7575b5060008051602061051d83398151915254928151916020830193632de4b9bb60e21b855282356024850152604484015260448352608083019183831067ffffffffffffffff8411176101a4575052516101739286928392915af461016761046f565b8161019a575b506104ba565b81541680610189575b5033156100be5733905580f35b6101949033146103f9565b3861017c565b905051153861016d565b634e487b7160e01b895260419052602488fd5b6101c29033146103f9565b38610105565b8480fd5b8280fd5b5050346100be57816003193601126100be5760008051602061051d8339815191525490516001600160a01b039091168152602090f35b8390346100be5760203660031901126100be57356001600160a01b03808216808303610260576000805160206104fd833981519152918254168061024f575b50156101cc575580f35b61025a9033146103f9565b84610245565b8380fd5b9150346100be57816003193601126100be576102b492829160008051602061051d8339815191525491516020810191633ccfd60b60e01b835281526102a88161043d565b51915af461016761046f565b80f35b8390346100be5760203660031901126100be57356001600160a01b0380821682036101cc576000805160206104fd833981519152541680610307575b5060008051602061051d8339815191525580f35b6103129033146103f9565b826102f3565b9150346100be57816003193601126100be576102b492829160008051602061051d8339815191525491516020810191630a893d1b60e21b835281526102a88161043d565b8092506003193601126100be576102b492829160008051602061051d8339815191525491516020810191631998aeef60e01b835281526102a88161043d565b5050346100be57816003193601126100be576000805160206104fd8339815191525490516001600160a01b039091168152602090f35b8490346100be57816003193601126100be578060008051602061051d83398151915260209252f35b1561040057565b60405162461bcd60e51b81526020600482015260156024820152743737ba1037bbb732b913b99037b832b930ba34b7b760591b6044820152606490fd5b6040810190811067ffffffffffffffff82111761045957604052565b634e487b7160e01b600052604160045260246000fd5b3d156104b55767ffffffffffffffff903d8281116104595760405192601f8201601f19908116603f01168401908111848210176104595760405282523d6000602084013e565b606090565b156104c157565b60405162461bcd60e51b815260206004820152601360248201527219195b1959d85d1958d85b1b0819985a5b1959606a1b6044820152606490fdfe3ab6f526091d83c7f608550777c84774384a084c2342172c3693bc68bb521cfa74dbd92bcb8b748651fcc6c5c07d05f1b315db21298fc350f01fa00aad896fa2a2646970667358221220b7c2d031a58d2d5e1c2fb0fcb49d6ae12e95b562f905e040aa20aaa853d59e3864736f6c6343000812003389b36b3c62a6d3d8fd267aacf951169736f972af4f069e0cf229787bcae32596a26469706673582212202c1963996f942b38be12139278c4beb2f85a3fd90dd9bfb79af53ca6c808b20b64736f6c63430008120033","linkReferences":{}},"methodIdentifiers":{"allAuctions(uint256)":"165c5881","allAuctionsLength()":"4077503a","blindAuctionImpl()":"5aa64f3c","createAuctions(uint8)":"797b9ad3","emergencyFlag()":"b4007cda","getOwnerAddress()":"0c4f65bd","getOwnerPosition()":"fc6af697","openAuctionImpl()":"3b2807e8","setNewBlindAuctionImpl(address)":"c6c8201b","setNewOpenAuctionImpl(address)":"7cf0bf62","setOwnership(address)":"a7016023","userAuctions(address,uint256)":"b4fbe80a"},"id":80}