{"abi":[{"type":"function","name":"reveal","inputs":[{"name":"blindInfo","type":"tuple[]","internalType":"struct BlindAuctionLib.Bid[]","components":[{"name":"blindedBid","type":"bytes32","internalType":"bytes32"},{"name":"deposit","type":"uint256","internalType":"uint256"}]},{"name":"bidReveals","type":"tuple","internalType":"struct BlindAuctionLib.BidReveal","components":[{"name":"values","type":"uint256[]","internalType":"uint256[]"},{"name":"fakes","type":"bool[]","internalType":"bool[]"},{"name":"secrets","type":"string[]","internalType":"string[]"}]},{"name":"highestBid","type":"uint256","internalType":"uint256"},{"name":"highestBidder","type":"address","internalType":"address"}],"outputs":[{"name":"lastHighestBid","type":"uint256","internalType":"uint256"},{"name":"lastHighestBidder","type":"address","internalType":"address"},{"name":"refund","type":"uint256","internalType":"uint256"}],"stateMutability":"view"},{"type":"error","name":"RevealMsgError","inputs":[{"name":"value","type":"uint256","internalType":"uint256"},{"name":"fake","type":"bool","internalType":"bool"},{"name":"secret","type":"string","internalType":"string"}]}],"bytecode":{"object":"0x6080806040523461001a5761045b9081610020823930815050f35b600080fdfe6080604052600436101561001257600080fd5b60003560e01c63c17320391461002757600080fd5b6003196080368201126103345767ffffffffffffffff60043511610334573660236004350112156103345767ffffffffffffffff6004356004013511610334573660246004356004013560061b600435010111610334576024359067ffffffffffffffff8211610334576060908236030112610334576064356001600160a01b038116810361033457604435906000906100c46004850180610365565b90506004356004013503610334576100e26024850185600401610365565b90506004356004013503610334576101006044850185600401610365565b905060043560040135036103345760005b6004356004013581106101405750604080519384526001600160a01b0391909116602084015282015260609150f35b60406023198260061b6004350136030112610334576040519283604081011067ffffffffffffffff60408601111761034f576040848101905260048035600684901b01602481013586526044013560208601526101ab9083906101a590890180610365565b906103bd565b356101c0836101a560248a018a600401610365565b358015158103610334576101da6044890189600401610365565b851015610339578460051b810135601e19823603018112156103345767ffffffffffffffff81830135116103345780820135360360208284010113610334576040519161023482820135601f01601f19166020018461039b565b80820180358085523691016020011161033457600091602091808201803590840186850137013583010152865160405160208101906102878161027986888a876103cd565b03601f19810183528261039b565b519020036103125750602086015183018093116102ca5781839682159215610303575b5050806102fa575b6102e0575b505060001981146102ca57600101610111565b634e487b7160e01b600052601160045260246000fd5b94509092503391508381039081116102ca579138806102b7565b508581116102b2565b602001511015905081386102aa565b60405163bb52ee7760e01b81529182916103309185600485016103cd565b0390fd5b600080fd5b634e487b7160e01b600052603260045260246000fd5b634e487b7160e01b600052604160045260246000fd5b903590601e1981360301821215610334570180359067ffffffffffffffff821161033457602001918160051b3603831361033457565b90601f8019910116810190811067ffffffffffffffff82111761034f57604052565b91908110156103395760051b0190565b9193929082526020931515848301526060604083015280519081606084015260005b82811061041157505060809293506000838284010152601f8019910116010190565b8181018601518482016080015285016103ef56fea2646970667358221220f9bf4b29d25a7e22eb25d2410c1c14244c42aca92eca658e777c34c93eb87f2f64736f6c63430008120033","linkReferences":{}},"methodIdentifiers":{"reveal(BlindAuctionLib.Bid[],BlindAuctionLib.BidReveal,uint256,address)":"c1732039"},"id":57}