{"abi":[{"type":"constructor","inputs":[{"name":"biddingTime","type":"uint256","internalType":"uint256"},{"name":"revealTime","type":"uint256","internalType":"uint256"},{"name":"beneficiaryAddress","type":"address","internalType":"address payable"}],"stateMutability":"nonpayable"},{"type":"function","name":"auctionEnd","inputs":[],"outputs":[],"stateMutability":"nonpayable"},{"type":"function","name":"beneficiary","inputs":[],"outputs":[{"name":"","type":"address","internalType":"address payable"}],"stateMutability":"view"},{"type":"function","name":"bid","inputs":[{"name":"blindedBid","type":"bytes32","internalType":"bytes32"}],"outputs":[],"stateMutability":"payable"},{"type":"function","name":"biddingEnd","inputs":[],"outputs":[{"name":"","type":"uint256","internalType":"uint256"}],"stateMutability":"view"},{"type":"function","name":"bids","inputs":[{"name":"","type":"address","internalType":"address"},{"name":"","type":"uint256","internalType":"uint256"}],"outputs":[{"name":"blindedBid","type":"bytes32","internalType":"bytes32"},{"name":"deposit","type":"uint256","internalType":"uint256"}],"stateMutability":"view"},{"type":"function","name":"ended","inputs":[],"outputs":[{"name":"","type":"bool","internalType":"bool"}],"stateMutability":"view"},{"type":"function","name":"highestBid","inputs":[],"outputs":[{"name":"","type":"uint256","internalType":"uint256"}],"stateMutability":"view"},{"type":"function","name":"highestBidder","inputs":[],"outputs":[{"name":"","type":"address","internalType":"address"}],"stateMutability":"view"},{"type":"function","name":"reveal","inputs":[{"name":"values","type":"uint256[]","internalType":"uint256[]"},{"name":"fakes","type":"bool[]","internalType":"bool[]"},{"name":"secrets","type":"string[]","internalType":"string[]"}],"outputs":[],"stateMutability":"nonpayable"},{"type":"function","name":"revealEnd","inputs":[],"outputs":[{"name":"","type":"uint256","internalType":"uint256"}],"stateMutability":"view"},{"type":"function","name":"withdraw","inputs":[],"outputs":[],"stateMutability":"nonpayable"},{"type":"event","name":"AuctionEnded","inputs":[{"name":"winner","type":"address","indexed":false,"internalType":"address"},{"name":"highestBid","type":"uint256","indexed":false,"internalType":"uint256"}],"anonymous":false},{"type":"error","name":"AuctionEndAlreadyCalled","inputs":[]},{"type":"error","name":"TooEarly","inputs":[{"name":"time","type":"uint256","internalType":"uint256"}]},{"type":"error","name":"TooLate","inputs":[{"name":"time","type":"uint256","internalType":"uint256"}]}],"bytecode":{"object":"0x60803461009757601f610aa538819003918201601f19168301916001600160401b0383118484101761009c57808492606094604052833981010312610097578051906040602082015191015160018060a01b03811680910361009757600080546001600160a01b03191690911790556100859161007c90426100b2565b806001556100b2565b6002556040516109cf90816100d68239f35b600080fd5b634e487b7160e01b600052604160045260246000fd5b919082018092116100bf57565b634e487b7160e01b600052601160045260246000fdfe6080604052600436101561001257600080fd5b60003560e01c806301495c1c1461071157806312fa6feb146106ee5780631c8ac1cb146102e55780632a24f46c1461024b57806338af3eed146102225780633ccfd60b146101c5578063423b217f146101a757806391f901571461017e578063957bb1e0146100d6578063a6e66477146100b85763d57bde791461009557600080fd5b346100b35760003660031901126100b3576020600654604051908152f35b600080fd5b346100b35760003660031901126100b3576020600254604051908152f35b60203660031901126100b35733600052600460205260406000206040516040810181811067ffffffffffffffff82111761016857604052600435815260208101913483528054680100000000000000008110156101685761013c91600182018155610771565b9290926101525760019151835551910155600080f35b634e487b7160e01b600052600060045260246000fd5b634e487b7160e01b600052604160045260246000fd5b346100b35760003660031901126100b3576005546040516001600160a01b039091168152602090f35b346100b35760003660031901126100b3576020600154604051908152f35b346100b35760003660031901126100b35733600052600760205260406000208054801580156101f057005b6000809392819392828094558290610219575b3390f11561020d57005b6040513d6000823e3d90fd5b506108fc610203565b346100b35760003660031901126100b3576000546040516001600160a01b039091168152602090f35b346100b35760003660031901126100b35760035460ff81166102d35760008080809360018060a01b0360018160055416927fdaec4582d5d9595688c8c98545fdd1c696d41c6aeaeb636737e84ed2f5c00eda6040600654958151908152866020820152a160ff1916176003558254168282156102ca575bf11561020d57005b506108fc6102c2565b604051630c39fb9f60e31b8152600490fd5b346100b35760603660031901126100b35760043567ffffffffffffffff81116100b35761031690369060040161078d565b60243567ffffffffffffffff81116100b35761033690369060040161078d565b929060443567ffffffffffffffff81116100b35761035890369060040161078d565b90336000526004602052604060002054958686036100b3578681036100b3578683036100b35760009560005b8881106103a25760008080808b818115610219573390f11561020d57005b3360005260046020526103b9816040600020610771565b506103c582848a6107fc565b356103d183868a6107fc565b3580151581036100b357878410156106d857601e19873603018460051b88013512156100b35767ffffffffffffffff8460051b880135880135116100b357600584901b8701358701803536036020909101136100b357604051610433816107be565b601781527f3d3d3d3d3d3d3d76616c75653d3d3d3d3d3d3d3d3d3d3d0000000000000000006020820152600080604051926020840190632d839cb360e21b82526040602486015282808661048c6064948583019061084e565b8a604483015203966104a6601f19988981018352826107da565b516a636f6e736f6c652e6c6f6794855afa506105116105256040516104ca816107be565b60168152753d3d3d3d3d3d3d66616b653d3d3d3d3d3d3d3d3d3d3d60501b6020820152604051928391602083019563c3b5563560e01b87526040602485015283019061084e565b8915156044830152038781018352826107da565b51915afa50604051610548602083601f8960051b8d01358d0135011601826107da565b600586901b89013589018035808352369101602001116100b35761059390600587901b8a01358a01803590602090810190830137600060208860051b8c01358c01358301015261088e565b83549061059f826108dd565b6105e3896040516105db816105cf8b6020808401968260051b8101358101359260051b81013501018a8c8861080c565b038581018352826107da565b5190206108dd565b60405160208082019261061891839061060c9060058c901b8f01358f0180359101898b8961080c565b039081018352826107da565b519020036106d05761065360405161062f816107be565b60128152713d3d3d3d3d3d3d3d3d3d3d3d3d3d3d3d3d3d60701b602082015261088e565b816106636001850154809d610841565b9b821592156106c5575b50506106a1575b50600090555b600019811461068b57600101610384565b634e487b7160e01b600052601160045260246000fd5b6106ab813361092c565b1561067457898181939b031161068b579003976000610674565b10159050818d61066d565b50505061067a565b634e487b7160e01b600052603260045260246000fd5b346100b35760003660031901126100b357602060ff600354166040519015158152f35b346100b35760403660031901126100b3576004356001600160a01b038116908190036100b357602435906000526004602052604060002080548210156100b35760409161075d91610771565b506001815491015482519182526020820152f35b80548210156106d85760005260206000209060011b0190600090565b9181601f840112156100b35782359167ffffffffffffffff83116100b3576020808501948460051b0101116100b357565b6040810190811067ffffffffffffffff82111761016857604052565b90601f8019910116810190811067ffffffffffffffff82111761016857604052565b91908110156106d85760051b0190565b9284926080959285521515602085015260606040850152816060850152848401376000828201840152601f01601f1916010190565b9190820180921161068b57565b919082519283825260005b84811061087a575050826000602080949584010152601f8019910116010190565b602081830181015184830182015201610859565b600080916040516108ca816108bc602082019463104c13eb60e21b865260206024840152604483019061084e565b03601f1981018352826107da565b51906a636f6e736f6c652e6c6f675afa50565b6040519060208201906327b7cf8560e01b8252602483015260248252606082019082821067ffffffffffffffff83111761016857600092839260405251906a636f6e736f6c652e6c6f675afa50565b6006549182811115610991576005546001600160a01b039390841680610970575b5050600655166bffffffffffffffffffffffff60a01b6005541617600555600190565b60005260076020526109886040600020918254610841565b9055388061094d565b50505060009056fea26469706673582212207374940cca31afd9865feb1dbdf0d9580f1f93783284973660d7626d6c95e05864736f6c63430008120033","linkReferences":{}},"methodIdentifiers":{"auctionEnd()":"2a24f46c","beneficiary()":"38af3eed","bid(bytes32)":"957bb1e0","biddingEnd()":"423b217f","bids(address,uint256)":"01495c1c","ended()":"12fa6feb","highestBid()":"d57bde79","highestBidder()":"91f90157","reveal(uint256[],bool[],string[])":"1c8ac1cb","revealEnd()":"a6e66477","withdraw()":"3ccfd60b"},"id":21}