{"abi":[{"type":"function","name":"auctionEnd","inputs":[],"outputs":[],"stateMutability":"nonpayable"},{"type":"function","name":"bid","inputs":[{"name":"_value","type":"bytes32","internalType":"bytes32"}],"outputs":[],"stateMutability":"payable"},{"type":"function","name":"getImplementation","inputs":[],"outputs":[{"name":"impl","type":"address","internalType":"address"}],"stateMutability":"view"},{"type":"function","name":"getOwnerAddress","inputs":[],"outputs":[{"name":"ownerAddress","type":"address","internalType":"address"}],"stateMutability":"view"},{"type":"function","name":"init","inputs":[{"name":"biddingTime","type":"uint256","internalType":"uint256"},{"name":"revealTime","type":"uint256","internalType":"uint256"},{"name":"beneficiaryAddress","type":"address","internalType":"address payable"}],"outputs":[],"stateMutability":"nonpayable"},{"type":"function","name":"reveal","inputs":[{"name":"values","type":"uint256[]","internalType":"uint256[]"},{"name":"fakes","type":"bool[]","internalType":"bool[]"},{"name":"secrets","type":"string[]","internalType":"string[]"}],"outputs":[],"stateMutability":"nonpayable"},{"type":"function","name":"upgradeTo","inputs":[{"name":"newImplementation","type":"address","internalType":"address"}],"outputs":[],"stateMutability":"nonpayable"}],"bytecode":{"object":"0x6080806040523461001657610899908161001c8239f35b600080fdfe608080604052600436101561001357600080fd5b60003560e01c9081630c4f65bd1461063e575080631c8ac1cb146103bf5780632a24f46c146102695780633659cfe6146101c1578063957bb1e014610157578063aaf10f42146101215763f3251e1e1461006c57600080fd5b3461011c57606036600319011261011c576044356001600160a01b0381169081900361011c57600080516020610844833981519152546040519060208201926379928f0f60e11b84526004356024840152602435604484015260648301526064825260a082019082821067ffffffffffffffff8311176101065761010493600093849360405251915af46100fe61070c565b5061073c565b005b634e487b7160e01b600052604160045260246000fd5b600080fd5b3461011c57600036600319011261011c57600080516020610844833981519152546040516001600160a01b039091168152602090f35b602036600319011261011c576000805160206108448339815191525460405160208101916304abdd8f60e51b8352600435602483015260248252606082019082821067ffffffffffffffff8311176101065761010493600093849360405251915af46100fe61070c565b3461011c57602036600319011261011c576004356001600160a01b03808216820361011c577fd1ec4ae9cd96f4fa507c4ba614fcfb533f3b9d48a1feb6e1dc2cd74839bd2322541680610222575b5060008051602061084483398151915255005b330361022e578161020f565b60405162461bcd60e51b81526020600482015260136024820152726e6f74206f776e65722773207570677261646560681b6044820152606490fd5b3461011c57600036600319011261011c57604051610286816106b2565b601281526102af602091712d2d2d2d2d2d2d2d2d2d2d2d2d2d2d2d2d2d60701b83820152610815565b6102df6102bb366106f0565b6102c860405191826106ce565b3681523660008483013760008336830101526107c6565b6103116040516102ee816106b2565b60128152713d3d3d3d3d3d3d3d3d3d3d3d3d3d3d3d3d3d60701b83820152610815565b60008060405161033a630a893d1b60e21b91828682015260048152610335816106b2565b6107c6565b600080516020610844833981519152549060405185810191825260048152610361816106b2565b51915af461036d61070c565b816103b5575b501561037b57005b6064906040519062461bcd60e51b82526004820152601360248201527219195b1959d85d1958d85b1b0819985a5b1959606a1b6044820152fd5b9050511582610373565b3461011c57606036600319011261011c5760043567ffffffffffffffff811161011c576103f0903690600401610681565b9060243567ffffffffffffffff811161011c57610411903690600401610681565b9060443567ffffffffffffffff811161011c57610432903690600401610681565b60008051602061084483398151915254604051631c8ac1cb60e01b6020820152606060248201526084810188905290969095929491926001600160fb1b03821161011c5760c49160059695961b809160a489013786018260a4820160808984030160448a0152520193906000905b80821061061857505050602319848403016064850152808352602083019060208160051b85010193836000915b8383106105a657600080898b6104ec828c03601f1981018452836106ce565b602082519201905af46104fd61070c565b901561050557005b61050e816107c6565b805181019060208181840193031261011c5760208101519067ffffffffffffffff821161011c57019080603f8301121561011c57602082015191610551836106f0565b9161055f60405193846106ce565b8383526040848301011161011c576105a29261058291604060208501910161077e565b60405162461bcd60e51b81526020600482015291829160248301906107a1565b0390fd5b909192939495601f198282030186528635601e198436030181121561011c578301906020823592019167ffffffffffffffff811161011c57803603831361011c576020828280600196849695859652848401376000828201840152601f01601f191601019801960194930191906104cd565b9091939484359081151580920361011c57908152602090810195940191600101906104a0565b3461011c57600036600319011261011c577fd1ec4ae9cd96f4fa507c4ba614fcfb533f3b9d48a1feb6e1dc2cd74839bd2322546001600160a01b03168152602090f35b9181601f8401121561011c5782359167ffffffffffffffff831161011c576020808501948460051b01011161011c57565b6040810190811067ffffffffffffffff82111761010657604052565b90601f8019910116810190811067ffffffffffffffff82111761010657604052565b67ffffffffffffffff811161010657601f01601f191660200190565b3d15610737573d9061071d826106f0565b9161072b60405193846106ce565b82523d6000602084013e565b606090565b1561074357565b60405162461bcd60e51b815260206004820152601360248201527211195b1959d85d1958d85b1b0819985a5b1959606a1b6044820152606490fd5b60005b8381106107915750506000910152565b8181015183820152602001610781565b906020916107ba8151809281855285808601910161077e565b601f01601f1916010190565b60008091604051610802816107f460208201946305f3bfab60e11b86526020602484015260448301906107a1565b03601f1981018352826106ce565b51906a636f6e736f6c652e6c6f675afa50565b60008091604051610802816107f4602082019463104c13eb60e21b86526020602484015260448301906107a156feb5bbfcafa0f541cb7145cc9b0599453d663bc6c7ccff4b67fa6e3adb2ec799b9a2646970667358221220b18f9873c26c4133522b204955c029912e14e440ea9380fc885b9f7a18f41dfc64736f6c63430008120033","linkReferences":{}},"methodIdentifiers":{"auctionEnd()":"2a24f46c","bid(bytes32)":"957bb1e0","getImplementation()":"aaf10f42","getOwnerAddress()":"0c4f65bd","init(uint256,uint256,address)":"f3251e1e","reveal(uint256[],bool[],string[])":"1c8ac1cb","upgradeTo(address)":"3659cfe6"},"id":44}