{"abi":[{"type":"function","name":"auctionEndTime","inputs":[],"outputs":[{"name":"","type":"uint256","internalType":"uint256"}],"stateMutability":"view"},{"type":"function","name":"auctioneers","inputs":[{"name":"","type":"uint256","internalType":"uint256"}],"outputs":[{"name":"","type":"address","internalType":"address"}],"stateMutability":"view"},{"type":"function","name":"beneficiary","inputs":[],"outputs":[{"name":"","type":"address","internalType":"address payable"}],"stateMutability":"view"},{"type":"function","name":"bids","inputs":[{"name":"","type":"address","internalType":"address"},{"name":"","type":"uint256","internalType":"uint256"}],"outputs":[{"name":"blindedBid","type":"bytes32","internalType":"bytes32"},{"name":"deposit","type":"uint256","internalType":"uint256"}],"stateMutability":"view"},{"type":"function","name":"highestBid","inputs":[],"outputs":[{"name":"","type":"uint256","internalType":"uint256"}],"stateMutability":"view"},{"type":"function","name":"highestBidder","inputs":[],"outputs":[{"name":"","type":"address","internalType":"address"}],"stateMutability":"view"},{"type":"function","name":"myApeAddress","inputs":[],"outputs":[{"name":"","type":"address","internalType":"address"}],"stateMutability":"view"},{"type":"function","name":"pendingReturns","inputs":[{"name":"","type":"address","internalType":"address"}],"outputs":[{"name":"","type":"uint256","internalType":"uint256"}],"stateMutability":"view"},{"type":"function","name":"pointAddress","inputs":[],"outputs":[{"name":"","type":"address","internalType":"address"}],"stateMutability":"view"},{"type":"function","name":"revealEndTime","inputs":[],"outputs":[{"name":"","type":"uint256","internalType":"uint256"}],"stateMutability":"view"},{"type":"function","name":"tokenId","inputs":[],"outputs":[{"name":"","type":"uint256","internalType":"uint256"}],"stateMutability":"view"}],"bytecode":{"object":"0x60808060405234610023576000805460ff60a01b191690556102f690816100298239f35b600080fdfe60806040818152600436101561001457600080fd5b600091823560e01c90816301495c1c146102485750806317d70f7c1461022a57806326b387bb146101f357806338af3eed146101cc5780633a0c4f80146101a45780634b449cba1461018657806355447a381461015e57806391f9015714610136578063c3b7b136146100da578063d49dc1d8146100bc5763d57bde791461009b57600080fd5b346100b857816003193601126100b8576020906005549051908152f35b5080fd5b50346100b857816003193601126100b857602090600b549051908152f35b50346100b85760203660031901126100b8576004356009548110156101325760096020935260018060a01b03907f6e1540171b6c0c960b71a7020d9f60077f6af931a8bbf590da0223dacf75c7af0154169051908152f35b8280fd5b50346100b857816003193601126100b85760045490516001600160a01b039091168152602090f35b50346100b857816003193601126100b85760075490516001600160a01b039091168152602090f35b50346100b857816003193601126100b8576020906003549051908152f35b50346100b857816003193601126100b85760065490516001600160a01b039091168152602090f35b50346100b857816003193601126100b857905490516001600160a01b039091168152602090f35b50346100b85760203660031901126100b85760209181906001600160a01b0361021a6102a5565b1681526001845220549051908152f35b50346100b857816003193601126100b8576020906008549051908152f35b905082346102a257826003193601126102a2576102636102a5565b6001600160a01b03168152600a60205282812080546024359291908310156100b857906020918152209060011b01600181549101549082526020820152f35b80fd5b600435906001600160a01b03821682036102bb57565b600080fdfea2646970667358221220f39b476d4753ac89f15a69425f45d0a2992da1ac2c1f9931820e2362eeb0d22c64736f6c63430008120033","linkReferences":{}},"methodIdentifiers":{"auctionEndTime()":"4b449cba","auctioneers(uint256)":"c3b7b136","beneficiary()":"38af3eed","bids(address,uint256)":"01495c1c","highestBid()":"d57bde79","highestBidder()":"91f90157","myApeAddress()":"55447a38","pendingReturns(address)":"26b387bb","pointAddress()":"3a0c4f80","revealEndTime()":"d49dc1d8","tokenId()":"17d70f7c"},"id":123}