{"abi":[{"type":"function","name":"auctionEnd","inputs":[],"outputs":[],"stateMutability":"nonpayable"},{"type":"function","name":"auctionEndTime","inputs":[],"outputs":[{"name":"","type":"uint256","internalType":"uint256"}],"stateMutability":"view"},{"type":"function","name":"auctioneers","inputs":[{"name":"","type":"uint256","internalType":"uint256"}],"outputs":[{"name":"","type":"address","internalType":"address"}],"stateMutability":"view"},{"type":"function","name":"beneficiary","inputs":[],"outputs":[{"name":"","type":"address","internalType":"address payable"}],"stateMutability":"view"},{"type":"function","name":"bid","inputs":[],"outputs":[],"stateMutability":"payable"},{"type":"function","name":"getImplementation","inputs":[],"outputs":[{"name":"impl","type":"address","internalType":"address"}],"stateMutability":"view"},{"type":"function","name":"getImplementationPosition","inputs":[],"outputs":[{"name":"implementationPosition","type":"bytes32","internalType":"bytes32"}],"stateMutability":"pure"},{"type":"function","name":"getOwnerAddress","inputs":[],"outputs":[{"name":"ownerAddress","type":"address","internalType":"address"}],"stateMutability":"view"},{"type":"function","name":"getOwnerPosition","inputs":[],"outputs":[{"name":"ownerPosition","type":"bytes32","internalType":"bytes32"}],"stateMutability":"pure"},{"type":"function","name":"highestBid","inputs":[],"outputs":[{"name":"","type":"uint256","internalType":"uint256"}],"stateMutability":"view"},{"type":"function","name":"highestBidder","inputs":[],"outputs":[{"name":"","type":"address","internalType":"address"}],"stateMutability":"view"},{"type":"function","name":"init","inputs":[{"name":"biddingTime","type":"uint256","internalType":"uint256"},{"name":"beneficiaryAddress","type":"address","internalType":"address payable"},{"name":"_pointAddress","type":"address","internalType":"address"},{"name":"_collectionAddress","type":"address","internalType":"address"},{"name":"_tokenId","type":"uint256","internalType":"uint256"}],"outputs":[],"stateMutability":"nonpayable"},{"type":"function","name":"myApeAddress","inputs":[],"outputs":[{"name":"","type":"address","internalType":"address"}],"stateMutability":"view"},{"type":"function","name":"pendingReturns","inputs":[{"name":"","type":"address","internalType":"address"}],"outputs":[{"name":"","type":"uint256","internalType":"uint256"}],"stateMutability":"view"},{"type":"function","name":"pointAddress","inputs":[],"outputs":[{"name":"","type":"address","internalType":"address"}],"stateMutability":"view"},{"type":"function","name":"setOwnership","inputs":[{"name":"_newOwner","type":"address","internalType":"address"}],"outputs":[],"stateMutability":"nonpayable"},{"type":"function","name":"tokenId","inputs":[],"outputs":[{"name":"","type":"uint256","internalType":"uint256"}],"stateMutability":"view"},{"type":"function","name":"upgradeTo","inputs":[{"name":"newImplementation","type":"address","internalType":"address"}],"outputs":[],"stateMutability":"nonpayable"},{"type":"function","name":"withdraw","inputs":[],"outputs":[],"stateMutability":"nonpayable"}],"bytecode":{"object":"0x60808060405234610023576000805460ff60a01b1916905561080c90816100298239f35b600080fdfe608060408181526004918236101561001657600080fd5b600092833560e01c9182630a891cee14610650575081630c4f65bd1461061a57816317d70f7c146105fb578382631998aeef146105bc5750816326b387bb146105845781632a24f46c146104e25781633659cfe61461048457816338af3eed1461045c5781633a0c4f8014610433578382633ccfd60b146103e0575081634b449cba146103c157816355447a381461039857816362ad08251461025857816391f9015714610230578163a7016023146101d4578163aaf10f421461019e578163c3b7b1361461014357508063d57bde79146101255763fc6af697146100fa57600080fd5b34610121578160031936011261012157602090516000805160206107978339815191528152f35b5080fd5b50346101215781600319360112610121576020906005549051908152f35b90503461019a57602036600319011261019a573560095481101561019a5760096020935260018060a01b03907f6e1540171b6c0c960b71a7020d9f60077f6af931a8bbf590da0223dacf75c7af0154169051908152f35b8280fd5b5050346101215781600319360112610121576000805160206107b78339815191525490516001600160a01b039091168152602090f35b833461022d57602036600319011261022d576101ee610678565b60008051602061079783398151915280546001600160a01b039081168061021c575b5082161561019a575580f35b610227903314610693565b84610210565b80fd5b90503461019a578260031936011261019a575490516001600160a01b03909116815260209150f35b90503461019a5760a036600319011261019a576001600160a01b03906024358281169081900361039457604435838116809103610390576064359284841680940361038c5760008051602061079783398151915295858754168061037b575b506000805160206107b7833981519152549481519360208501956362ad082560e01b87528435602487015260448601526064850152608484015260843560a484015260a4835260e083019183831067ffffffffffffffff841117610368575052516103379286928392915af461032b610709565b8161035e575b50610754565b8154168061034d575b5033156101215733905580f35b610358903314610693565b38610340565b9050511538610331565b634e487b7160e01b895260419052602488fd5b610386903314610693565b386102b7565b8680fd5b8580fd5b8480fd5b50503461012157816003193601126101215760075490516001600160a01b039091168152602090f35b5050346101215781600319360112610121576020906003549051908152f35b9150346101215781600319360112610121576104309282916000805160206107b78339815191525491516020810191633ccfd60b60e01b83528152610424816106d7565b51915af461032b610709565b80f35b50503461012157816003193601126101215760065490516001600160a01b039091168152602090f35b505034610121578160031936011261012157905490516001600160a01b039091168152602090f35b833461022d57602036600319011261022d5761049e610678565b600080516020610797833981519152546001600160a01b0316806104d1575b506000805160206107b78339815191525580f35b6104dc903314610693565b826104bd565b9190503461019a578260031936011261019a5782806000805160206107b78339815191525483516020810190630a893d1b60e21b8252868152610524816106d7565b51915af4610530610709565b8161057a575b5015610540578280f35b906020606492519162461bcd60e51b8352820152601460248201527364656c656761746563616c6c206661696c65643160601b6044820152fd5b9050511538610536565b5050346101215760203660031901126101215760209181906001600160a01b036105ac610678565b1681526001845220549051908152f35b809250600319360112610121576104309282916000805160206107b78339815191525491516020810191631998aeef60e01b83528152610424816106d7565b5050346101215781600319360112610121576020906008549051908152f35b5050346101215781600319360112610121576000805160206107978339815191525490516001600160a01b039091168152602090f35b849034610121578160031936011261012157806000805160206107b783398151915260209252f35b600435906001600160a01b038216820361068e57565b600080fd5b1561069a57565b60405162461bcd60e51b81526020600482015260156024820152743737ba1037bbb732b913b99037b832b930ba34b7b760591b6044820152606490fd5b6040810190811067ffffffffffffffff8211176106f357604052565b634e487b7160e01b600052604160045260246000fd5b3d1561074f5767ffffffffffffffff903d8281116106f35760405192601f8201601f19908116603f01168401908111848210176106f35760405282523d6000602084013e565b606090565b1561075b57565b60405162461bcd60e51b815260206004820152601360248201527219195b1959d85d1958d85b1b0819985a5b1959606a1b6044820152606490fdfe3ab6f526091d83c7f608550777c84774384a084c2342172c3693bc68bb521cfa74dbd92bcb8b748651fcc6c5c07d05f1b315db21298fc350f01fa00aad896fa2a2646970667358221220c720d8cca7449091e6d2ae40f3d23644ce14879de2c0586836abda5ae108085664736f6c63430008120033","linkReferences":{}},"methodIdentifiers":{"auctionEnd()":"2a24f46c","auctionEndTime()":"4b449cba","auctioneers(uint256)":"c3b7b136","beneficiary()":"38af3eed","bid()":"1998aeef","getImplementation()":"aaf10f42","getImplementationPosition()":"0a891cee","getOwnerAddress()":"0c4f65bd","getOwnerPosition()":"fc6af697","highestBid()":"d57bde79","highestBidder()":"91f90157","init(uint256,address,address,address,uint256)":"62ad0825","myApeAddress()":"55447a38","pendingReturns(address)":"26b387bb","pointAddress()":"3a0c4f80","setOwnership(address)":"a7016023","tokenId()":"17d70f7c","upgradeTo(address)":"3659cfe6","withdraw()":"3ccfd60b"},"id":113}