{"abi":[{"type":"function","name":"bid","inputs":[],"outputs":[],"stateMutability":"payable"},{"type":"function","name":"highestBid","inputs":[],"outputs":[{"name":"","type":"uint256","internalType":"uint256"}],"stateMutability":"view"},{"type":"function","name":"highestBidder","inputs":[],"outputs":[{"name":"","type":"address","internalType":"address"}],"stateMutability":"view"}],"bytecode":{"object":"0x608080604052346100155760da908161001b8239f35b600080fdfe6080806040526004361015601257600080fd5b600090813560e01c9081631998aeef14608257816391f9015714605c575063d57bde7914603e57600080fd5b34605957806003193601126059576020600154604051908152f35b80fd5b905034607e5781600319360112607e5790546001600160a01b03168152602090f35b5080fd5b828060031936011260595780546001600160a01b031916331781553460015580f3fea2646970667358221220dbb80c7dff0326227653806fccdf3be76a045476a8e346cc55e849a5d57e85c964736f6c63430008120033","linkReferences":{}},"methodIdentifiers":{"bid()":"1998aeef","highestBid()":"d57bde79","highestBidder()":"91f90157"},"id":22}