{"abi":[{"type":"function","name":"bid","inputs":[],"outputs":[],"stateMutability":"nonpayable"}],"bytecode":{"object":"0x60808060405234601357606b908160198239f35b600080fdfe6004361015600c57600080fd5b6000803560e01c631998aeef14602157600080fd5b346032578060031936011260325780f35b80fdfea2646970667358221220a0db58ac6ea41b4a3f4f809824180a48f1f4e0ca9c382e8bb20ecc1f7d6e024f64736f6c63430008120033","linkReferences":{}},"methodIdentifiers":{"bid()":"1998aeef"},"id":29}