{"abi":[{"type":"function","name":"auctionEnd","inputs":[],"outputs":[],"stateMutability":"nonpayable"},{"type":"function","name":"bid","inputs":[{"name":"_value","type":"bytes32","internalType":"bytes32"}],"outputs":[],"stateMutability":"payable"},{"type":"function","name":"getImplementation","inputs":[],"outputs":[{"name":"impl","type":"address","internalType":"address"}],"stateMutability":"view"},{"type":"function","name":"getImplementationPosition","inputs":[],"outputs":[{"name":"implementationPosition","type":"bytes32","internalType":"bytes32"}],"stateMutability":"pure"},{"type":"function","name":"getOwnerAddress","inputs":[],"outputs":[{"name":"ownerAddress","type":"address","internalType":"address"}],"stateMutability":"view"},{"type":"function","name":"getOwnerPosition","inputs":[],"outputs":[{"name":"ownerPosition","type":"bytes32","internalType":"bytes32"}],"stateMutability":"pure"},{"type":"function","name":"init","inputs":[{"name":"biddingTime","type":"uint256","internalType":"uint256"},{"name":"revealTime","type":"uint256","internalType":"uint256"},{"name":"beneficiaryAddress","type":"address","internalType":"address payable"}],"outputs":[],"stateMutability":"nonpayable"},{"type":"function","name":"reveal","inputs":[{"name":"values","type":"uint256[]","internalType":"uint256[]"},{"name":"fakes","type":"bool[]","internalType":"bool[]"},{"name":"secrets","type":"string[]","internalType":"string[]"}],"outputs":[],"stateMutability":"nonpayable"},{"type":"function","name":"setOwnership","inputs":[{"name":"_newOwner","type":"address","internalType":"address"}],"outputs":[],"stateMutability":"nonpayable"},{"type":"function","name":"upgradeTo","inputs":[{"name":"newImplementation","type":"address","internalType":"address"}],"outputs":[],"stateMutability":"nonpayable"}],"bytecode":{"object":"0x60808060405234610016576107a9908161001c8239f35b600080fdfe608060408181526004918236101561001657600080fd5b600092833560e01c9182630a891cee146105d7575081630c4f65bd146105a15781631c8ac1cb146103c65781632a24f46c146103605781633659cfe6146102ff578163957bb1e014610269578163a70160231461020b578163aaf10f42146101d5578163f3251e1e146100be575063fc6af6971461009357600080fd5b346100ba57816003193601126100ba57602090516000805160206107348339815191528152f35b5080fd5b9050346101d15760603660031901126101d1576001600160a01b0390604435828116908190036101cd576000805160206107348339815191529383855416806101bc575b50600080516020610754833981519152549281519160208301936379928f0f60e11b855282356024850152602435604485015260648401526064835260a083019183831067ffffffffffffffff8411176101a9575052516101789286928392915af461016c6106b1565b8161019f575b506106f1565b8154168061018e575b5033156100ba5733905580f35b610199903314610635565b38610181565b9050511538610172565b634e487b7160e01b895260419052602488fd5b6101c7903314610635565b38610102565b8480fd5b8280fd5b5050346100ba57816003193601126100ba576000805160206107548339815191525490516001600160a01b039091168152602090f35b8390346100ba5760203660031901126100ba57356001600160a01b03808216808303610265576000805160206107348339815191529182541680610254575b50156101d1575580f35b61025f903314610635565b8461024a565b8380fd5b838360203660031901126100ba57600080516020610754833981519152549080519360208501916304abdd8f60e51b83528135602487015260248652606086019186831067ffffffffffffffff8411176102ec57505283516102df9284928392915af46102d46106b1565b816102e257506106f1565b80f35b9050511583610172565b634e487b7160e01b865260419052602485fd5b8390346100ba5760203660031901126100ba57356001600160a01b0380821682036101d15760008051602061073483398151915254168061034f575b506000805160206107548339815191525580f35b61035a903314610635565b8261033b565b8383346100ba57816003193601126100ba5760008051602061075483398151915254908051936020850191630a893d1b60e21b83528186528086019186831067ffffffffffffffff8411176102ec57505283516102df9284928392915af46102d46106b1565b8383346100ba5760603660031901126100ba5767ffffffffffffffff8335818111610265576103f890369086016105ff565b9160243581811161059d5761041090369088016105ff565b92909660443583811161059957610429913691016105ff565b91906000805160206107548339815191525496519460209283870197631c8ac1cb60e01b89526060602489015280608489015260018060fb1b038111610595579060c49160059c97969594939c1b809160a48a013787018b60a4820160808a84030160448b015252019499895b818110610569575050889950602398979819868603016064870152828552818501828460051b8701019582958a935b8685106104f6575050896102df81808e8d8d6104ea818f03601f198101835282610679565b51915af46102d46106b1565b9091929394959697601f19808583030186528935601e1984360301811215610565578301888135910185821161056157813603811361056157838f93601f848d9681889796889760019b5287870137858286010152011601019a0195019501939695949291906104c5565b8e80fd5b8d80fd5b9091929394958b358015158091036105915781529a84019a8401959493929190600101610496565b8b80fd5b8a80fd5b8780fd5b8580fd5b5050346100ba57816003193601126100ba576000805160206107348339815191525490516001600160a01b039091168152602090f35b8490346100ba57816003193601126100ba578060008051602061075483398151915260209252f35b9181601f840112156106305782359167ffffffffffffffff8311610630576020808501948460051b01011161063057565b600080fd5b1561063c57565b60405162461bcd60e51b81526020600482015260156024820152743737ba1037bbb732b913b99037b832b930ba34b7b760591b6044820152606490fd5b90601f8019910116810190811067ffffffffffffffff82111761069b57604052565b634e487b7160e01b600052604160045260246000fd5b3d156106ec573d9067ffffffffffffffff821161069b57604051916106e0601f8201601f191660200184610679565b82523d6000602084013e565b606090565b156106f857565b60405162461bcd60e51b815260206004820152601360248201527219195b1959d85d1958d85b1b0819985a5b1959606a1b6044820152606490fdfeb57f0cf330bf7f95b43f3db6cc247b2fad54dff50060f4879a89bfae6af8bec9d8783a201dbe4630138646b6a4841a31f1af98dfb8abbb44d025578c324d7beda2646970667358221220fdb8ecd570dfc1606d802f47b7dc172ca390610b93bdeeebd0f516af79534d5864736f6c63430008120033","linkReferences":{}},"methodIdentifiers":{"auctionEnd()":"2a24f46c","bid(bytes32)":"957bb1e0","getImplementation()":"aaf10f42","getImplementationPosition()":"0a891cee","getOwnerAddress()":"0c4f65bd","getOwnerPosition()":"fc6af697","init(uint256,uint256,address)":"f3251e1e","reveal(uint256[],bool[],string[])":"1c8ac1cb","setOwnership(address)":"a7016023","upgradeTo(address)":"3659cfe6"},"id":66}