{"abi":[{"type":"constructor","inputs":[{"name":"biddingTime","type":"uint256","internalType":"uint256"},{"name":"beneficiaryAddress","type":"address","internalType":"address payable"}],"stateMutability":"nonpayable"},{"type":"function","name":"auctionEnd","inputs":[],"outputs":[],"stateMutability":"nonpayable"},{"type":"function","name":"auctionEndTime","inputs":[],"outputs":[{"name":"","type":"uint256","internalType":"uint256"}],"stateMutability":"view"},{"type":"function","name":"beneficiary","inputs":[],"outputs":[{"name":"","type":"address","internalType":"address payable"}],"stateMutability":"view"},{"type":"function","name":"bid","inputs":[],"outputs":[],"stateMutability":"payable"},{"type":"function","name":"highestBid","inputs":[],"outputs":[{"name":"","type":"uint256","internalType":"uint256"}],"stateMutability":"view"},{"type":"function","name":"highestBidder","inputs":[],"outputs":[{"name":"","type":"address","internalType":"address"}],"stateMutability":"view"},{"type":"function","name":"pendingReturns","inputs":[{"name":"","type":"address","internalType":"address"}],"outputs":[{"name":"","type":"uint256","internalType":"uint256"}],"stateMutability":"view"},{"type":"function","name":"withdraw","inputs":[],"outputs":[],"stateMutability":"nonpayable"},{"type":"error","name":"AuctionEndAlreadyCalled","inputs":[]},{"type":"error","name":"BidNotHighEnough","inputs":[{"name":"highestBid","type":"uint256","internalType":"uint256"}]},{"type":"error","name":"OnlyCanBeCallAfterThisTime","inputs":[]},{"type":"error","name":"OnlyCanBeCallBeforeThisTime","inputs":[]}],"bytecode":{"object":"0x60803461009857601f6103ba38819003918201601f19168301916001600160401b0383118484101761009d5780849260409485528339810103126100985780516020909101516001600160a01b038116908190036100985760018060a01b0319600054161760005542018042116100825760015560405161030690816100b48239f35b634e487b7160e01b600052601160045260246000fd5b600080fd5b634e487b7160e01b600052604160045260246000fdfe608060408181526004918236101561001657600080fd5b600092833560e01c9182631998aeef1461022d5750816326b387bb146101ef5781632a24f46c1461016e57816338af3eed146101465781633ccfd60b146100e4575080634b449cba146100c657806391f901571461009e5763d57bde791461007d57600080fd5b3461009a578160031936011261009a576020906003549051908152f35b5080fd5b503461009a578160031936011261009a5760025490516001600160a01b039091168152602090f35b503461009a578160031936011261009a576020906001549051908152f35b905034610142578260031936011261014257338352602052818181208054908115908115610110578380f35b83928392838093558290610139575b3390f11561012f57818180808380f35b51903d90823e3d90fd5b506108fc61011f565b8280fd5b50503461009a578160031936011261009a57905490516001600160a01b039091168152602090f35b9050346101425782600319360112610142576001544211156101e1576005549060ff82166101d3575060ff191660011760055581546003548391829182918291906001600160a01b03168282156101ca575bf11561012f575080f35b506108fc6101c0565b8251630c39fb9f60e31b8152fd5b905163053b28ef60e21b8152fd5b9050346101425760203660031901126101425780356001600160a01b03811690819003610229579282916020948252845220549051908152f35b8380fd5b90915083600319360112610229576001544210156102c4575060035491823411156102af5782610272575b600280546001600160a01b03191633179055346003558380f35b60018060a01b0360025416845281602052832090815492830180931161029c575055388080610258565b634e487b7160e01b845260119052602483fd5b916024925191634e12c1bb60e01b8352820152fd5b6304cecf2f60e41b8152fdfea2646970667358221220ce8f7e40b5f55b966b91dc1bfc70015a2f947f3556b94f0a397e3323c4a727c364736f6c63430008120033","linkReferences":{}},"methodIdentifiers":{"auctionEnd()":"2a24f46c","auctionEndTime()":"4b449cba","beneficiary()":"38af3eed","bid()":"1998aeef","highestBid()":"d57bde79","highestBidder()":"91f90157","pendingReturns(address)":"26b387bb","withdraw()":"3ccfd60b"},"id":25}