{"abi":[{"type":"function","name":"reveal","inputs":[{"name":"blindInfo","type":"tuple[]","internalType":"struct BlindAuctionLib.Bid[]","components":[{"name":"blindedBid","type":"bytes32","internalType":"bytes32"},{"name":"deposit","type":"uint256","internalType":"uint256"}]},{"name":"bidReveals","type":"tuple","internalType":"struct BlindAuctionLib.BidReveal","components":[{"name":"values","type":"uint256[]","internalType":"uint256[]"},{"name":"fakes","type":"bool[]","internalType":"bool[]"},{"name":"secrets","type":"string[]","internalType":"string[]"}]},{"name":"highestBid","type":"uint256","internalType":"uint256"},{"name":"highestBidder","type":"address","internalType":"address"}],"outputs":[{"name":"lastHighestBid","type":"uint256","internalType":"uint256"},{"name":"lastHighestBidder","type":"address","internalType":"address"},{"name":"refund","type":"uint256","internalType":"uint256"}],"stateMutability":"view"},{"type":"error","name":"RevealMsgError","inputs":[{"name":"value","type":"uint256","internalType":"uint256"},{"name":"fake","type":"bool","internalType":"bool"},{"name":"secret","type":"string","internalType":"string"}]}],"bytecode":{"object":"0x6080806040523461001a5761047b9081610020823930815050f35b600080fdfe6080604052600436101561001257600080fd5b60003560e01c63c17320391461002757600080fd5b6003196080368201126103225767ffffffffffffffff60043511610322573660236004350112156103225767ffffffffffffffff6004356004013511610322573660246004356004013560061b600435010111610322576024359067ffffffffffffffff8211610322576060908236030112610322576064356001600160a01b038116810361032257604435906000906100d66100c76004860180610353565b90506004356004013514610389565b6100e96100c76024860186600401610353565b6100fc6100c76044860186600401610353565b60005b60043560040135811061012e5750604080519384526001600160a01b0391909116602084015282015260609150f35b60406023198260061b6004350136030112610322576040519283604081011067ffffffffffffffff60408601111761033d576040848101905260048035600684901b016024810135865260440135602086015261019990839061019390890180610353565b906103dd565b356101ae8361019360248a018a600401610353565b358015158103610322576101c86044890189600401610353565b851015610327578460051b810135601e19823603018112156103225767ffffffffffffffff81830135116103225780820135360360208284010113610322576040519161022282820135601f01601f1916602001846103bb565b80820180358085523691016020011161032257600091602091808201803590840186850137013583010152865160405160208101906102758161026786888a876103ed565b03601f1981018352826103bb565b519020036103005750602086015183018093116102b857818396821592156102f1575b5050806102e8575b6102ce575b505060001981146102b8576001016100ff565b634e487b7160e01b600052601160045260246000fd5b94509092503391508381039081116102b8579138806102a5565b508581116102a0565b60200151101590508138610298565b60405163bb52ee7760e01b815291829161031e9185600485016103ed565b0390fd5b600080fd5b634e487b7160e01b600052603260045260246000fd5b634e487b7160e01b600052604160045260246000fd5b903590601e1981360301821215610322570180359067ffffffffffffffff821161032257602001918160051b3603831361032257565b1561039057565b60405162461bcd60e51b81526020600482015260036024820152624c4e4d60e81b6044820152606490fd5b90601f8019910116810190811067ffffffffffffffff82111761033d57604052565b91908110156103275760051b0190565b9193929082526020931515848301526060604083015280519081606084015260005b82811061043157505060809293506000838284010152601f8019910116010190565b81810186015184820160800152850161040f56fea264697066735822122088e304e8343afc8ec006925b2cb77217ef1f846e4106e15c979b8203e98fad5064736f6c63430008120033","linkReferences":{}},"methodIdentifiers":{"reveal(BlindAuctionLib.Bid[],BlindAuctionLib.BidReveal,uint256,address)":"c1732039"},"id":41}