{"abi":[{"type":"function","name":"auctionEnd","inputs":[],"outputs":[],"stateMutability":"nonpayable"},{"type":"function","name":"auctionEndTime","inputs":[],"outputs":[{"name":"","type":"uint256","internalType":"uint256"}],"stateMutability":"view"},{"type":"function","name":"auctioneers","inputs":[{"name":"","type":"uint256","internalType":"uint256"}],"outputs":[{"name":"","type":"address","internalType":"address"}],"stateMutability":"view"},{"type":"function","name":"beneficiary","inputs":[],"outputs":[{"name":"","type":"address","internalType":"address payable"}],"stateMutability":"view"},{"type":"function","name":"bid","inputs":[],"outputs":[],"stateMutability":"payable"},{"type":"function","name":"containsElement","inputs":[{"name":"auctioneers","type":"address[]","internalType":"address[]"},{"name":"element","type":"address","internalType":"address"}],"outputs":[{"name":"","type":"bool","internalType":"bool"}],"stateMutability":"pure"},{"type":"function","name":"highestBid","inputs":[],"outputs":[{"name":"","type":"uint256","internalType":"uint256"}],"stateMutability":"view"},{"type":"function","name":"highestBidder","inputs":[],"outputs":[{"name":"","type":"address","internalType":"address"}],"stateMutability":"view"},{"type":"function","name":"init","inputs":[{"name":"biddingTime","type":"uint256","internalType":"uint256"},{"name":"beneficiaryAddress","type":"address","internalType":"address payable"},{"name":"_pointAddress","type":"address","internalType":"address"},{"name":"_myApeAddress","type":"address","internalType":"address"},{"name":"_tokenId","type":"uint256","internalType":"uint256"}],"outputs":[],"stateMutability":"nonpayable"},{"type":"function","name":"myApeAddress","inputs":[],"outputs":[{"name":"","type":"address","internalType":"address"}],"stateMutability":"view"},{"type":"function","name":"pendingReturns","inputs":[{"name":"","type":"address","internalType":"address"}],"outputs":[{"name":"","type":"uint256","internalType":"uint256"}],"stateMutability":"view"},{"type":"function","name":"pointAddress","inputs":[],"outputs":[{"name":"","type":"address","internalType":"address"}],"stateMutability":"view"},{"type":"function","name":"tokenId","inputs":[],"outputs":[{"name":"","type":"uint256","internalType":"uint256"}],"stateMutability":"view"},{"type":"function","name":"withdraw","inputs":[],"outputs":[],"stateMutability":"nonpayable"},{"type":"event","name":"AuctionEnded","inputs":[],"anonymous":false},{"type":"event","name":"RevealDetail","inputs":[{"name":"values","type":"uint256[]","indexed":false,"internalType":"uint256[]"},{"name":"fakes","type":"bool[]","indexed":false,"internalType":"bool[]"},{"name":"secrets","type":"string[]","indexed":false,"internalType":"string[]"}],"anonymous":false},{"type":"event","name":"SomeoneBid","inputs":[{"name":"bidder","type":"address","indexed":false,"internalType":"address"}],"anonymous":false},{"type":"event","name":"SomeoneReveal","inputs":[{"name":"bidder","type":"address","indexed":false,"internalType":"address"},{"name":"values","type":"uint256[]","indexed":false,"internalType":"uint256[]"},{"name":"fakes","type":"bool[]","indexed":false,"internalType":"bool[]"},{"name":"secrets","type":"string[]","indexed":false,"internalType":"string[]"}],"anonymous":false},{"type":"error","name":"AuctionEndAlreadyCalled","inputs":[]},{"type":"error","name":"BidNotHighEnough","inputs":[{"name":"highestBid","type":"uint256","internalType":"uint256"}]},{"type":"error","name":"OnlyCanBeCallAfterThisTime","inputs":[{"name":"time","type":"uint256","internalType":"uint256"}]},{"type":"error","name":"OnlyCanBeCallBeforeThisTime","inputs":[{"name":"time","type":"uint256","internalType":"uint256"}]}],"bytecode":{"object":"0x60808060405234610023576000805460ff60a01b19169055610a2790816100298239f35b600080fdfe608060408181526004918236101561001657600080fd5b600090813560e01c90816317d70f7c146108b6575080631998aeef1461074d57806326b387bb146107135780632a24f46c146103f957806338af3eed146103d15780633a0c4f80146103a85780633ccfd60b146103485780634b449cba1461032957806355447a381461030057806362ad08251461022757806391f90157146101ff578063c3b7b136146101be578063d57bde791461019b5763dedcf1db146100be57600080fd5b3461015a578160031936011261015a57823567ffffffffffffffff938482116101975736602383011215610197578181013594851161018457508360051b9083519160209561010f87830185610949565b83526024868401918301019136831161018057602401905b82821061015d5750506024359290506001600160a01b038316830361015a57509061015191610990565b90519015158152f35b80fd5b81356001600160a01b038116810361017c578152908601908601610127565b8580fd5b8480fd5b634e487b7160e01b835260419052602482fd5b8280fd5b5090346101ba57816003193601126101ba576020906005549051908152f35b5080fd5b50913461019757602036600319011261019757359160095483101561015a57506101e96020926108d2565b905491519160018060a01b039160031b1c168152f35b5091346101975782600319360112610197575490516001600160a01b03909116815260209150f35b5091346101975760a0366003190112610197576001600160a01b039160243583811690819003610180576044359284841680940361017c5760643594851680950361017c5785549260ff8460a01c166102ce57506102869035426109e4565b600355600160a01b916affffffffffffffffffffff60a81b16171783556bffffffffffffffffffffffff60a01b90816006541617600655600754161760075560843560085580f35b906020606492519162461bcd60e51b8352820152600c60248201526b105b1c9958591e481a5b9a5d60a21b6044820152fd5b5090346101ba57816003193601126101ba5760075490516001600160a01b039091168152602090f35b5090346101ba57816003193601126101ba576020906003549051908152f35b5090346101ba57816003193601126101ba573382526001602052818181208054908115908115610376578380f35b8392839283809355829061039f575b3390f11561039557818180808380f35b51903d90823e3d90fd5b506108fc610385565b5090346101ba57816003193601126101ba5760065490516001600160a01b039091168152602090f35b5090346101ba57816003193601126101ba57905490516001600160a01b039091168152602090f35b5082346101ba57816003193601126101ba576003928354804211156106fb57506002549160ff83166106ed576001809360ff191617600255600554825191606083019467ffffffffffffffff95848110878211176106da578552602284526020977f4162737472616374426173696341756374696f6e2061756374696f6e456e643a8986015261257360f01b8686015285519689880195632d839cb360e21b875260249688888b01528a8251928360648d01528d825b8581106106c357505050809181848d016084015260449b898d82015280601f19601f819701168101036064810182526084016104eb9082610949565b51905a6a636f6e736f6c652e6c6f6790fa5089808080600160a01b60019003998a8254165af1913d156106ba573d9081116106a8576105338c8a5193601f8401160183610949565b81523d8a8c83013e5b8161069e575b5015610667578798508188969798905b6105df575b5050508160075416918154169560085492803b1561017c5760649386928851998a9788966323b872dd60e01b885233908801528601528401525af19081156105d657506105c7575b507fa0e92984607195c326795751263414ee1074526323552e694c90ef2b99ae3f298180a180f35b6105d09061091f565b8161059f565b513d84823e3d90fd5b600954811015610662578460065416856105f8836108d2565b905490851b1c16813b1561065e5788918b83928c5194859384926340c10f1960e01b84528b840152600a8d8401525af18015610654579061063f9291610645575b5061096b565b82610552565b61064e9061091f565b8b610639565b89513d8a823e3d90fd5b8880fd5b610557565b855162461bcd60e51b81528084018a9052601381870152721d1c985b9cd9995c881155120819985a5b1959606a1b81890152606490fd5b905051158a610542565b634e487b7160e01b8b5260418652878bfd5b5050606061053c565b808301820151818f01608401528e935081016104af565b634e487b7160e01b885260418352602488fd5b9051630c39fb9f60e31b8152fd5b9051600162f45b3b60e01b0319815291820152602490fd5b50913461019757602036600319011261019757356001600160a01b0381169081900361019757828291602094526001845220549051908152f35b5091908260031936011261019757600354804210156108a157506005548034111561088c5780610862575b50518060095491828152602080910190600986527f6e1540171b6c0c960b71a7020d9f60077f6af931a8bbf590da0223dacf75c7af90865b85811061084557505050906107ca816107d1930382610949565b3390610990565b156107ef575b5080546001600160a01b031916331790553460055580f35b680100000000000000008110156108325780600161081092016009556108d2565b81546001600160a01b0360039290921b91821b19163390911b179055386107d7565b634e487b7160e01b835260418252602483fd5b82546001600160a01b0316845292810192600192830192016107b0565b82546001600160a01b03168452600160205281842080549091610884916109e4565b905538610778565b9051634e12c1bb60e01b815291820152602490fd5b905163c66dbc9360e01b815291820152602490fd5b9050346101ba57816003193601126101ba576020906008548152f35b6009548110156109095760096000527f6e1540171b6c0c960b71a7020d9f60077f6af931a8bbf590da0223dacf75c7af0190600090565b634e487b7160e01b600052603260045260246000fd5b67ffffffffffffffff811161093357604052565b634e487b7160e01b600052604160045260246000fd5b90601f8019910116810190811067ffffffffffffffff82111761093357604052565b600019811461097a5760010190565b634e487b7160e01b600052601160045260246000fd5b9081519160005b8381106109a75750505050600090565b815181101561090957600581901b8201602001516001600160a01b038481169116146109db576109d69061096b565b610997565b50505050600190565b9190820180921161097a5756fea2646970667358221220e1c390aad2f76a5d9c5b7df0930ad92aae15338b479ff14d98042bcf21ed594364736f6c63430008120033","linkReferences":{}},"methodIdentifiers":{"auctionEnd()":"2a24f46c","auctionEndTime()":"4b449cba","auctioneers(uint256)":"c3b7b136","beneficiary()":"38af3eed","bid()":"1998aeef","containsElement(address[],address)":"dedcf1db","highestBid()":"d57bde79","highestBidder()":"91f90157","init(uint256,address,address,address,uint256)":"62ad0825","myApeAddress()":"55447a38","pendingReturns(address)":"26b387bb","pointAddress()":"3a0c4f80","tokenId()":"17d70f7c","withdraw()":"3ccfd60b"},"id":121}