{"abi":[{"type":"function","name":"auctionEnd","inputs":[],"outputs":[],"stateMutability":"nonpayable"},{"type":"function","name":"auctionEndTime","inputs":[],"outputs":[{"name":"","type":"uint256","internalType":"uint256"}],"stateMutability":"view"},{"type":"function","name":"beneficiary","inputs":[],"outputs":[{"name":"","type":"address","internalType":"address payable"}],"stateMutability":"view"},{"type":"function","name":"bid","inputs":[{"name":"blindedBid","type":"bytes32","internalType":"bytes32"}],"outputs":[],"stateMutability":"payable"},{"type":"function","name":"bids","inputs":[{"name":"","type":"address","internalType":"address"},{"name":"","type":"uint256","internalType":"uint256"}],"outputs":[{"name":"blindedBid","type":"bytes32","internalType":"bytes32"},{"name":"deposit","type":"uint256","internalType":"uint256"}],"stateMutability":"view"},{"type":"function","name":"highestBid","inputs":[],"outputs":[{"name":"","type":"uint256","internalType":"uint256"}],"stateMutability":"view"},{"type":"function","name":"highestBidder","inputs":[],"outputs":[{"name":"","type":"address","internalType":"address"}],"stateMutability":"view"},{"type":"function","name":"init","inputs":[{"name":"biddingTime","type":"uint256","internalType":"uint256"},{"name":"revealTime","type":"uint256","internalType":"uint256"},{"name":"beneficiaryAddress","type":"address","internalType":"address payable"}],"outputs":[],"stateMutability":"nonpayable"},{"type":"function","name":"reveal","inputs":[{"name":"values","type":"uint256[]","internalType":"uint256[]"},{"name":"fakes","type":"bool[]","internalType":"bool[]"},{"name":"secrets","type":"string[]","internalType":"string[]"}],"outputs":[],"stateMutability":"nonpayable"},{"type":"function","name":"revealEndTime","inputs":[],"outputs":[{"name":"","type":"uint256","internalType":"uint256"}],"stateMutability":"view"},{"type":"event","name":"AuctionEnded","inputs":[],"anonymous":false},{"type":"event","name":"RevealDetail","inputs":[{"name":"values","type":"uint256[]","indexed":false,"internalType":"uint256[]"},{"name":"fakes","type":"bool[]","indexed":false,"internalType":"bool[]"},{"name":"secrets","type":"string[]","indexed":false,"internalType":"string[]"}],"anonymous":false},{"type":"event","name":"SomeoneBid","inputs":[{"name":"bidder","type":"address","indexed":false,"internalType":"address"}],"anonymous":false},{"type":"event","name":"SomeoneReveal","inputs":[{"name":"bidder","type":"address","indexed":false,"internalType":"address"}],"anonymous":false},{"type":"error","name":"AuctionEndAlreadyCalled","inputs":[]},{"type":"error","name":"BidNotHighEnough","inputs":[{"name":"highestBid","type":"uint256","internalType":"uint256"}]},{"type":"error","name":"OnlyCanBeCallAfterThisTime","inputs":[]},{"type":"error","name":"OnlyCanBeCallBeforeThisTime","inputs":[]}],"bytecode":{"object":"0x60808060405234610023576000805460ff60a01b19169055610b6390816100298239f35b600080fdfe6080604052600436101561001257600080fd5b60003560e01c806301495c1c146109fa5780631c8ac1cb146103ad5780632a24f46c146102aa57806338af3eed146102815780634b449cba1461026357806391f901571461023a578063957bb1e01461016b578063d49dc1d81461014d578063d57bde791461012f5763f3251e1e1461008a57600080fd5b3461012a57606036600319011261012a576044356001600160a01b0381169081900361012a576000549060ff8260a01c166100f6576100db6100ce60043542610abd565b8060015560243590610abd565b6005556001600160a81b031990911617600160a01b17600055005b60405162461bcd60e51b815260206004820152600c60248201526b105b1c9958591e481a5b9a5d60a21b6044820152606490fd5b600080fd5b3461012a57600036600319011261012a576020600354604051908152f35b3461012a57600036600319011261012a576020600554604051908152f35b602036600319011261012a5733600052600460205260406000206040516040810181811067ffffffffffffffff8211176102245760405260043581526020810191348352805468010000000000000000811015610224576101d191600182018155610a5a565b92909261020e57600191518355519101557fcb3b30057a138be4cd23038729c66dbececeba7913b280de1a33117b008c5f6b6020604051338152a1005b634e487b7160e01b600052600060045260246000fd5b634e487b7160e01b600052604160045260246000fd5b3461012a57600036600319011261012a576002546040516001600160a01b039091168152602090f35b3461012a57600036600319011261012a576020600154604051908152f35b3461012a57600036600319011261012a576000546040516001600160a01b039091168152602090f35b3461012a57600036600319011261012a5760005460ff8160a81c1661039b5760ff60a81b198116600160a81b1760009081556003549091829182918291906001600160a01b03165af13d15610394573d61030381610b11565b906103116040519283610aca565b81523d6000602083013e5b8161038a575b501561034f577fa0e92984607195c326795751263414ee1074526323552e694c90ef2b99ae3f29600080a1005b60405162461bcd60e51b81526020600482015260136024820152721d1c985b9cd9995c881155120819985a5b1959606a1b6044820152606490fd5b9050511581610322565b606061031c565b604051630c39fb9f60e31b8152600490fd5b3461012a57606036600319011261012a5760043567ffffffffffffffff811161012a576103de903690600401610a8c565b60243567ffffffffffffffff811161012a576103fe903690600401610a8c565b60443567ffffffffffffffff811161012a5761041e903690600401610a8c565b9091604051956060870187811067ffffffffffffffff8211176102245760405261044786610aec565b6104546040519182610aca565b86815260208101368860051b84011161012a5782905b8860051b840182106109ea575050875261048382610aec565b6104906040519182610aca565b82815260208101368460051b88011161012a5786905b8460051b880182106109d257505060208801526104c283610aec565b6104cf6040519182610aca565b83815260208101368560051b87011161012a5785905b8560051b8701821061095f5750506040880152604051956060875280606088015260018060fb1b03811161012a5760a0918160059695961b90608089013760051b8601826080820160808984030160208a01525201939060005b818110610938575050508383036040850152818352602083019160208160051b8501019382936000915b8383106108b657887fc983068935d78eacee634d7b064b5ea7a1bd0d838ff1eef9ebca8f4fef7911a18989038aa133600052600460205260406000206003549160018060a01b03600254169160405193849263c173203960e01b84526084840160806004860152835480915260a485019360005260206000209060005b818110610892575050508383036003190160248501528051606080855281519085018190526080850192916020019060005b8181106108795750505060208101519184810360208601526020808451928381520193019060005b81811061085e575050506040015192604081830391015282519081815260208101916020808260051b8401019501926000925b8284106107f75787606081808a8d8b60448401526064830152038173__$b594863d217f44a25c4f49ad184717cc88$__5af490811561073b57600080916000936107a6575b5060035560018060a01b03166bffffffffffffffffffffffff60a01b600254161760025533600052600460205260406000208054906000815581610750575b5050600080808093818115610747575b3390f11561073b577fe0b83a7ace6940b32786e135a0f683a7116b66197efae9ef2d738880e1d93a9c6020604051338152a1005b6040513d6000823e3d90fd5b506108fc610707565b6001600160ff1b038216820361079057600052602060002090600190811b8201915b82811061077f57506106f7565b600080825582820155600201610772565b634e487b7160e01b600052601160045260246000fd5b925050506060813d6060116107ef575b816107c360609383610aca565b8101031261012a5780516020820151916001600160a01b038316830361012a57604001519190836106b8565b3d91506107b6565b9193979650919394601f19828203018352875180519081835260005b82811061084957505060208083836000838096600198010152601f80199101160101990193019401919290938896979594610673565b80602080928401015182828701015201610813565b82511515855289975060209485019490920191600101610640565b8251855289975060209485019490920191600101610618565b825486526001808401546020880152899750604090960195600290930192016105e6565b909192939495601f198282030183528635601e198736030181121561012a5767ffffffffffffffff878201351161012a578681013536036020888301011361012a57868101803580845260019360209384938493908401838501376000838c83013584010152601f8b8119920135011601019801930193019194939290610569565b90919460208060019261094d89989798610b04565b1515815201969495940192910161053f565b813567ffffffffffffffff811161012a5736601f828a0101121561012a5761098981890135610b11565b916109976040519384610aca565b88820180358085523691016020011161012a57602092600084848c82828198830135920101838601378c0135830101528152019101906104e5565b602080916109df84610b04565b8152019101906104a6565b813581526020918201910161046a565b3461012a57604036600319011261012a576004356001600160a01b0381169081900361012a576024359060005260046020526040600020805482101561012a57604091610a4691610a5a565b506001815491015482519182526020820152f35b8054821015610a765760005260206000209060011b0190600090565b634e487b7160e01b600052603260045260246000fd5b9181601f8401121561012a5782359167ffffffffffffffff831161012a576020808501948460051b01011161012a57565b9190820180921161079057565b90601f8019910116810190811067ffffffffffffffff82111761022457604052565b67ffffffffffffffff81116102245760051b60200190565b3590811515820361012a57565b67ffffffffffffffff811161022457601f01601f19166020019056fea2646970667358221220916f86b0e2c840b2b5f42aa7826a29f3ac32ac38a4eb21da4623c161cdbd0ad564736f6c63430008120033","linkReferences":{"src/contracts/pro/pro5/libraries/BlindAuctionLib.sol":{"BlindAuctionLib":[{"start":1721,"length":20}]}}},"methodIdentifiers":{"auctionEnd()":"2a24f46c","auctionEndTime()":"4b449cba","beneficiary()":"38af3eed","bid(bytes32)":"957bb1e0","bids(address,uint256)":"01495c1c","highestBid()":"d57bde79","highestBidder()":"91f90157","init(uint256,uint256,address)":"f3251e1e","reveal(uint256[],bool[],string[])":"1c8ac1cb","revealEndTime()":"d49dc1d8"},"id":91}